{"contracts/Today.sol":{"Today":{"abi":[{"inputs":[{"internalType":"string","name":"contractName","type":"string"},{"internalType":"string[]","name":"_imageUrls","type":"string[]"},{"internalType":"string","name":"_textColor","type":"string"},{"internalType":"string","name":"_bgColor","type":"string"},{"internalType":"string","name":"_bannerImage","type":"string"}],"stateMutability":"nonpayable","type":"constructor"},{"inputs":[],"name":"ApprovalCallerNotOwnerNorApproved","type":"error"},{"inputs":[],"name":"ApprovalQueryForNonexistentToken","type":"error"},{"inputs":[],"name":"BalanceQueryForZeroAddress","type":"error"},{"inputs":[],"name":"MintERC2309QuantityExceedsLimit","type":"error"},{"inputs":[],"name":"MintToZeroAddress","type":"error"},{"inputs":[],"name":"MintZeroQuantity","type":"error"},{"inputs":[],"name":"NotCompatibleWithSpotMints","type":"error"},{"inputs":[],"name":"OwnerQueryForNonexistentToken","type":"error"},{"inputs":[],"name":"OwnershipNotInitializedForExtraData","type":"error"},{"inputs":[],"name":"SequentialMintExceedsLimit","type":"error"},{"inputs":[],"name":"SequentialUpToTooSmall","type":"error"},{"inputs":[],"name":"SpotMintTokenIdTooSmall","type":"error"},{"inputs":[],"name":"TokenAlreadyExists","type":"error"},{"inputs":[],"name":"TransferCallerNotOwnerNorApproved","type":"error"},{"inputs":[],"name":"TransferFromIncorrectOwner","type":"error"},{"inputs":[],"name":"TransferToNonERC721ReceiverImplementer","type":"error"},{"inputs":[],"name":"TransferToZeroAddress","type":"error"},{"inputs":[],"name":"URIQueryForNonexistentToken","type":"error"},{"anonymous":false,"inputs":[{"indexed":true,"internalType":"address","name":"owner","type":"address"},{"indexed":true,"internalType":"address","name":"approved","type":"address"},{"indexed":true,"internalType":"uint256","name":"tokenId","type":"uint256"}],"name":"Approval","type":"event"},{"anonymous":false,"inputs":[{"indexed":true,"internalType":"address","name":"owner","type":"address"},{"indexed":true,"internalType":"address","name":"operator","type":"address"},{"indexed":false,"internalType":"bool","name":"approved","type":"bool"}],"name":"ApprovalForAll","type":"event"},{"anonymous":false,"inputs":[{"indexed":true,"internalType":"uint256","name":"fromTokenId","type":"uint256"},{"indexed":false,"internalType":"uint256","name":"toTokenId","type":"uint256"},{"indexed":true,"internalType":"address","name":"from","type":"address"},{"indexed":true,"internalType":"address","name":"to","type":"address"}],"name":"ConsecutiveTransfer","type":"event"},{"anonymous":false,"inputs":[],"name":"ContractURIUpdated","type":"event"},{"anonymous":false,"inputs":[{"indexed":true,"internalType":"address","name":"previousOwner","type":"address"},{"indexed":true,"internalType":"address","name":"newOwner","type":"address"}],"name":"OwnershipTransferred","type":"event"},{"anonymous":false,"inputs":[{"indexed":true,"internalType":"address","name":"from","type":"address"},{"indexed":true,"internalType":"address","name":"to","type":"address"},{"indexed":true,"internalType":"uint256","name":"tokenId","type":"uint256"}],"name":"Transfer","type":"event"},{"inputs":[{"internalType":"address","name":"to","type":"address"},{"internalType":"uint256","name":"tokenId","type":"uint256"}],"name":"approve","outputs":[],"stateMutability":"payable","type":"function"},{"inputs":[{"internalType":"address","name":"owner","type":"address"}],"name":"balanceOf","outputs":[{"internalType":"uint256","name":"","type":"uint256"}],"stateMutability":"view","type":"function"},{"inputs":[],"name":"bgColor","outputs":[{"internalType":"string","name":"","type":"string"}],"stateMutability":"view","type":"function"},{"inputs":[],"name":"contractURI","outputs":[{"internalType":"string","name":"","type":"string"}],"stateMutability":"view","type":"function"},{"inputs":[],"name":"customBannerImage","outputs":[{"internalType":"string","name":"","type":"string"}],"stateMutability":"view","type":"function"},{"inputs":[],"name":"customContractURI","outputs":[{"internalType":"string","name":"","type":"string"}],"stateMutability":"view","type":"function"},{"inputs":[{"internalType":"uint256","name":"","type":"uint256"}],"name":"customTokenURIs","outputs":[{"internalType":"string","name":"","type":"string"}],"stateMutability":"view","type":"function"},{"inputs":[{"internalType":"uint256","name":"tokenId","type":"uint256"}],"name":"getApproved","outputs":[{"internalType":"address","name":"","type":"address"}],"stateMutability":"view","type":"function"},{"inputs":[],"name":"imageUrl","outputs":[{"internalType":"string","name":"","type":"string"}],"stateMutability":"view","type":"function"},{"inputs":[{"internalType":"uint256","name":"","type":"uint256"}],"name":"imageUrls","outputs":[{"internalType":"string","name":"","type":"string"}],"stateMutability":"view","type":"function"},{"inputs":[{"internalType":"address","name":"owner","type":"address"},{"internalType":"address","name":"operator","type":"address"}],"name":"isApprovedForAll","outputs":[{"internalType":"bool","name":"","type":"bool"}],"stateMutability":"view","type":"function"},{"inputs":[{"internalType":"address","name":"to","type":"address"},{"internalType":"uint256","name":"quantity","type":"uint256"}],"name":"mint","outputs":[],"stateMutability":"nonpayable","type":"function"},{"inputs":[],"name":"name","outputs":[{"internalType":"string","name":"","type":"string"}],"stateMutability":"view","type":"function"},{"inputs":[],"name":"owner","outputs":[{"internalType":"address","name":"","type":"address"}],"stateMutability":"view","type":"function"},{"inputs":[{"internalType":"uint256","name":"tokenId","type":"uint256"}],"name":"ownerOf","outputs":[{"internalType":"address","name":"","type":"address"}],"stateMutability":"view","type":"function"},{"inputs":[],"name":"renounceOwnership","outputs":[],"stateMutability":"nonpayable","type":"function"},{"inputs":[{"internalType":"address","name":"from","type":"address"},{"internalType":"address","name":"to","type":"address"},{"internalType":"uint256","name":"tokenId","type":"uint256"}],"name":"safeTransferFrom","outputs":[],"stateMutability":"payable","type":"function"},{"inputs":[{"internalType":"address","name":"from","type":"address"},{"internalType":"address","name":"to","type":"address"},{"internalType":"uint256","name":"tokenId","type":"uint256"},{"internalType":"bytes","name":"_data","type":"bytes"}],"name":"safeTransferFrom","outputs":[],"stateMutability":"payable","type":"function"},{"inputs":[{"internalType":"address","name":"operator","type":"address"},{"internalType":"bool","name":"approved","type":"bool"}],"name":"setApprovalForAll","outputs":[],"stateMutability":"nonpayable","type":"function"},{"inputs":[{"internalType":"uint256[]","name":"tokenIds","type":"uint256[]"},{"internalType":"string[]","name":"uris","type":"string[]"}],"name":"setBatchCustomTokenURI","outputs":[],"stateMutability":"nonpayable","type":"function"},{"inputs":[{"internalType":"string","name":"_textColor","type":"string"},{"internalType":"string","name":"_bgColor","type":"string"}],"name":"setColors","outputs":[],"stateMutability":"nonpayable","type":"function"},{"inputs":[{"internalType":"string","name":"_uri","type":"string"}],"name":"setContractURI","outputs":[],"stateMutability":"nonpayable","type":"function"},{"inputs":[{"internalType":"string","name":"_bannerImage","type":"string"}],"name":"setCustomBannerImage","outputs":[],"stateMutability":"nonpayable","type":"function"},{"inputs":[{"internalType":"uint256","name":"tokenId","type":"uint256"},{"internalType":"string","name":"uri","type":"string"}],"name":"setCustomTokenURI","outputs":[],"stateMutability":"nonpayable","type":"function"},{"inputs":[{"internalType":"string","name":"url","type":"string"}],"name":"setImageUrl","outputs":[],"stateMutability":"nonpayable","type":"function"},{"inputs":[{"internalType":"bytes4","name":"interfaceId","type":"bytes4"}],"name":"supportsInterface","outputs":[{"internalType":"bool","name":"","type":"bool"}],"stateMutability":"view","type":"function"},{"inputs":[],"name":"symbol","outputs":[{"internalType":"string","name":"","type":"string"}],"stateMutability":"view","type":"function"},{"inputs":[],"name":"textColor","outputs":[{"internalType":"string","name":"","type":"string"}],"stateMutability":"view","type":"function"},{"inputs":[],"name":"time","outputs":[{"internalType":"uint256","name":"","type":"uint256"}],"stateMutability":"view","type":"function"},{"inputs":[{"internalType":"uint256","name":"tokenId","type":"uint256"}],"name":"tokenURI","outputs":[{"internalType":"string","name":"","type":"string"}],"stateMutability":"view","type":"function"},{"inputs":[],"name":"totalSupply","outputs":[{"internalType":"uint256","name":"result","type":"uint256"}],"stateMutability":"view","type":"function"},{"inputs":[{"internalType":"address","name":"from","type":"address"},{"internalType":"address","name":"to","type":"address"},{"internalType":"uint256","name":"tokenId","type":"uint256"}],"name":"transferFrom","outputs":[],"stateMutability":"payable","type":"function"},{"inputs":[{"internalType":"address","name":"newOwner","type":"address"}],"name":"transferOwnership","outputs":[],"stateMutability":"nonpayable","type":"function"}],"evm":{"bytecode":{"linkReferences":{},"object":"608060405234801561001057600080fd5b5060405161380738038061380783398101604081905261002f91610911565b61003885610172565b604080518082019091526005815264544f44415960d81b602082015260026100608382610a89565b50600361006d8282610a89565b5050600080555061007d33610193565b61008685610172565b600a906100939082610a89565b508351156100da57836000815181106100ae576100ae610b47565b6020026020010151600b90816100c49190610a89565b5083516100d890600c9060208701906106d1565b505b600083511161010857604051806040016040528060078152602001662366356635663560c81b81525061010a565b825b600d906101179082610a89565b50600082511161014657604051806040016040528060078152602001660233030303030360cc1b815250610148565b815b600e906101559082610a89565b5060116101628282610a89565b505042600f5550610c3692505050565b6060600082511161018b57610186426101e5565b61018d565b815b92915050565b600980546001600160a01b038381166001600160a01b0319831681179093556040519116919082907f8be0079c531659141344cd1fd0a4f28419497f9722a3daafe3b4186f6b6457e090600090a35050565b60606201518060006101f78285610b89565b90506107b261016d5b80831061027b57610212600483610b9d565b1580156102285750610225606483610b9d565b15155b8061023c575061023a61019083610b9d565b155b1561026f5761016e831061026a5761025661016e84610bb1565b9250610263600183610bc4565b9150610200565b61027b565b61025661016d84610bb1565b6040805161018081018252601f808252601c6020830152918101829052601e606082018190526080820183905260a0820181905260c0820183905260e08201839052610100820181905261012082018390526101408201526101608101919091526102e7600484610b9d565b1580156102fd57506102fa606484610b9d565b15155b80610311575061030f61019084610b9d565b155b1561031e57601d60208201525b60005b600c8110801561034a57508181600c811061033e5761033e610b47565b602002015160ff168510155b15610387578181600c811061036157610361610b47565b60200201516103739060ff1686610bb1565b9450610380600182610bc4565b9050610321565b610392600182610bc4565b905060006103a1866001610bc4565b604080516101c08101825260036101808201818152622520a760e91b6101a0840152825282518084018452818152622322a160e91b60208281019190915280840191909152835180850185528281526226a0a960e91b8183015283850152835180850185528281526220a82960e91b81830152606084015283518085018552828152624d415960e81b8183015260808401528351808501855282815262252aa760e91b8183015260a0840152835180850185528281526212955360ea1b8183015260c0840152835180850185528281526241554760e81b8183015260e0840152835180850185528281526205345560ec1b81830152610100840152835180850185528281526213d0d560ea1b8183015261012084015283518085018552828152622727ab60e91b8183015261014084015283518085019094529083526244454360e81b90830152610160810191909152909150600081610502600186610bb1565b600c811061051257610512610b47565b60200201519050806105238461055d565b61052c8961055d565b60405160200161053e93929190610bd7565b6040516020818303038152906040529950505050505050505050919050565b6060600061056a836105ef565b60010190506000816001600160401b0381111561058957610589610796565b6040519080825280601f01601f1916602001820160405280156105b3576020820181803683370190505b5090508181016020015b600019016f181899199a1a9b1b9c1cb0b131b232b360811b600a86061a8153600a85049450846105bd57509392505050565b6000807a184f03e93ff9f4daa797ed6e38ed64bf6a1f0100000000000000008310610638577a184f03e93ff9f4daa797ed6e38ed64bf6a1f010000000000000000830492506040015b6d04ee2d6d415b85acef81000000008310610664576d04ee2d6d415b85acef8100000000830492506020015b662386f26fc10000831061068257662386f26fc10000830492506010015b6305f5e100831061069a576305f5e100830492506008015b61271083106106ae57612710830492506004015b606483106106c0576064830492506002015b600a831061018d5760010192915050565b828054828255906000526020600020908101928215610717579160200282015b8281111561071757825182906107079082610a89565b50916020019190600101906106f1565b50610723929150610727565b5090565b8082111561072357600061073b8282610744565b50600101610727565b50805461075090610a00565b6000825580601f10610760575050565b601f01602090049060005260206000209081019061077e9190610781565b50565b5b808211156107235760008155600101610782565b634e487b7160e01b600052604160045260246000fd5b604051601f8201601f191681016001600160401b03811182821017156107d4576107d4610796565b604052919050565b60005b838110156107f75781810151838201526020016107df565b50506000910152565b600082601f83011261081157600080fd5b81516001600160401b0381111561082a5761082a610796565b61083d601f8201601f19166020016107ac565b81815284602083860101111561085257600080fd5b6108638260208301602087016107dc565b949350505050565b600082601f83011261087c57600080fd5b81516001600160401b0381111561089557610895610796565b8060051b6108a5602082016107ac565b918252602081850181019290810190868411156108c157600080fd5b6020860192505b838310156109075782516001600160401b038111156108e657600080fd5b6108f5886020838a0101610800565b835250602092830192909101906108c8565b9695505050505050565b600080600080600060a0868803121561092957600080fd5b85516001600160401b0381111561093f57600080fd5b61094b88828901610800565b602088015190965090506001600160401b0381111561096957600080fd5b6109758882890161086b565b604088015190955090506001600160401b0381111561099357600080fd5b61099f88828901610800565b606088015190945090506001600160401b038111156109bd57600080fd5b6109c988828901610800565b608088015190935090506001600160401b038111156109e757600080fd5b6109f388828901610800565b9150509295509295909350565b600181811c90821680610a1457607f821691505b602082108103610a3457634e487b7160e01b600052602260045260246000fd5b50919050565b601f821115610a8457806000526020600020601f840160051c81016020851015610a615750805b601f840160051c820191505b81811015610a815760008155600101610a6d565b50505b505050565b81516001600160401b03811115610aa257610aa2610796565b610ab681610ab08454610a00565b84610a3a565b6020601f821160018114610aea5760008315610ad25750848201515b600019600385901b1c1916600184901b178455610a81565b600084815260208120601f198516915b82811015610b1a5787850151825560209485019460019092019101610afa565b5084821015610b385786840151600019600387901b60f8161c191681555b50505050600190811b01905550565b634e487b7160e01b600052603260045260246000fd5b634e487b7160e01b600052601260045260246000fd5b634e487b7160e01b600052601160045260246000fd5b600082610b9857610b98610b5d565b500490565b600082610bac57610bac610b5d565b500690565b8181038181111561018d5761018d610b73565b8082018082111561018d5761018d610b73565b60008451610be98184602089016107dc565b601760f91b9083019081528451610c078160018401602089016107dc565b600b60fa1b600192909101918201528351610c298160028401602088016107dc565b0160020195945050505050565b612bc280610c456000396000f3fe6080604052600436106101ee5760003560e01c806370a082311161010d578063aec19c42116100a0578063e8a3d4851161006f578063e8a3d48514610534578063e985e9c514610549578063f2fde38b14610569578063f57e680614610589578063fb15e9fd1461059e57600080fd5b8063aec19c42146104c1578063b1e3c207146104e1578063b88d4fde14610501578063c87b56dd1461051457600080fd5b8063938e3d7b116100dc578063938e3d7b1461045757806395d89b4114610477578063a22cb4651461048c578063aba83150146104ac57600080fd5b806370a08231146103e4578063715018a614610404578063851fc4b6146104195780638da5cb5b1461043957600080fd5b80633077ac25116101855780635f528ee8116101545780635f528ee81461037a5780636352211e1461039a57806368e803a6146103ba5780636cbf6456146103cf57600080fd5b80633077ac25146103075780633122e4f41461032757806340c10f191461034757806342842e0e1461036757600080fd5b806316ada547116101c157806316ada5471461029757806318160ddd146102bb57806323b872dd146102d45780632abff1f2146102e757600080fd5b806301ffc9a7146101f357806306fdde0314610228578063081812fc1461024a578063095ea7b314610282575b600080fd5b3480156101ff57600080fd5b5061021361020e366004611ef7565b6105b3565b60405190151581526020015b60405180910390f35b34801561023457600080fd5b5061023d610605565b60405161021f9190611f6b565b34801561025657600080fd5b5061026a610265366004611f7e565b610697565b6040516001600160a01b03909116815260200161021f565b610295610290366004611fae565b6106d2565b005b3480156102a357600080fd5b506102ad600f5481565b60405190815260200161021f565b3480156102c757600080fd5b50600154600054036102ad565b6102956102e2366004611fd8565b6106e2565b3480156102f357600080fd5b506102956103023660046120d6565b610847565b34801561031357600080fd5b5061023d610322366004611f7e565b61085b565b34801561033357600080fd5b506102956103423660046121be565b6108f5565b34801561035357600080fd5b50610295610362366004611fae565b610a24565b610295610375366004611fd8565b610a36565b34801561038657600080fd5b5061023d610395366004611f7e565b610a51565b3480156103a657600080fd5b5061026a6103b5366004611f7e565b610a7c565b3480156103c657600080fd5b5061023d610a87565b3480156103db57600080fd5b5061023d610a94565b3480156103f057600080fd5b506102ad6103ff36600461227e565b610aa1565b34801561041057600080fd5b50610295610ae6565b34801561042557600080fd5b50610295610434366004612299565b610afa565b34801561044557600080fd5b506009546001600160a01b031661026a565b34801561046357600080fd5b506102956104723660046120d6565b610b66565b34801561048357600080fd5b5061023d610ba7565b34801561049857600080fd5b506102956104a73660046122d5565b610bb6565b3480156104b857600080fd5b5061023d610c22565b3480156104cd57600080fd5b506102956104dc366004612311565b610c2f565b3480156104ed57600080fd5b506102956104fc3660046120d6565b610c50565b61029561050f366004612362565b610c64565b34801561052057600080fd5b5061023d61052f366004611f7e565b610ca5565b34801561054057600080fd5b5061023d610fe0565b34801561055557600080fd5b506102136105643660046123dd565b611284565b34801561057557600080fd5b5061029561058436600461227e565b6112b2565b34801561059557600080fd5b5061023d61132b565b3480156105aa57600080fd5b5061023d611338565b60006301ffc9a760e01b6001600160e01b0319831614806105e457506380ac58cd60e01b6001600160e01b03198316145b806105ff5750635b5e139f60e01b6001600160e01b03198316145b92915050565b6060600a805461061490612410565b80601f016020809104026020016040519081016040528092919081815260200182805461064090612410565b801561068d5780601f106106625761010080835404028352916020019161068d565b820191906000526020600020905b81548152906001019060200180831161067057829003601f168201915b5050505050905090565b60006106a282611345565b6106b6576106b66333d1c03960e21b61138a565b506000908152600660205260409020546001600160a01b031690565b6106de82826001611394565b5050565b60006106ed82611437565b6001600160a01b0394851694909150811684146107135761071362a1148160e81b61138a565b60008281526006602052604090208054338082146001600160a01b03881690911417610757576107438633611284565b61075757610757632ce44b5f60e11b61138a565b801561076257600082555b6001600160a01b038681166000908152600560205260408082208054600019019055918716808252919020805460010190554260a01b17600160e11b17600085815260046020526040812091909155600160e11b841690036107f4576001840160008181526004602052604081205490036107f25760005481146107f25760008181526004602052604090208490555b505b6001600160a01b0385168481887fddf252ad1be2c89b69c2b068fc378daa952ba7f163c4a11628f55a4df523b3ef600080a48060000361083e5761083e633a954ecd60e21b61138a565b50505050505050565b61084f6114cd565b600b6106de8282612498565b6012602052600090815260409020805461087490612410565b80601f01602080910402602001604051908101604052809291908181526020018280546108a090612410565b80156108ed5780601f106108c2576101008083540402835291602001916108ed565b820191906000526020600020905b8154815290600101906020018083116108d057829003601f168201915b505050505081565b6108fd6114cd565b80518251146109535760405162461bcd60e51b815260206004820152601860248201527f4d69736d61746368656420696e707574206c656e67746873000000000000000060448201526064015b60405180910390fd5b60005b8251811015610a1f5761098183828151811061097457610974612556565b6020026020010151611345565b6109c45760405162461bcd60e51b8152602060048201526014602482015273151bdad95b88191bd95cc81b9bdd08195e1a5cdd60621b604482015260640161094a565b8181815181106109d6576109d6612556565b6020026020010151601260008584815181106109f4576109f4612556565b602002602001015181526020019081526020016000209081610a169190612498565b50600101610956565b505050565b610a2c6114cd565b6106de8282611527565b610a1f83838360405180602001604052806000815250610c64565b600c8181548110610a6157600080fd5b90600052602060002001600091509050805461087490612410565b60006105ff82611437565b6011805461087490612410565b6010805461087490612410565b60006001600160a01b038216610ac157610ac16323d3ad8160e21b61138a565b506001600160a01b03166000908152600560205260409020546001600160401b031690565b610aee6114cd565b610af860006115e6565b565b610b026114cd565b610b0b82611345565b610b4e5760405162461bcd60e51b8152602060048201526014602482015273151bdad95b88191bd95cc81b9bdd08195e1a5cdd60621b604482015260640161094a565b6000828152601260205260409020610a1f8282612498565b610b6e6114cd565b6010610b7a8282612498565b506040517fa5d4097edda6d87cb9329af83fb3712ef77eeb13738ffe43cc35a4ce305ad96290600090a150565b60606003805461061490612410565b3360008181526007602090815260408083206001600160a01b03871680855290835292819020805460ff191686151590811790915590519081529192917f17307eab39ab6107e8899845ad3d59bd9653f200f220920489ca2b5937696c31910160405180910390a35050565b600b805461087490612410565b610c376114cd565b600d610c438382612498565b50600e610a1f8282612498565b610c586114cd565b6011610b7a8282612498565b610c6f8484846106e2565b6001600160a01b0383163b15610c9f57610c8b84848484611638565b610c9f57610c9f6368d2bf6b60e11b61138a565b50505050565b6060610cb082611345565b610ccd57604051630a14c4b560e41b815260040160405180910390fd5b60008281526012602052604081208054610ce690612410565b80601f0160208091040260200160405190810160405280929190818152602001828054610d1290612410565b8015610d5f5780601f10610d3457610100808354040283529160200191610d5f565b820191906000526020600020905b815481529060010190602001808311610d4257829003601f168201915b50505050509050600081511115610d765792915050565b600c5460609015610e3957600c8054610d8f9086612582565b81548110610d9f57610d9f612556565b906000526020600020018054610db490612410565b80601f0160208091040260200160405190810160405280929190818152602001828054610de090612410565b8015610e2d5780601f10610e0257610100808354040283529160200191610e2d565b820191906000526020600020905b815481529060010190602001808311610e1057829003601f168201915b50505050509050610ec7565b600b8054610e4690612410565b80601f0160208091040260200160405190810160405280929190818152602001828054610e7290612410565b8015610ebf5780601f10610e9457610100808354040283529160200191610ebf565b820191906000526020600020905b815481529060010190602001808311610ea257829003601f168201915b505050505090505b610fb8610f5d600a8054610eda90612410565b80601f0160208091040260200160405190810160405280929190818152602001828054610f0690612410565b8015610f535780601f10610f2857610100808354040283529160200191610f53565b820191906000526020600020905b815481529060010190602001808311610f3657829003601f168201915b505050505061171b565b610f6686611856565b610f76600a8054610eda90612410565b6000855111610f8f57610f8a600f546118e8565b610f91565b845b604051602001610fa494939291906125b2565b604051602081830303815290604052611932565b604051602001610fc8919061267c565b60405160208183030381529060405292505050919050565b6060600060108054610ff190612410565b90501115611006576010805461061490612410565b6000611018600a8054610eda90612410565b611028600a8054610eda90612410565b6000600b805461103790612410565b90501161104e57611049600f546118e8565b6110da565b600b805461105b90612410565b80601f016020809104026020016040519081016040528092919081815260200182805461108790612410565b80156110d45780601f106110a9576101008083540402835291602001916110d4565b820191906000526020600020905b8154815290600101906020018083116110b757829003601f168201915b50505050505b6000601180546110e990612410565b9050116111a6576000600b80546110ff90612410565b90501161111657611111600f546118e8565b611232565b600b805461112390612410565b80601f016020809104026020016040519081016040528092919081815260200182805461114f90612410565b801561119c5780601f106111715761010080835404028352916020019161119c565b820191906000526020600020905b81548152906001019060200180831161117f57829003601f168201915b5050505050611232565b601180546111b390612410565b80601f01602080910402602001604051908101604052809291908181526020018280546111df90612410565b801561122c5780601f106112015761010080835404028352916020019161122c565b820191906000526020600020905b81548152906001019060200180831161120f57829003601f168201915b50505050505b60405160200161124594939291906126c1565b604051602081830303815290604052905061125f81611932565b60405160200161126f919061267c565b60405160208183030381529060405291505090565b6001600160a01b03918216600090815260076020908152604080832093909416825291909152205460ff1690565b6112ba6114cd565b6001600160a01b03811661131f5760405162461bcd60e51b815260206004820152602660248201527f4f776e61626c653a206e6577206f776e657220697320746865207a65726f206160448201526564647265737360d01b606482015260840161094a565b611328816115e6565b50565b600e805461087490612410565b600d805461087490612410565b600080548210156113855760005b506000828152600460205260408120549081900361137b57611374836127c2565b9250611353565b600160e01b161590505b919050565b8060005260046000fd5b600061139f83610a7c565b90508180156113b75750336001600160a01b03821614155b156113da576113c68133611284565b6113da576113da6367d9dca160e11b61138a565b60008381526006602052604080822080546001600160a01b0319166001600160a01b0388811691821790925591518693918516917f8c5be1e5ebec7d5bd14f71427d1e84f3dd0314c0f7b2291e5b200ac8c7c3b92591a450505050565b600081815260046020526040902054806000036114aa57600054821061146757611467636f96cda160e11b61138a565b5b5060001901600081815260046020526040902054801561146857600160e01b811660000361149557919050565b6114a5636f96cda160e11b61138a565b611468565b600160e01b81166000036114bd57919050565b611385636f96cda160e11b61138a565b6009546001600160a01b03163314610af85760405162461bcd60e51b815260206004820181905260248201527f4f776e61626c653a2063616c6c6572206973206e6f7420746865206f776e6572604482015260640161094a565b60008054908290036115435761154363b562e8dd60e01b61138a565b60008181526004602090815260408083206001600160a01b0387164260a01b6001881460e11b178117909155808452600590925282208054680100000000000000018602019055908190036115a1576115a1622e076360e81b61138a565b818301825b808360007fddf252ad1be2c89b69c2b068fc378daa952ba7f163c4a11628f55a4df523b3ef600080a48181600101915081036115a6575060005550505050565b600980546001600160a01b038381166001600160a01b0319831681179093556040519116919082907f8be0079c531659141344cd1fd0a4f28419497f9722a3daafe3b4186f6b6457e090600090a35050565b604051630a85bd0160e11b81526000906001600160a01b0385169063150b7a029061166d9033908990889088906004016127d9565b6020604051808303816000875af19250505080156116a8575060408051601f3d908101601f191682019092526116a591810190612816565b60015b6116fd573d8080156116d6576040519150601f19603f3d011682016040523d82523d6000602084013e6116db565b606091505b5080516000036116f5576116f56368d2bf6b60e11b61138a565b805181602001fd5b6001600160e01b031916630a85bd0160e11b1490505b949350505050565b60606000829050600081516001600160401b0381111561173d5761173d612015565b6040519080825280601f01601f191660200182016040528015611767576020820181803683370190505b50905060005b825181101561184e5782818151811061178857611788612556565b602001015160f81c60f81b8282815181106117a5576117a5612556565b60200101906001600160f81b031916908160001a9053506040805180820190915260018152601160f91b602090910181905282518390839081106117eb576117eb612556565b01602001516001600160f81b03191603611846576040805180820190915260018152602760f81b6020909101819052825183908390811061182e5761182e612556565b60200101906001600160f81b031916908160001a9053505b60010161176d565b509392505050565b6060600061186383611a91565b60010190506000816001600160401b0381111561188257611882612015565b6040519080825280601f01601f1916602001820160405280156118ac576020820181803683370190505b5090508181016020015b600019016f181899199a1a9b1b9c1cb0b131b232b360811b600a86061a8153600a85049450846118b657509392505050565b606061190c600e600d6118fa85611b69565b604051602001610fa4939291906128a5565b60405160200161191c9190612a57565b6040516020818303038152906040529050919050565b6060815160000361195157505060408051602081019091526000815290565b6000604051806060016040528060408152602001612b4d60409139905060006003845160026119809190612a9c565b61198a9190612aaf565b611995906004612ac3565b6001600160401b038111156119ac576119ac612015565b6040519080825280601f01601f1916602001820160405280156119d6576020820181803683370190505b50905060018201602082018586518701602081018051600082525b82841015611a4c576003840193508351603f8160121c168701518653600186019550603f81600c1c168701518653600186019550603f8160061c168701518653600186019550603f81168701518653506001850194506119f1565b9052505085516003900660018114611a6b5760028114611a7e57611a86565b603d6001830353603d6002830353611a86565b603d60018303535b509195945050505050565b60008072184f03e93ff9f4daa797ed6e38ed64bf6a1f0160401b8310611ad05772184f03e93ff9f4daa797ed6e38ed64bf6a1f0160401b830492506040015b6d04ee2d6d415b85acef81000000008310611afc576d04ee2d6d415b85acef8100000000830492506020015b662386f26fc100008310611b1a57662386f26fc10000830492506010015b6305f5e1008310611b32576305f5e100830492506008015b6127108310611b4657612710830492506004015b60648310611b58576064830492506002015b600a83106105ff5760010192915050565b6060620151806000611b7b8285612aaf565b90506107b261016d5b808310611bff57611b96600483612582565b158015611bac5750611ba9606483612582565b15155b80611bc05750611bbe61019083612582565b155b15611bf35761016e8310611bee57611bda61016e84612ada565b9250611be7600183612a9c565b9150611b84565b611bff565b611bda61016d84612ada565b6040805161018081018252601f808252601c6020830152918101829052601e606082018190526080820183905260a0820181905260c0820183905260e0820183905261010082018190526101208201839052610140820152610160810191909152611c6b600484612582565b158015611c815750611c7e606484612582565b15155b80611c955750611c9361019084612582565b155b15611ca257601d60208201525b60005b600c81108015611cce57508181600c8110611cc257611cc2612556565b602002015160ff168510155b15611d0b578181600c8110611ce557611ce5612556565b6020020151611cf79060ff1686612ada565b9450611d04600182612a9c565b9050611ca5565b611d16600182612a9c565b90506000611d25866001612a9c565b604080516101c08101825260036101808201818152622520a760e91b6101a0840152825282518084018452818152622322a160e91b60208281019190915280840191909152835180850185528281526226a0a960e91b8183015283850152835180850185528281526220a82960e91b81830152606084015283518085018552828152624d415960e81b8183015260808401528351808501855282815262252aa760e91b8183015260a0840152835180850185528281526212955360ea1b8183015260c0840152835180850185528281526241554760e81b8183015260e0840152835180850185528281526205345560ec1b81830152610100840152835180850185528281526213d0d560ea1b8183015261012084015283518085018552828152622727ab60e91b8183015261014084015283518085019094529083526244454360e81b90830152610160810191909152909150600081611e86600186612ada565b600c8110611e9657611e96612556565b6020020151905080611ea784611856565b611eb089611856565b604051602001611ec293929190612aed565b6040516020818303038152906040529950505050505050505050919050565b6001600160e01b03198116811461132857600080fd5b600060208284031215611f0957600080fd5b8135611f1481611ee1565b9392505050565b60005b83811015611f36578181015183820152602001611f1e565b50506000910152565b60008151808452611f57816020860160208601611f1b565b601f01601f19169290920160200192915050565b602081526000611f146020830184611f3f565b600060208284031215611f9057600080fd5b5035919050565b80356001600160a01b038116811461138557600080fd5b60008060408385031215611fc157600080fd5b611fca83611f97565b946020939093013593505050565b600080600060608486031215611fed57600080fd5b611ff684611f97565b925061200460208501611f97565b929592945050506040919091013590565b634e487b7160e01b600052604160045260246000fd5b604051601f8201601f191681016001600160401b038111828210171561205357612053612015565b604052919050565b6000806001600160401b0384111561207557612075612015565b50601f8301601f191660200161208a8161202b565b91505082815283838301111561209f57600080fd5b828260208301376000602084830101529392505050565b600082601f8301126120c757600080fd5b611f148383356020850161205b565b6000602082840312156120e857600080fd5b81356001600160401b038111156120fe57600080fd5b611713848285016120b6565b60006001600160401b0382111561212357612123612015565b5060051b60200190565b600082601f83011261213e57600080fd5b813561215161214c8261210a565b61202b565b8082825260208201915060208360051b86010192508583111561217357600080fd5b602085015b838110156121b45780356001600160401b0381111561219657600080fd5b6121a5886020838a01016120b6565b84525060209283019201612178565b5095945050505050565b600080604083850312156121d157600080fd5b82356001600160401b038111156121e757600080fd5b8301601f810185136121f857600080fd5b803561220661214c8261210a565b8082825260208201915060208360051b85010192508783111561222857600080fd5b6020840193505b8284101561224a57833582526020938401939091019061222f565b945050505060208301356001600160401b0381111561226857600080fd5b6122748582860161212d565b9150509250929050565b60006020828403121561229057600080fd5b611f1482611f97565b600080604083850312156122ac57600080fd5b8235915060208301356001600160401b038111156122c957600080fd5b612274858286016120b6565b600080604083850312156122e857600080fd5b6122f183611f97565b91506020830135801515811461230657600080fd5b809150509250929050565b6000806040838503121561232457600080fd5b82356001600160401b0381111561233a57600080fd5b612346858286016120b6565b92505060208301356001600160401b038111156122c957600080fd5b6000806000806080858703121561237857600080fd5b61238185611f97565b935061238f60208601611f97565b92506040850135915060608501356001600160401b038111156123b157600080fd5b8501601f810187136123c257600080fd5b6123d18782356020840161205b565b91505092959194509250565b600080604083850312156123f057600080fd5b6123f983611f97565b915061240760208401611f97565b90509250929050565b600181811c9082168061242457607f821691505b60208210810361244457634e487b7160e01b600052602260045260246000fd5b50919050565b601f821115610a1f57806000526020600020601f840160051c810160208510156124715750805b601f840160051c820191505b81811015612491576000815560010161247d565b5050505050565b81516001600160401b038111156124b1576124b1612015565b6124c5816124bf8454612410565b8461244a565b6020601f8211600181146124f957600083156124e15750848201515b600019600385901b1c1916600184901b178455612491565b600084815260208120601f198516915b828110156125295787850151825560209485019460019092019101612509565b50848210156125475786840151600019600387901b60f8161c191681555b50505050600190811b01905550565b634e487b7160e01b600052603260045260246000fd5b634e487b7160e01b600052601260045260246000fd5b6000826125915761259161256c565b500690565b600081516125a8818560208601611f1b565b9290920192915050565b683d913730b6b2911d1160b91b815284516000906125d7816009850160208a01611f1b565b61202360f01b60099184019182015285516125f981600b840160208a01611f1b565b600981830101915050701116113232b9b1b934b83a34b7b7111d1160791b6002820152845161262f816013840160208901611f1b565b6002818301019150506a11161134b6b0b3b2911d1160a91b6011820152835161265f81601c840160208801611f1b565b61227d60f01b601c9290910191820152601e019695505050505050565b7f646174613a6170706c69636174696f6e2f6a736f6e3b6261736536342c0000008152600082516126b481601d850160208701611f1b565b91909101601d0192915050565b683d913730b6b2911d1160b91b815284516000906126e6816009850160208a01611f1b565b701116113232b9b1b934b83a34b7b7111d1160791b600991840191820152855161271781601a840160208a01611f1b565b61088b60f21b601a9290910191820152681134b6b0b3b2911d1160b91b601c8201528451600982019161275290829060250160208901611f1b565b601181830101915050711116113130b73732b92fb4b6b0b3b2911d1160711b600b820152835161278981601d840160208801611f1b565b6127a0601d8383010161227d60f01b815260020190565b98975050505050505050565b634e487b7160e01b600052601160045260246000fd5b6000816127d1576127d16127ac565b506000190190565b6001600160a01b038581168252841660208201526040810183905260806060820181905260009061280c90830184611f3f565b9695505050505050565b60006020828403121561282857600080fd5b8151611f1481611ee1565b6000815461284081612410565b600182168015612857576001811461286c5761289c565b60ff198316865281151582028601935061289c565b84600052602060002060005b8381101561289457815488820152600190910190602001612878565b505081860193505b50505092915050565b7f3c73766720786d6c6e733d22687474703a2f2f7777772e77332e6f72672f323081527f30302f737667222077696474683d2238303022206865696768743d223630302260208201527f2076696577426f783d223020302038303020363030223e00000000000000000060408201527f3c726563742077696474683d223130302522206865696768743d223130302522605782015266103334b6361e9160c91b60778201526000612959607e830186612833565b631110179f60e11b81527f3c7465787420783d223530252220793d223530252220646f6d696e616e742d6260048201527f6173656c696e653d226d6964646c652220746578742d616e63686f723d226d6960248201527f64646c652220666f6e742d66616d696c793d22417269616c2220666f6e742d7360448201527f697a653d2238342220666f6e742d7765696768743d22363030222066696c6c3d6064820152601160f91b608482015261280c612a45612a32612a2c612a1e608586018a612833565b61111f60f11b815260020190565b87612596565b661e17ba32bc3a1f60c91b815260070190565b651e17b9bb339f60d11b815260060190565b7f646174613a696d6167652f7376672b786d6c3b6261736536342c000000000000815260008251612a8f81601a850160208701611f1b565b91909101601a0192915050565b808201808211156105ff576105ff6127ac565b600082612abe57612abe61256c565b500490565b80820281158282048414176105ff576105ff6127ac565b818103818111156105ff576105ff6127ac565b60008451612aff818460208901611f1b565b601760f91b9083019081528451612b1d816001840160208901611f1b565b600b60fa1b600192909101918201528351612b3f816002840160208801611f1b565b016002019594505050505056fe4142434445464748494a4b4c4d4e4f505152535455565758595a6162636465666768696a6b6c6d6e6f707172737475767778797a303132333435363738392b2fa2646970667358221220e83b9542b1b891be0f37083937920856599a6d2c16190f81f3147b3c205ce0fb64736f6c634300081d0033","opcodes":"PUSH1 0x80 PUSH1 0x40 MSTORE CALLVALUE DUP1 ISZERO PUSH2 0x10 JUMPI PUSH1 0x0 DUP1 REVERT JUMPDEST POP PUSH1 0x40 MLOAD PUSH2 0x3807 CODESIZE SUB DUP1 PUSH2 0x3807 DUP4 CODECOPY DUP2 ADD PUSH1 0x40 DUP2 SWAP1 MSTORE PUSH2 0x2F SWAP2 PUSH2 0x911 JUMP JUMPDEST PUSH2 0x38 DUP6 PUSH2 0x172 JUMP JUMPDEST PUSH1 0x40 DUP1 MLOAD DUP1 DUP3 ADD SWAP1 SWAP2 MSTORE PUSH1 0x5 DUP2 MSTORE PUSH5 0x544F444159 PUSH1 0xD8 SHL PUSH1 0x20 DUP3 ADD MSTORE PUSH1 0x2 PUSH2 0x60 DUP4 DUP3 PUSH2 0xA89 JUMP JUMPDEST POP PUSH1 0x3 PUSH2 0x6D DUP3 DUP3 PUSH2 0xA89 JUMP JUMPDEST POP POP PUSH1 0x0 DUP1 SSTORE POP PUSH2 0x7D CALLER PUSH2 0x193 JUMP JUMPDEST PUSH2 0x86 DUP6 PUSH2 0x172 JUMP JUMPDEST PUSH1 0xA SWAP1 PUSH2 0x93 SWAP1 DUP3 PUSH2 0xA89 JUMP JUMPDEST POP DUP4 MLOAD ISZERO PUSH2 0xDA JUMPI DUP4 PUSH1 0x0 DUP2 MLOAD DUP2 LT PUSH2 0xAE JUMPI PUSH2 0xAE PUSH2 0xB47 JUMP JUMPDEST PUSH1 0x20 MUL PUSH1 0x20 ADD ADD MLOAD PUSH1 0xB SWAP1 DUP2 PUSH2 0xC4 SWAP2 SWAP1 PUSH2 0xA89 JUMP JUMPDEST POP DUP4 MLOAD PUSH2 0xD8 SWAP1 PUSH1 0xC SWAP1 PUSH1 0x20 DUP8 ADD SWAP1 PUSH2 0x6D1 JUMP JUMPDEST POP JUMPDEST PUSH1 0x0 DUP4 MLOAD GT PUSH2 0x108 JUMPI PUSH1 0x40 MLOAD DUP1 PUSH1 0x40 ADD PUSH1 0x40 MSTORE DUP1 PUSH1 0x7 DUP2 MSTORE PUSH1 0x20 ADD PUSH7 0x23663566356635 PUSH1 0xC8 SHL DUP2 MSTORE POP PUSH2 0x10A JUMP JUMPDEST DUP3 JUMPDEST PUSH1 0xD SWAP1 PUSH2 0x117 SWAP1 DUP3 PUSH2 0xA89 JUMP JUMPDEST POP PUSH1 0x0 DUP3 MLOAD GT PUSH2 0x146 JUMPI PUSH1 0x40 MLOAD DUP1 PUSH1 0x40 ADD PUSH1 0x40 MSTORE DUP1 PUSH1 0x7 DUP2 MSTORE PUSH1 0x20 ADD PUSH7 0x2330303030303 PUSH1 0xCC SHL DUP2 MSTORE POP PUSH2 0x148 JUMP JUMPDEST DUP2 JUMPDEST PUSH1 0xE SWAP1 PUSH2 0x155 SWAP1 DUP3 PUSH2 0xA89 JUMP JUMPDEST POP PUSH1 0x11 PUSH2 0x162 DUP3 DUP3 PUSH2 0xA89 JUMP JUMPDEST POP POP TIMESTAMP PUSH1 0xF SSTORE POP PUSH2 0xC36 SWAP3 POP POP POP JUMP JUMPDEST PUSH1 0x60 PUSH1 0x0 DUP3 MLOAD GT PUSH2 0x18B JUMPI PUSH2 0x186 TIMESTAMP PUSH2 0x1E5 JUMP JUMPDEST PUSH2 0x18D JUMP JUMPDEST DUP2 JUMPDEST SWAP3 SWAP2 POP POP JUMP JUMPDEST PUSH1 0x9 DUP1 SLOAD PUSH1 0x1 PUSH1 0x1 PUSH1 0xA0 SHL SUB DUP4 DUP2 AND PUSH1 0x1 PUSH1 0x1 PUSH1 0xA0 SHL SUB NOT DUP4 AND DUP2 OR SWAP1 SWAP4 SSTORE PUSH1 0x40 MLOAD SWAP2 AND SWAP2 SWAP1 DUP3 SWAP1 PUSH32 0x8BE0079C531659141344CD1FD0A4F28419497F9722A3DAAFE3B4186F6B6457E0 SWAP1 PUSH1 0x0 SWAP1 LOG3 POP POP JUMP JUMPDEST PUSH1 0x60 PUSH3 0x15180 PUSH1 0x0 PUSH2 0x1F7 DUP3 DUP6 PUSH2 0xB89 JUMP JUMPDEST SWAP1 POP PUSH2 0x7B2 PUSH2 0x16D JUMPDEST DUP1 DUP4 LT PUSH2 0x27B JUMPI PUSH2 0x212 PUSH1 0x4 DUP4 PUSH2 0xB9D JUMP JUMPDEST ISZERO DUP1 ISZERO PUSH2 0x228 JUMPI POP PUSH2 0x225 PUSH1 0x64 DUP4 PUSH2 0xB9D JUMP JUMPDEST ISZERO ISZERO JUMPDEST DUP1 PUSH2 0x23C JUMPI POP PUSH2 0x23A PUSH2 0x190 DUP4 PUSH2 0xB9D JUMP JUMPDEST ISZERO JUMPDEST ISZERO PUSH2 0x26F JUMPI PUSH2 0x16E DUP4 LT PUSH2 0x26A JUMPI PUSH2 0x256 PUSH2 0x16E DUP5 PUSH2 0xBB1 JUMP JUMPDEST SWAP3 POP PUSH2 0x263 PUSH1 0x1 DUP4 PUSH2 0xBC4 JUMP JUMPDEST SWAP2 POP PUSH2 0x200 JUMP JUMPDEST PUSH2 0x27B JUMP JUMPDEST PUSH2 0x256 PUSH2 0x16D DUP5 PUSH2 0xBB1 JUMP JUMPDEST PUSH1 0x40 DUP1 MLOAD PUSH2 0x180 DUP2 ADD DUP3 MSTORE PUSH1 0x1F DUP1 DUP3 MSTORE PUSH1 0x1C PUSH1 0x20 DUP4 ADD MSTORE SWAP2 DUP2 ADD DUP3 SWAP1 MSTORE PUSH1 0x1E PUSH1 0x60 DUP3 ADD DUP2 SWAP1 MSTORE PUSH1 0x80 DUP3 ADD DUP4 SWAP1 MSTORE PUSH1 0xA0 DUP3 ADD DUP2 SWAP1 MSTORE PUSH1 0xC0 DUP3 ADD DUP4 SWAP1 MSTORE PUSH1 0xE0 DUP3 ADD DUP4 SWAP1 MSTORE PUSH2 0x100 DUP3 ADD DUP2 SWAP1 MSTORE PUSH2 0x120 DUP3 ADD DUP4 SWAP1 MSTORE PUSH2 0x140 DUP3 ADD MSTORE PUSH2 0x160 DUP2 ADD SWAP2 SWAP1 SWAP2 MSTORE PUSH2 0x2E7 PUSH1 0x4 DUP5 PUSH2 0xB9D JUMP JUMPDEST ISZERO DUP1 ISZERO PUSH2 0x2FD JUMPI POP PUSH2 0x2FA PUSH1 0x64 DUP5 PUSH2 0xB9D JUMP JUMPDEST ISZERO ISZERO JUMPDEST DUP1 PUSH2 0x311 JUMPI POP PUSH2 0x30F PUSH2 0x190 DUP5 PUSH2 0xB9D JUMP JUMPDEST ISZERO JUMPDEST ISZERO PUSH2 0x31E JUMPI PUSH1 0x1D PUSH1 0x20 DUP3 ADD MSTORE JUMPDEST PUSH1 0x0 JUMPDEST PUSH1 0xC DUP2 LT DUP1 ISZERO PUSH2 0x34A JUMPI POP DUP2 DUP2 PUSH1 0xC DUP2 LT PUSH2 0x33E JUMPI PUSH2 0x33E PUSH2 0xB47 JUMP JUMPDEST PUSH1 0x20 MUL ADD MLOAD PUSH1 0xFF AND DUP6 LT ISZERO JUMPDEST ISZERO PUSH2 0x387 JUMPI DUP2 DUP2 PUSH1 0xC DUP2 LT PUSH2 0x361 JUMPI PUSH2 0x361 PUSH2 0xB47 JUMP JUMPDEST PUSH1 0x20 MUL ADD MLOAD PUSH2 0x373 SWAP1 PUSH1 0xFF AND DUP7 PUSH2 0xBB1 JUMP JUMPDEST SWAP5 POP PUSH2 0x380 PUSH1 0x1 DUP3 PUSH2 0xBC4 JUMP JUMPDEST SWAP1 POP PUSH2 0x321 JUMP JUMPDEST PUSH2 0x392 PUSH1 0x1 DUP3 PUSH2 0xBC4 JUMP JUMPDEST SWAP1 POP PUSH1 0x0 PUSH2 0x3A1 DUP7 PUSH1 0x1 PUSH2 0xBC4 JUMP JUMPDEST PUSH1 0x40 DUP1 MLOAD PUSH2 0x1C0 DUP2 ADD DUP3 MSTORE PUSH1 0x3 PUSH2 0x180 DUP3 ADD DUP2 DUP2 MSTORE PUSH3 0x2520A7 PUSH1 0xE9 SHL PUSH2 0x1A0 DUP5 ADD MSTORE DUP3 MSTORE DUP3 MLOAD DUP1 DUP5 ADD DUP5 MSTORE DUP2 DUP2 MSTORE PUSH3 0x2322A1 PUSH1 0xE9 SHL PUSH1 0x20 DUP3 DUP2 ADD SWAP2 SWAP1 SWAP2 MSTORE DUP1 DUP5 ADD SWAP2 SWAP1 SWAP2 MSTORE DUP4 MLOAD DUP1 DUP6 ADD DUP6 MSTORE DUP3 DUP2 MSTORE PUSH3 0x26A0A9 PUSH1 0xE9 SHL DUP2 DUP4 ADD MSTORE DUP4 DUP6 ADD MSTORE DUP4 MLOAD DUP1 DUP6 ADD DUP6 MSTORE DUP3 DUP2 MSTORE PUSH3 0x20A829 PUSH1 0xE9 SHL DUP2 DUP4 ADD MSTORE PUSH1 0x60 DUP5 ADD MSTORE DUP4 MLOAD DUP1 DUP6 ADD DUP6 MSTORE DUP3 DUP2 MSTORE PUSH3 0x4D4159 PUSH1 0xE8 SHL DUP2 DUP4 ADD MSTORE PUSH1 0x80 DUP5 ADD MSTORE DUP4 MLOAD DUP1 DUP6 ADD DUP6 MSTORE DUP3 DUP2 MSTORE PUSH3 0x252AA7 PUSH1 0xE9 SHL DUP2 DUP4 ADD MSTORE PUSH1 0xA0 DUP5 ADD MSTORE DUP4 MLOAD DUP1 DUP6 ADD DUP6 MSTORE DUP3 DUP2 MSTORE PUSH3 0x129553 PUSH1 0xEA SHL DUP2 DUP4 ADD MSTORE PUSH1 0xC0 DUP5 ADD MSTORE DUP4 MLOAD DUP1 DUP6 ADD DUP6 MSTORE DUP3 DUP2 MSTORE PUSH3 0x415547 PUSH1 0xE8 SHL DUP2 DUP4 ADD MSTORE PUSH1 0xE0 DUP5 ADD MSTORE DUP4 MLOAD DUP1 DUP6 ADD DUP6 MSTORE DUP3 DUP2 MSTORE PUSH3 0x53455 PUSH1 0xEC SHL DUP2 DUP4 ADD MSTORE PUSH2 0x100 DUP5 ADD MSTORE DUP4 MLOAD DUP1 DUP6 ADD DUP6 MSTORE DUP3 DUP2 MSTORE PUSH3 0x13D0D5 PUSH1 0xEA SHL DUP2 DUP4 ADD MSTORE PUSH2 0x120 DUP5 ADD MSTORE DUP4 MLOAD DUP1 DUP6 ADD DUP6 MSTORE DUP3 DUP2 MSTORE PUSH3 0x2727AB PUSH1 0xE9 SHL DUP2 DUP4 ADD MSTORE PUSH2 0x140 DUP5 ADD MSTORE DUP4 MLOAD DUP1 DUP6 ADD SWAP1 SWAP5 MSTORE SWAP1 DUP4 MSTORE PUSH3 0x444543 PUSH1 0xE8 SHL SWAP1 DUP4 ADD MSTORE PUSH2 0x160 DUP2 ADD SWAP2 SWAP1 SWAP2 MSTORE SWAP1 SWAP2 POP PUSH1 0x0 DUP2 PUSH2 0x502 PUSH1 0x1 DUP7 PUSH2 0xBB1 JUMP JUMPDEST PUSH1 0xC DUP2 LT PUSH2 0x512 JUMPI PUSH2 0x512 PUSH2 0xB47 JUMP JUMPDEST PUSH1 0x20 MUL ADD MLOAD SWAP1 POP DUP1 PUSH2 0x523 DUP5 PUSH2 0x55D JUMP JUMPDEST PUSH2 0x52C DUP10 PUSH2 0x55D JUMP JUMPDEST PUSH1 0x40 MLOAD PUSH1 0x20 ADD PUSH2 0x53E SWAP4 SWAP3 SWAP2 SWAP1 PUSH2 0xBD7 JUMP JUMPDEST PUSH1 0x40 MLOAD PUSH1 0x20 DUP2 DUP4 SUB SUB DUP2 MSTORE SWAP1 PUSH1 0x40 MSTORE SWAP10 POP POP POP POP POP POP POP POP POP POP SWAP2 SWAP1 POP JUMP JUMPDEST PUSH1 0x60 PUSH1 0x0 PUSH2 0x56A DUP4 PUSH2 0x5EF JUMP JUMPDEST PUSH1 0x1 ADD SWAP1 POP PUSH1 0x0 DUP2 PUSH1 0x1 PUSH1 0x1 PUSH1 0x40 SHL SUB DUP2 GT ISZERO PUSH2 0x589 JUMPI PUSH2 0x589 PUSH2 0x796 JUMP JUMPDEST PUSH1 0x40 MLOAD SWAP1 DUP1 DUP3 MSTORE DUP1 PUSH1 0x1F ADD PUSH1 0x1F NOT AND PUSH1 0x20 ADD DUP3 ADD PUSH1 0x40 MSTORE DUP1 ISZERO PUSH2 0x5B3 JUMPI PUSH1 0x20 DUP3 ADD DUP2 DUP1 CALLDATASIZE DUP4 CALLDATACOPY ADD SWAP1 POP JUMPDEST POP SWAP1 POP DUP2 DUP2 ADD PUSH1 0x20 ADD JUMPDEST PUSH1 0x0 NOT ADD PUSH16 0x181899199A1A9B1B9C1CB0B131B232B3 PUSH1 0x81 SHL PUSH1 0xA DUP7 MOD BYTE DUP2 MSTORE8 PUSH1 0xA DUP6 DIV SWAP5 POP DUP5 PUSH2 0x5BD JUMPI POP SWAP4 SWAP3 POP POP POP JUMP JUMPDEST PUSH1 0x0 DUP1 PUSH27 0x184F03E93FF9F4DAA797ED6E38ED64BF6A1F010000000000000000 DUP4 LT PUSH2 0x638 JUMPI PUSH27 0x184F03E93FF9F4DAA797ED6E38ED64BF6A1F010000000000000000 DUP4 DIV SWAP3 POP PUSH1 0x40 ADD JUMPDEST PUSH14 0x4EE2D6D415B85ACEF8100000000 DUP4 LT PUSH2 0x664 JUMPI PUSH14 0x4EE2D6D415B85ACEF8100000000 DUP4 DIV SWAP3 POP PUSH1 0x20 ADD JUMPDEST PUSH7 0x2386F26FC10000 DUP4 LT PUSH2 0x682 JUMPI PUSH7 0x2386F26FC10000 DUP4 DIV SWAP3 POP PUSH1 0x10 ADD JUMPDEST PUSH4 0x5F5E100 DUP4 LT PUSH2 0x69A JUMPI PUSH4 0x5F5E100 DUP4 DIV SWAP3 POP PUSH1 0x8 ADD JUMPDEST PUSH2 0x2710 DUP4 LT PUSH2 0x6AE JUMPI PUSH2 0x2710 DUP4 DIV SWAP3 POP PUSH1 0x4 ADD JUMPDEST PUSH1 0x64 DUP4 LT PUSH2 0x6C0 JUMPI PUSH1 0x64 DUP4 DIV SWAP3 POP PUSH1 0x2 ADD JUMPDEST PUSH1 0xA DUP4 LT PUSH2 0x18D JUMPI PUSH1 0x1 ADD SWAP3 SWAP2 POP POP JUMP JUMPDEST DUP3 DUP1 SLOAD DUP3 DUP3 SSTORE SWAP1 PUSH1 0x0 MSTORE PUSH1 0x20 PUSH1 0x0 KECCAK256 SWAP1 DUP2 ADD SWAP3 DUP3 ISZERO PUSH2 0x717 JUMPI SWAP2 PUSH1 0x20 MUL DUP3 ADD JUMPDEST DUP3 DUP2 GT ISZERO PUSH2 0x717 JUMPI DUP3 MLOAD DUP3 SWAP1 PUSH2 0x707 SWAP1 DUP3 PUSH2 0xA89 JUMP JUMPDEST POP SWAP2 PUSH1 0x20 ADD SWAP2 SWAP1 PUSH1 0x1 ADD SWAP1 PUSH2 0x6F1 JUMP JUMPDEST POP PUSH2 0x723 SWAP3 SWAP2 POP PUSH2 0x727 JUMP JUMPDEST POP SWAP1 JUMP JUMPDEST DUP1 DUP3 GT ISZERO PUSH2 0x723 JUMPI PUSH1 0x0 PUSH2 0x73B DUP3 DUP3 PUSH2 0x744 JUMP JUMPDEST POP PUSH1 0x1 ADD PUSH2 0x727 JUMP JUMPDEST POP DUP1 SLOAD PUSH2 0x750 SWAP1 PUSH2 0xA00 JUMP JUMPDEST PUSH1 0x0 DUP3 SSTORE DUP1 PUSH1 0x1F LT PUSH2 0x760 JUMPI POP POP JUMP JUMPDEST PUSH1 0x1F ADD PUSH1 0x20 SWAP1 DIV SWAP1 PUSH1 0x0 MSTORE PUSH1 0x20 PUSH1 0x0 KECCAK256 SWAP1 DUP2 ADD SWAP1 PUSH2 0x77E SWAP2 SWAP1 PUSH2 0x781 JUMP JUMPDEST POP JUMP JUMPDEST JUMPDEST DUP1 DUP3 GT ISZERO PUSH2 0x723 JUMPI PUSH1 0x0 DUP2 SSTORE PUSH1 0x1 ADD PUSH2 0x782 JUMP JUMPDEST PUSH4 0x4E487B71 PUSH1 0xE0 SHL PUSH1 0x0 MSTORE PUSH1 0x41 PUSH1 0x4 MSTORE PUSH1 0x24 PUSH1 0x0 REVERT JUMPDEST PUSH1 0x40 MLOAD PUSH1 0x1F DUP3 ADD PUSH1 0x1F NOT AND DUP2 ADD PUSH1 0x1 PUSH1 0x1 PUSH1 0x40 SHL SUB DUP2 GT DUP3 DUP3 LT OR ISZERO PUSH2 0x7D4 JUMPI PUSH2 0x7D4 PUSH2 0x796 JUMP JUMPDEST PUSH1 0x40 MSTORE SWAP2 SWAP1 POP JUMP JUMPDEST PUSH1 0x0 JUMPDEST DUP4 DUP2 LT ISZERO PUSH2 0x7F7 JUMPI DUP2 DUP2 ADD MLOAD DUP4 DUP3 ADD MSTORE PUSH1 0x20 ADD PUSH2 0x7DF JUMP JUMPDEST POP POP PUSH1 0x0 SWAP2 ADD MSTORE JUMP JUMPDEST PUSH1 0x0 DUP3 PUSH1 0x1F DUP4 ADD SLT PUSH2 0x811 JUMPI PUSH1 0x0 DUP1 REVERT JUMPDEST DUP2 MLOAD PUSH1 0x1 PUSH1 0x1 PUSH1 0x40 SHL SUB DUP2 GT ISZERO PUSH2 0x82A JUMPI PUSH2 0x82A PUSH2 0x796 JUMP JUMPDEST PUSH2 0x83D PUSH1 0x1F DUP3 ADD PUSH1 0x1F NOT AND PUSH1 0x20 ADD PUSH2 0x7AC JUMP JUMPDEST DUP2 DUP2 MSTORE DUP5 PUSH1 0x20 DUP4 DUP7 ADD ADD GT ISZERO PUSH2 0x852 JUMPI PUSH1 0x0 DUP1 REVERT JUMPDEST PUSH2 0x863 DUP3 PUSH1 0x20 DUP4 ADD PUSH1 0x20 DUP8 ADD PUSH2 0x7DC JUMP JUMPDEST SWAP5 SWAP4 POP POP POP POP JUMP JUMPDEST PUSH1 0x0 DUP3 PUSH1 0x1F DUP4 ADD SLT PUSH2 0x87C JUMPI PUSH1 0x0 DUP1 REVERT JUMPDEST DUP2 MLOAD PUSH1 0x1 PUSH1 0x1 PUSH1 0x40 SHL SUB DUP2 GT ISZERO PUSH2 0x895 JUMPI PUSH2 0x895 PUSH2 0x796 JUMP JUMPDEST DUP1 PUSH1 0x5 SHL PUSH2 0x8A5 PUSH1 0x20 DUP3 ADD PUSH2 0x7AC JUMP JUMPDEST SWAP2 DUP3 MSTORE PUSH1 0x20 DUP2 DUP6 ADD DUP2 ADD SWAP3 SWAP1 DUP2 ADD SWAP1 DUP7 DUP5 GT ISZERO PUSH2 0x8C1 JUMPI PUSH1 0x0 DUP1 REVERT JUMPDEST PUSH1 0x20 DUP7 ADD SWAP3 POP JUMPDEST DUP4 DUP4 LT ISZERO PUSH2 0x907 JUMPI DUP3 MLOAD PUSH1 0x1 PUSH1 0x1 PUSH1 0x40 SHL SUB DUP2 GT ISZERO PUSH2 0x8E6 JUMPI PUSH1 0x0 DUP1 REVERT JUMPDEST PUSH2 0x8F5 DUP9 PUSH1 0x20 DUP4 DUP11 ADD ADD PUSH2 0x800 JUMP JUMPDEST DUP4 MSTORE POP PUSH1 0x20 SWAP3 DUP4 ADD SWAP3 SWAP1 SWAP2 ADD SWAP1 PUSH2 0x8C8 JUMP JUMPDEST SWAP7 SWAP6 POP POP POP POP POP POP JUMP JUMPDEST PUSH1 0x0 DUP1 PUSH1 0x0 DUP1 PUSH1 0x0 PUSH1 0xA0 DUP7 DUP9 SUB SLT ISZERO PUSH2 0x929 JUMPI PUSH1 0x0 DUP1 REVERT JUMPDEST DUP6 MLOAD PUSH1 0x1 PUSH1 0x1 PUSH1 0x40 SHL SUB DUP2 GT ISZERO PUSH2 0x93F JUMPI PUSH1 0x0 DUP1 REVERT JUMPDEST PUSH2 0x94B DUP9 DUP3 DUP10 ADD PUSH2 0x800 JUMP JUMPDEST PUSH1 0x20 DUP9 ADD MLOAD SWAP1 SWAP7 POP SWAP1 POP PUSH1 0x1 PUSH1 0x1 PUSH1 0x40 SHL SUB DUP2 GT ISZERO PUSH2 0x969 JUMPI PUSH1 0x0 DUP1 REVERT JUMPDEST PUSH2 0x975 DUP9 DUP3 DUP10 ADD PUSH2 0x86B JUMP JUMPDEST PUSH1 0x40 DUP9 ADD MLOAD SWAP1 SWAP6 POP SWAP1 POP PUSH1 0x1 PUSH1 0x1 PUSH1 0x40 SHL SUB DUP2 GT ISZERO PUSH2 0x993 JUMPI PUSH1 0x0 DUP1 REVERT JUMPDEST PUSH2 0x99F DUP9 DUP3 DUP10 ADD PUSH2 0x800 JUMP JUMPDEST PUSH1 0x60 DUP9 ADD MLOAD SWAP1 SWAP5 POP SWAP1 POP PUSH1 0x1 PUSH1 0x1 PUSH1 0x40 SHL SUB DUP2 GT ISZERO PUSH2 0x9BD JUMPI PUSH1 0x0 DUP1 REVERT JUMPDEST PUSH2 0x9C9 DUP9 DUP3 DUP10 ADD PUSH2 0x800 JUMP JUMPDEST PUSH1 0x80 DUP9 ADD MLOAD SWAP1 SWAP4 POP SWAP1 POP PUSH1 0x1 PUSH1 0x1 PUSH1 0x40 SHL SUB DUP2 GT ISZERO PUSH2 0x9E7 JUMPI PUSH1 0x0 DUP1 REVERT JUMPDEST PUSH2 0x9F3 DUP9 DUP3 DUP10 ADD PUSH2 0x800 JUMP JUMPDEST SWAP2 POP POP SWAP3 SWAP6 POP SWAP3 SWAP6 SWAP1 SWAP4 POP JUMP JUMPDEST PUSH1 0x1 DUP2 DUP2 SHR SWAP1 DUP3 AND DUP1 PUSH2 0xA14 JUMPI PUSH1 0x7F DUP3 AND SWAP2 POP JUMPDEST PUSH1 0x20 DUP3 LT DUP2 SUB PUSH2 0xA34 JUMPI PUSH4 0x4E487B71 PUSH1 0xE0 SHL PUSH1 0x0 MSTORE PUSH1 0x22 PUSH1 0x4 MSTORE PUSH1 0x24 PUSH1 0x0 REVERT JUMPDEST POP SWAP2 SWAP1 POP JUMP JUMPDEST PUSH1 0x1F DUP3 GT ISZERO PUSH2 0xA84 JUMPI DUP1 PUSH1 0x0 MSTORE PUSH1 0x20 PUSH1 0x0 KECCAK256 PUSH1 0x1F DUP5 ADD PUSH1 0x5 SHR DUP2 ADD PUSH1 0x20 DUP6 LT ISZERO PUSH2 0xA61 JUMPI POP DUP1 JUMPDEST PUSH1 0x1F DUP5 ADD PUSH1 0x5 SHR DUP3 ADD SWAP2 POP JUMPDEST DUP2 DUP2 LT ISZERO PUSH2 0xA81 JUMPI PUSH1 0x0 DUP2 SSTORE PUSH1 0x1 ADD PUSH2 0xA6D JUMP JUMPDEST POP POP JUMPDEST POP POP POP JUMP JUMPDEST DUP2 MLOAD PUSH1 0x1 PUSH1 0x1 PUSH1 0x40 SHL SUB DUP2 GT ISZERO PUSH2 0xAA2 JUMPI PUSH2 0xAA2 PUSH2 0x796 JUMP JUMPDEST PUSH2 0xAB6 DUP2 PUSH2 0xAB0 DUP5 SLOAD PUSH2 0xA00 JUMP JUMPDEST DUP5 PUSH2 0xA3A JUMP JUMPDEST PUSH1 0x20 PUSH1 0x1F DUP3 GT PUSH1 0x1 DUP2 EQ PUSH2 0xAEA JUMPI PUSH1 0x0 DUP4 ISZERO PUSH2 0xAD2 JUMPI POP DUP5 DUP3 ADD MLOAD JUMPDEST PUSH1 0x0 NOT PUSH1 0x3 DUP6 SWAP1 SHL SHR NOT AND PUSH1 0x1 DUP5 SWAP1 SHL OR DUP5 SSTORE PUSH2 0xA81 JUMP JUMPDEST PUSH1 0x0 DUP5 DUP2 MSTORE PUSH1 0x20 DUP2 KECCAK256 PUSH1 0x1F NOT DUP6 AND SWAP2 JUMPDEST DUP3 DUP2 LT ISZERO PUSH2 0xB1A JUMPI DUP8 DUP6 ADD MLOAD DUP3 SSTORE PUSH1 0x20 SWAP5 DUP6 ADD SWAP5 PUSH1 0x1 SWAP1 SWAP3 ADD SWAP2 ADD PUSH2 0xAFA JUMP JUMPDEST POP DUP5 DUP3 LT ISZERO PUSH2 0xB38 JUMPI DUP7 DUP5 ADD MLOAD PUSH1 0x0 NOT PUSH1 0x3 DUP8 SWAP1 SHL PUSH1 0xF8 AND SHR NOT AND DUP2 SSTORE JUMPDEST POP POP POP POP PUSH1 0x1 SWAP1 DUP2 SHL ADD SWAP1 SSTORE POP JUMP JUMPDEST PUSH4 0x4E487B71 PUSH1 0xE0 SHL PUSH1 0x0 MSTORE PUSH1 0x32 PUSH1 0x4 MSTORE PUSH1 0x24 PUSH1 0x0 REVERT JUMPDEST PUSH4 0x4E487B71 PUSH1 0xE0 SHL PUSH1 0x0 MSTORE PUSH1 0x12 PUSH1 0x4 MSTORE PUSH1 0x24 PUSH1 0x0 REVERT JUMPDEST PUSH4 0x4E487B71 PUSH1 0xE0 SHL PUSH1 0x0 MSTORE PUSH1 0x11 PUSH1 0x4 MSTORE PUSH1 0x24 PUSH1 0x0 REVERT JUMPDEST PUSH1 0x0 DUP3 PUSH2 0xB98 JUMPI PUSH2 0xB98 PUSH2 0xB5D JUMP JUMPDEST POP DIV SWAP1 JUMP JUMPDEST PUSH1 0x0 DUP3 PUSH2 0xBAC JUMPI PUSH2 0xBAC PUSH2 0xB5D JUMP JUMPDEST POP MOD SWAP1 JUMP JUMPDEST DUP2 DUP2 SUB DUP2 DUP2 GT ISZERO PUSH2 0x18D JUMPI PUSH2 0x18D PUSH2 0xB73 JUMP JUMPDEST DUP1 DUP3 ADD DUP1 DUP3 GT ISZERO PUSH2 0x18D JUMPI PUSH2 0x18D PUSH2 0xB73 JUMP JUMPDEST PUSH1 0x0 DUP5 MLOAD PUSH2 0xBE9 DUP2 DUP5 PUSH1 0x20 DUP10 ADD PUSH2 0x7DC JUMP JUMPDEST PUSH1 0x17 PUSH1 0xF9 SHL SWAP1 DUP4 ADD SWAP1 DUP2 MSTORE DUP5 MLOAD PUSH2 0xC07 DUP2 PUSH1 0x1 DUP5 ADD PUSH1 0x20 DUP10 ADD PUSH2 0x7DC JUMP JUMPDEST PUSH1 0xB PUSH1 0xFA SHL PUSH1 0x1 SWAP3 SWAP1 SWAP2 ADD SWAP2 DUP3 ADD MSTORE DUP4 MLOAD PUSH2 0xC29 DUP2 PUSH1 0x2 DUP5 ADD PUSH1 0x20 DUP9 ADD PUSH2 0x7DC JUMP JUMPDEST ADD PUSH1 0x2 ADD SWAP6 SWAP5 POP POP POP POP POP JUMP JUMPDEST PUSH2 0x2BC2 DUP1 PUSH2 0xC45 PUSH1 0x0 CODECOPY PUSH1 0x0 RETURN INVALID PUSH1 0x80 PUSH1 0x40 MSTORE PUSH1 0x4 CALLDATASIZE LT PUSH2 0x1EE JUMPI PUSH1 0x0 CALLDATALOAD PUSH1 0xE0 SHR DUP1 PUSH4 0x70A08231 GT PUSH2 0x10D JUMPI DUP1 PUSH4 0xAEC19C42 GT PUSH2 0xA0 JUMPI DUP1 PUSH4 0xE8A3D485 GT PUSH2 0x6F JUMPI DUP1 PUSH4 0xE8A3D485 EQ PUSH2 0x534 JUMPI DUP1 PUSH4 0xE985E9C5 EQ PUSH2 0x549 JUMPI DUP1 PUSH4 0xF2FDE38B EQ PUSH2 0x569 JUMPI DUP1 PUSH4 0xF57E6806 EQ PUSH2 0x589 JUMPI DUP1 PUSH4 0xFB15E9FD EQ PUSH2 0x59E JUMPI PUSH1 0x0 DUP1 REVERT JUMPDEST DUP1 PUSH4 0xAEC19C42 EQ PUSH2 0x4C1 JUMPI DUP1 PUSH4 0xB1E3C207 EQ PUSH2 0x4E1 JUMPI DUP1 PUSH4 0xB88D4FDE EQ PUSH2 0x501 JUMPI DUP1 PUSH4 0xC87B56DD EQ PUSH2 0x514 JUMPI PUSH1 0x0 DUP1 REVERT JUMPDEST DUP1 PUSH4 0x938E3D7B GT PUSH2 0xDC JUMPI DUP1 PUSH4 0x938E3D7B EQ PUSH2 0x457 JUMPI DUP1 PUSH4 0x95D89B41 EQ PUSH2 0x477 JUMPI DUP1 PUSH4 0xA22CB465 EQ PUSH2 0x48C JUMPI DUP1 PUSH4 0xABA83150 EQ PUSH2 0x4AC JUMPI PUSH1 0x0 DUP1 REVERT JUMPDEST DUP1 PUSH4 0x70A08231 EQ PUSH2 0x3E4 JUMPI DUP1 PUSH4 0x715018A6 EQ PUSH2 0x404 JUMPI DUP1 PUSH4 0x851FC4B6 EQ PUSH2 0x419 JUMPI DUP1 PUSH4 0x8DA5CB5B EQ PUSH2 0x439 JUMPI PUSH1 0x0 DUP1 REVERT JUMPDEST DUP1 PUSH4 0x3077AC25 GT PUSH2 0x185 JUMPI DUP1 PUSH4 0x5F528EE8 GT PUSH2 0x154 JUMPI DUP1 PUSH4 0x5F528EE8 EQ PUSH2 0x37A JUMPI DUP1 PUSH4 0x6352211E EQ PUSH2 0x39A JUMPI DUP1 PUSH4 0x68E803A6 EQ PUSH2 0x3BA JUMPI DUP1 PUSH4 0x6CBF6456 EQ PUSH2 0x3CF JUMPI PUSH1 0x0 DUP1 REVERT JUMPDEST DUP1 PUSH4 0x3077AC25 EQ PUSH2 0x307 JUMPI DUP1 PUSH4 0x3122E4F4 EQ PUSH2 0x327 JUMPI DUP1 PUSH4 0x40C10F19 EQ PUSH2 0x347 JUMPI DUP1 PUSH4 0x42842E0E EQ PUSH2 0x367 JUMPI PUSH1 0x0 DUP1 REVERT JUMPDEST DUP1 PUSH4 0x16ADA547 GT PUSH2 0x1C1 JUMPI DUP1 PUSH4 0x16ADA547 EQ PUSH2 0x297 JUMPI DUP1 PUSH4 0x18160DDD EQ PUSH2 0x2BB JUMPI DUP1 PUSH4 0x23B872DD EQ PUSH2 0x2D4 JUMPI DUP1 PUSH4 0x2ABFF1F2 EQ PUSH2 0x2E7 JUMPI PUSH1 0x0 DUP1 REVERT JUMPDEST DUP1 PUSH4 0x1FFC9A7 EQ PUSH2 0x1F3 JUMPI DUP1 PUSH4 0x6FDDE03 EQ PUSH2 0x228 JUMPI DUP1 PUSH4 0x81812FC EQ PUSH2 0x24A JUMPI DUP1 PUSH4 0x95EA7B3 EQ PUSH2 0x282 JUMPI JUMPDEST PUSH1 0x0 DUP1 REVERT JUMPDEST CALLVALUE DUP1 ISZERO PUSH2 0x1FF JUMPI PUSH1 0x0 DUP1 REVERT JUMPDEST POP PUSH2 0x213 PUSH2 0x20E CALLDATASIZE PUSH1 0x4 PUSH2 0x1EF7 JUMP JUMPDEST PUSH2 0x5B3 JUMP JUMPDEST PUSH1 0x40 MLOAD SWAP1 ISZERO ISZERO DUP2 MSTORE PUSH1 0x20 ADD JUMPDEST PUSH1 0x40 MLOAD DUP1 SWAP2 SUB SWAP1 RETURN JUMPDEST CALLVALUE DUP1 ISZERO PUSH2 0x234 JUMPI PUSH1 0x0 DUP1 REVERT JUMPDEST POP PUSH2 0x23D PUSH2 0x605 JUMP JUMPDEST PUSH1 0x40 MLOAD PUSH2 0x21F SWAP2 SWAP1 PUSH2 0x1F6B JUMP JUMPDEST CALLVALUE DUP1 ISZERO PUSH2 0x256 JUMPI PUSH1 0x0 DUP1 REVERT JUMPDEST POP PUSH2 0x26A PUSH2 0x265 CALLDATASIZE PUSH1 0x4 PUSH2 0x1F7E JUMP JUMPDEST PUSH2 0x697 JUMP JUMPDEST PUSH1 0x40 MLOAD PUSH1 0x1 PUSH1 0x1 PUSH1 0xA0 SHL SUB SWAP1 SWAP2 AND DUP2 MSTORE PUSH1 0x20 ADD PUSH2 0x21F JUMP JUMPDEST PUSH2 0x295 PUSH2 0x290 CALLDATASIZE PUSH1 0x4 PUSH2 0x1FAE JUMP JUMPDEST PUSH2 0x6D2 JUMP JUMPDEST STOP JUMPDEST CALLVALUE DUP1 ISZERO PUSH2 0x2A3 JUMPI PUSH1 0x0 DUP1 REVERT JUMPDEST POP PUSH2 0x2AD PUSH1 0xF SLOAD DUP2 JUMP JUMPDEST PUSH1 0x40 MLOAD SWAP1 DUP2 MSTORE PUSH1 0x20 ADD PUSH2 0x21F JUMP JUMPDEST CALLVALUE DUP1 ISZERO PUSH2 0x2C7 JUMPI PUSH1 0x0 DUP1 REVERT JUMPDEST POP PUSH1 0x1 SLOAD PUSH1 0x0 SLOAD SUB PUSH2 0x2AD JUMP JUMPDEST PUSH2 0x295 PUSH2 0x2E2 CALLDATASIZE PUSH1 0x4 PUSH2 0x1FD8 JUMP JUMPDEST PUSH2 0x6E2 JUMP JUMPDEST CALLVALUE DUP1 ISZERO PUSH2 0x2F3 JUMPI PUSH1 0x0 DUP1 REVERT JUMPDEST POP PUSH2 0x295 PUSH2 0x302 CALLDATASIZE PUSH1 0x4 PUSH2 0x20D6 JUMP JUMPDEST PUSH2 0x847 JUMP JUMPDEST CALLVALUE DUP1 ISZERO PUSH2 0x313 JUMPI PUSH1 0x0 DUP1 REVERT JUMPDEST POP PUSH2 0x23D PUSH2 0x322 CALLDATASIZE PUSH1 0x4 PUSH2 0x1F7E JUMP JUMPDEST PUSH2 0x85B JUMP JUMPDEST CALLVALUE DUP1 ISZERO PUSH2 0x333 JUMPI PUSH1 0x0 DUP1 REVERT JUMPDEST POP PUSH2 0x295 PUSH2 0x342 CALLDATASIZE PUSH1 0x4 PUSH2 0x21BE JUMP JUMPDEST PUSH2 0x8F5 JUMP JUMPDEST CALLVALUE DUP1 ISZERO PUSH2 0x353 JUMPI PUSH1 0x0 DUP1 REVERT JUMPDEST POP PUSH2 0x295 PUSH2 0x362 CALLDATASIZE PUSH1 0x4 PUSH2 0x1FAE JUMP JUMPDEST PUSH2 0xA24 JUMP JUMPDEST PUSH2 0x295 PUSH2 0x375 CALLDATASIZE PUSH1 0x4 PUSH2 0x1FD8 JUMP JUMPDEST PUSH2 0xA36 JUMP JUMPDEST CALLVALUE DUP1 ISZERO PUSH2 0x386 JUMPI PUSH1 0x0 DUP1 REVERT JUMPDEST POP PUSH2 0x23D PUSH2 0x395 CALLDATASIZE PUSH1 0x4 PUSH2 0x1F7E JUMP JUMPDEST PUSH2 0xA51 JUMP JUMPDEST CALLVALUE DUP1 ISZERO PUSH2 0x3A6 JUMPI PUSH1 0x0 DUP1 REVERT JUMPDEST POP PUSH2 0x26A PUSH2 0x3B5 CALLDATASIZE PUSH1 0x4 PUSH2 0x1F7E JUMP JUMPDEST PUSH2 0xA7C JUMP JUMPDEST CALLVALUE DUP1 ISZERO PUSH2 0x3C6 JUMPI PUSH1 0x0 DUP1 REVERT JUMPDEST POP PUSH2 0x23D PUSH2 0xA87 JUMP JUMPDEST CALLVALUE DUP1 ISZERO PUSH2 0x3DB JUMPI PUSH1 0x0 DUP1 REVERT JUMPDEST POP PUSH2 0x23D PUSH2 0xA94 JUMP JUMPDEST CALLVALUE DUP1 ISZERO PUSH2 0x3F0 JUMPI PUSH1 0x0 DUP1 REVERT JUMPDEST POP PUSH2 0x2AD PUSH2 0x3FF CALLDATASIZE PUSH1 0x4 PUSH2 0x227E JUMP JUMPDEST PUSH2 0xAA1 JUMP JUMPDEST CALLVALUE DUP1 ISZERO PUSH2 0x410 JUMPI PUSH1 0x0 DUP1 REVERT JUMPDEST POP PUSH2 0x295 PUSH2 0xAE6 JUMP JUMPDEST CALLVALUE DUP1 ISZERO PUSH2 0x425 JUMPI PUSH1 0x0 DUP1 REVERT JUMPDEST POP PUSH2 0x295 PUSH2 0x434 CALLDATASIZE PUSH1 0x4 PUSH2 0x2299 JUMP JUMPDEST PUSH2 0xAFA JUMP JUMPDEST CALLVALUE DUP1 ISZERO PUSH2 0x445 JUMPI PUSH1 0x0 DUP1 REVERT JUMPDEST POP PUSH1 0x9 SLOAD PUSH1 0x1 PUSH1 0x1 PUSH1 0xA0 SHL SUB AND PUSH2 0x26A JUMP JUMPDEST CALLVALUE DUP1 ISZERO PUSH2 0x463 JUMPI PUSH1 0x0 DUP1 REVERT JUMPDEST POP PUSH2 0x295 PUSH2 0x472 CALLDATASIZE PUSH1 0x4 PUSH2 0x20D6 JUMP JUMPDEST PUSH2 0xB66 JUMP JUMPDEST CALLVALUE DUP1 ISZERO PUSH2 0x483 JUMPI PUSH1 0x0 DUP1 REVERT JUMPDEST POP PUSH2 0x23D PUSH2 0xBA7 JUMP JUMPDEST CALLVALUE DUP1 ISZERO PUSH2 0x498 JUMPI PUSH1 0x0 DUP1 REVERT JUMPDEST POP PUSH2 0x295 PUSH2 0x4A7 CALLDATASIZE PUSH1 0x4 PUSH2 0x22D5 JUMP JUMPDEST PUSH2 0xBB6 JUMP JUMPDEST CALLVALUE DUP1 ISZERO PUSH2 0x4B8 JUMPI PUSH1 0x0 DUP1 REVERT JUMPDEST POP PUSH2 0x23D PUSH2 0xC22 JUMP JUMPDEST CALLVALUE DUP1 ISZERO PUSH2 0x4CD JUMPI PUSH1 0x0 DUP1 REVERT JUMPDEST POP PUSH2 0x295 PUSH2 0x4DC CALLDATASIZE PUSH1 0x4 PUSH2 0x2311 JUMP JUMPDEST PUSH2 0xC2F JUMP JUMPDEST CALLVALUE DUP1 ISZERO PUSH2 0x4ED JUMPI PUSH1 0x0 DUP1 REVERT JUMPDEST POP PUSH2 0x295 PUSH2 0x4FC CALLDATASIZE PUSH1 0x4 PUSH2 0x20D6 JUMP JUMPDEST PUSH2 0xC50 JUMP JUMPDEST PUSH2 0x295 PUSH2 0x50F CALLDATASIZE PUSH1 0x4 PUSH2 0x2362 JUMP JUMPDEST PUSH2 0xC64 JUMP JUMPDEST CALLVALUE DUP1 ISZERO PUSH2 0x520 JUMPI PUSH1 0x0 DUP1 REVERT JUMPDEST POP PUSH2 0x23D PUSH2 0x52F CALLDATASIZE PUSH1 0x4 PUSH2 0x1F7E JUMP JUMPDEST PUSH2 0xCA5 JUMP JUMPDEST CALLVALUE DUP1 ISZERO PUSH2 0x540 JUMPI PUSH1 0x0 DUP1 REVERT JUMPDEST POP PUSH2 0x23D PUSH2 0xFE0 JUMP JUMPDEST CALLVALUE DUP1 ISZERO PUSH2 0x555 JUMPI PUSH1 0x0 DUP1 REVERT JUMPDEST POP PUSH2 0x213 PUSH2 0x564 CALLDATASIZE PUSH1 0x4 PUSH2 0x23DD JUMP JUMPDEST PUSH2 0x1284 JUMP JUMPDEST CALLVALUE DUP1 ISZERO PUSH2 0x575 JUMPI PUSH1 0x0 DUP1 REVERT JUMPDEST POP PUSH2 0x295 PUSH2 0x584 CALLDATASIZE PUSH1 0x4 PUSH2 0x227E JUMP JUMPDEST PUSH2 0x12B2 JUMP JUMPDEST CALLVALUE DUP1 ISZERO PUSH2 0x595 JUMPI PUSH1 0x0 DUP1 REVERT JUMPDEST POP PUSH2 0x23D PUSH2 0x132B JUMP JUMPDEST CALLVALUE DUP1 ISZERO PUSH2 0x5AA JUMPI PUSH1 0x0 DUP1 REVERT JUMPDEST POP PUSH2 0x23D PUSH2 0x1338 JUMP JUMPDEST PUSH1 0x0 PUSH4 0x1FFC9A7 PUSH1 0xE0 SHL PUSH1 0x1 PUSH1 0x1 PUSH1 0xE0 SHL SUB NOT DUP4 AND EQ DUP1 PUSH2 0x5E4 JUMPI POP PUSH4 0x80AC58CD PUSH1 0xE0 SHL PUSH1 0x1 PUSH1 0x1 PUSH1 0xE0 SHL SUB NOT DUP4 AND EQ JUMPDEST DUP1 PUSH2 0x5FF JUMPI POP PUSH4 0x5B5E139F PUSH1 0xE0 SHL PUSH1 0x1 PUSH1 0x1 PUSH1 0xE0 SHL SUB NOT DUP4 AND EQ JUMPDEST SWAP3 SWAP2 POP POP JUMP JUMPDEST PUSH1 0x60 PUSH1 0xA DUP1 SLOAD PUSH2 0x614 SWAP1 PUSH2 0x2410 JUMP JUMPDEST DUP1 PUSH1 0x1F ADD PUSH1 0x20 DUP1 SWAP2 DIV MUL PUSH1 0x20 ADD PUSH1 0x40 MLOAD SWAP1 DUP2 ADD PUSH1 0x40 MSTORE DUP1 SWAP3 SWAP2 SWAP1 DUP2 DUP2 MSTORE PUSH1 0x20 ADD DUP3 DUP1 SLOAD PUSH2 0x640 SWAP1 PUSH2 0x2410 JUMP JUMPDEST DUP1 ISZERO PUSH2 0x68D JUMPI DUP1 PUSH1 0x1F LT PUSH2 0x662 JUMPI PUSH2 0x100 DUP1 DUP4 SLOAD DIV MUL DUP4 MSTORE SWAP2 PUSH1 0x20 ADD SWAP2 PUSH2 0x68D JUMP JUMPDEST DUP3 ADD SWAP2 SWAP1 PUSH1 0x0 MSTORE PUSH1 0x20 PUSH1 0x0 KECCAK256 SWAP1 JUMPDEST DUP2 SLOAD DUP2 MSTORE SWAP1 PUSH1 0x1 ADD SWAP1 PUSH1 0x20 ADD DUP1 DUP4 GT PUSH2 0x670 JUMPI DUP3 SWAP1 SUB PUSH1 0x1F AND DUP3 ADD SWAP2 JUMPDEST POP POP POP POP POP SWAP1 POP SWAP1 JUMP JUMPDEST PUSH1 0x0 PUSH2 0x6A2 DUP3 PUSH2 0x1345 JUMP JUMPDEST PUSH2 0x6B6 JUMPI PUSH2 0x6B6 PUSH4 0x33D1C039 PUSH1 0xE2 SHL PUSH2 0x138A JUMP JUMPDEST POP PUSH1 0x0 SWAP1 DUP2 MSTORE PUSH1 0x6 PUSH1 0x20 MSTORE PUSH1 0x40 SWAP1 KECCAK256 SLOAD PUSH1 0x1 PUSH1 0x1 PUSH1 0xA0 SHL SUB AND SWAP1 JUMP JUMPDEST PUSH2 0x6DE DUP3 DUP3 PUSH1 0x1 PUSH2 0x1394 JUMP JUMPDEST POP POP JUMP JUMPDEST PUSH1 0x0 PUSH2 0x6ED DUP3 PUSH2 0x1437 JUMP JUMPDEST PUSH1 0x1 PUSH1 0x1 PUSH1 0xA0 SHL SUB SWAP5 DUP6 AND SWAP5 SWAP1 SWAP2 POP DUP2 AND DUP5 EQ PUSH2 0x713 JUMPI PUSH2 0x713 PUSH3 0xA11481 PUSH1 0xE8 SHL PUSH2 0x138A JUMP JUMPDEST PUSH1 0x0 DUP3 DUP2 MSTORE PUSH1 0x6 PUSH1 0x20 MSTORE PUSH1 0x40 SWAP1 KECCAK256 DUP1 SLOAD CALLER DUP1 DUP3 EQ PUSH1 0x1 PUSH1 0x1 PUSH1 0xA0 SHL SUB DUP9 AND SWAP1 SWAP2 EQ OR PUSH2 0x757 JUMPI PUSH2 0x743 DUP7 CALLER PUSH2 0x1284 JUMP JUMPDEST PUSH2 0x757 JUMPI PUSH2 0x757 PUSH4 0x2CE44B5F PUSH1 0xE1 SHL PUSH2 0x138A JUMP JUMPDEST DUP1 ISZERO PUSH2 0x762 JUMPI PUSH1 0x0 DUP3 SSTORE JUMPDEST PUSH1 0x1 PUSH1 0x1 PUSH1 0xA0 SHL SUB DUP7 DUP2 AND PUSH1 0x0 SWAP1 DUP2 MSTORE PUSH1 0x5 PUSH1 0x20 MSTORE PUSH1 0x40 DUP1 DUP3 KECCAK256 DUP1 SLOAD PUSH1 0x0 NOT ADD SWAP1 SSTORE SWAP2 DUP8 AND DUP1 DUP3 MSTORE SWAP2 SWAP1 KECCAK256 DUP1 SLOAD PUSH1 0x1 ADD SWAP1 SSTORE TIMESTAMP PUSH1 0xA0 SHL OR PUSH1 0x1 PUSH1 0xE1 SHL OR PUSH1 0x0 DUP6 DUP2 MSTORE PUSH1 0x4 PUSH1 0x20 MSTORE PUSH1 0x40 DUP2 KECCAK256 SWAP2 SWAP1 SWAP2 SSTORE PUSH1 0x1 PUSH1 0xE1 SHL DUP5 AND SWAP1 SUB PUSH2 0x7F4 JUMPI PUSH1 0x1 DUP5 ADD PUSH1 0x0 DUP2 DUP2 MSTORE PUSH1 0x4 PUSH1 0x20 MSTORE PUSH1 0x40 DUP2 KECCAK256 SLOAD SWAP1 SUB PUSH2 0x7F2 JUMPI PUSH1 0x0 SLOAD DUP2 EQ PUSH2 0x7F2 JUMPI PUSH1 0x0 DUP2 DUP2 MSTORE PUSH1 0x4 PUSH1 0x20 MSTORE PUSH1 0x40 SWAP1 KECCAK256 DUP5 SWAP1 SSTORE JUMPDEST POP JUMPDEST PUSH1 0x1 PUSH1 0x1 PUSH1 0xA0 SHL SUB DUP6 AND DUP5 DUP2 DUP9 PUSH32 0xDDF252AD1BE2C89B69C2B068FC378DAA952BA7F163C4A11628F55A4DF523B3EF PUSH1 0x0 DUP1 LOG4 DUP1 PUSH1 0x0 SUB PUSH2 0x83E JUMPI PUSH2 0x83E PUSH4 0x3A954ECD PUSH1 0xE2 SHL PUSH2 0x138A JUMP JUMPDEST POP POP POP POP POP POP POP JUMP JUMPDEST PUSH2 0x84F PUSH2 0x14CD JUMP JUMPDEST PUSH1 0xB PUSH2 0x6DE DUP3 DUP3 PUSH2 0x2498 JUMP JUMPDEST PUSH1 0x12 PUSH1 0x20 MSTORE PUSH1 0x0 SWAP1 DUP2 MSTORE PUSH1 0x40 SWAP1 KECCAK256 DUP1 SLOAD PUSH2 0x874 SWAP1 PUSH2 0x2410 JUMP JUMPDEST DUP1 PUSH1 0x1F ADD PUSH1 0x20 DUP1 SWAP2 DIV MUL PUSH1 0x20 ADD PUSH1 0x40 MLOAD SWAP1 DUP2 ADD PUSH1 0x40 MSTORE DUP1 SWAP3 SWAP2 SWAP1 DUP2 DUP2 MSTORE PUSH1 0x20 ADD DUP3 DUP1 SLOAD PUSH2 0x8A0 SWAP1 PUSH2 0x2410 JUMP JUMPDEST DUP1 ISZERO PUSH2 0x8ED JUMPI DUP1 PUSH1 0x1F LT PUSH2 0x8C2 JUMPI PUSH2 0x100 DUP1 DUP4 SLOAD DIV MUL DUP4 MSTORE SWAP2 PUSH1 0x20 ADD SWAP2 PUSH2 0x8ED JUMP JUMPDEST DUP3 ADD SWAP2 SWAP1 PUSH1 0x0 MSTORE PUSH1 0x20 PUSH1 0x0 KECCAK256 SWAP1 JUMPDEST DUP2 SLOAD DUP2 MSTORE SWAP1 PUSH1 0x1 ADD SWAP1 PUSH1 0x20 ADD DUP1 DUP4 GT PUSH2 0x8D0 JUMPI DUP3 SWAP1 SUB PUSH1 0x1F AND DUP3 ADD SWAP2 JUMPDEST POP POP POP POP POP DUP2 JUMP JUMPDEST PUSH2 0x8FD PUSH2 0x14CD JUMP JUMPDEST DUP1 MLOAD DUP3 MLOAD EQ PUSH2 0x953 JUMPI PUSH1 0x40 MLOAD PUSH3 0x461BCD PUSH1 0xE5 SHL DUP2 MSTORE PUSH1 0x20 PUSH1 0x4 DUP3 ADD MSTORE PUSH1 0x18 PUSH1 0x24 DUP3 ADD MSTORE PUSH32 0x4D69736D61746368656420696E707574206C656E677468730000000000000000 PUSH1 0x44 DUP3 ADD MSTORE PUSH1 0x64 ADD JUMPDEST PUSH1 0x40 MLOAD DUP1 SWAP2 SUB SWAP1 REVERT JUMPDEST PUSH1 0x0 JUMPDEST DUP3 MLOAD DUP2 LT ISZERO PUSH2 0xA1F JUMPI PUSH2 0x981 DUP4 DUP3 DUP2 MLOAD DUP2 LT PUSH2 0x974 JUMPI PUSH2 0x974 PUSH2 0x2556 JUMP JUMPDEST PUSH1 0x20 MUL PUSH1 0x20 ADD ADD MLOAD PUSH2 0x1345 JUMP JUMPDEST PUSH2 0x9C4 JUMPI PUSH1 0x40 MLOAD PUSH3 0x461BCD PUSH1 0xE5 SHL DUP2 MSTORE PUSH1 0x20 PUSH1 0x4 DUP3 ADD MSTORE PUSH1 0x14 PUSH1 0x24 DUP3 ADD MSTORE PUSH20 0x151BDAD95B88191BD95CC81B9BDD08195E1A5CDD PUSH1 0x62 SHL PUSH1 0x44 DUP3 ADD MSTORE PUSH1 0x64 ADD PUSH2 0x94A JUMP JUMPDEST DUP2 DUP2 DUP2 MLOAD DUP2 LT PUSH2 0x9D6 JUMPI PUSH2 0x9D6 PUSH2 0x2556 JUMP JUMPDEST PUSH1 0x20 MUL PUSH1 0x20 ADD ADD MLOAD PUSH1 0x12 PUSH1 0x0 DUP6 DUP5 DUP2 MLOAD DUP2 LT PUSH2 0x9F4 JUMPI PUSH2 0x9F4 PUSH2 0x2556 JUMP JUMPDEST PUSH1 0x20 MUL PUSH1 0x20 ADD ADD MLOAD DUP2 MSTORE PUSH1 0x20 ADD SWAP1 DUP2 MSTORE PUSH1 0x20 ADD PUSH1 0x0 KECCAK256 SWAP1 DUP2 PUSH2 0xA16 SWAP2 SWAP1 PUSH2 0x2498 JUMP JUMPDEST POP PUSH1 0x1 ADD PUSH2 0x956 JUMP JUMPDEST POP POP POP JUMP JUMPDEST PUSH2 0xA2C PUSH2 0x14CD JUMP JUMPDEST PUSH2 0x6DE DUP3 DUP3 PUSH2 0x1527 JUMP JUMPDEST PUSH2 0xA1F DUP4 DUP4 DUP4 PUSH1 0x40 MLOAD DUP1 PUSH1 0x20 ADD PUSH1 0x40 MSTORE DUP1 PUSH1 0x0 DUP2 MSTORE POP PUSH2 0xC64 JUMP JUMPDEST PUSH1 0xC DUP2 DUP2 SLOAD DUP2 LT PUSH2 0xA61 JUMPI PUSH1 0x0 DUP1 REVERT JUMPDEST SWAP1 PUSH1 0x0 MSTORE PUSH1 0x20 PUSH1 0x0 KECCAK256 ADD PUSH1 0x0 SWAP2 POP SWAP1 POP DUP1 SLOAD PUSH2 0x874 SWAP1 PUSH2 0x2410 JUMP JUMPDEST PUSH1 0x0 PUSH2 0x5FF DUP3 PUSH2 0x1437 JUMP JUMPDEST PUSH1 0x11 DUP1 SLOAD PUSH2 0x874 SWAP1 PUSH2 0x2410 JUMP JUMPDEST PUSH1 0x10 DUP1 SLOAD PUSH2 0x874 SWAP1 PUSH2 0x2410 JUMP JUMPDEST PUSH1 0x0 PUSH1 0x1 PUSH1 0x1 PUSH1 0xA0 SHL SUB DUP3 AND PUSH2 0xAC1 JUMPI PUSH2 0xAC1 PUSH4 0x23D3AD81 PUSH1 0xE2 SHL PUSH2 0x138A JUMP JUMPDEST POP PUSH1 0x1 PUSH1 0x1 PUSH1 0xA0 SHL SUB AND PUSH1 0x0 SWAP1 DUP2 MSTORE PUSH1 0x5 PUSH1 0x20 MSTORE PUSH1 0x40 SWAP1 KECCAK256 SLOAD PUSH1 0x1 PUSH1 0x1 PUSH1 0x40 SHL SUB AND SWAP1 JUMP JUMPDEST PUSH2 0xAEE PUSH2 0x14CD JUMP JUMPDEST PUSH2 0xAF8 PUSH1 0x0 PUSH2 0x15E6 JUMP JUMPDEST JUMP JUMPDEST PUSH2 0xB02 PUSH2 0x14CD JUMP JUMPDEST PUSH2 0xB0B DUP3 PUSH2 0x1345 JUMP JUMPDEST PUSH2 0xB4E JUMPI PUSH1 0x40 MLOAD PUSH3 0x461BCD PUSH1 0xE5 SHL DUP2 MSTORE PUSH1 0x20 PUSH1 0x4 DUP3 ADD MSTORE PUSH1 0x14 PUSH1 0x24 DUP3 ADD MSTORE PUSH20 0x151BDAD95B88191BD95CC81B9BDD08195E1A5CDD PUSH1 0x62 SHL PUSH1 0x44 DUP3 ADD MSTORE PUSH1 0x64 ADD PUSH2 0x94A JUMP JUMPDEST PUSH1 0x0 DUP3 DUP2 MSTORE PUSH1 0x12 PUSH1 0x20 MSTORE PUSH1 0x40 SWAP1 KECCAK256 PUSH2 0xA1F DUP3 DUP3 PUSH2 0x2498 JUMP JUMPDEST PUSH2 0xB6E PUSH2 0x14CD JUMP JUMPDEST PUSH1 0x10 PUSH2 0xB7A DUP3 DUP3 PUSH2 0x2498 JUMP JUMPDEST POP PUSH1 0x40 MLOAD PUSH32 0xA5D4097EDDA6D87CB9329AF83FB3712EF77EEB13738FFE43CC35A4CE305AD962 SWAP1 PUSH1 0x0 SWAP1 LOG1 POP JUMP JUMPDEST PUSH1 0x60 PUSH1 0x3 DUP1 SLOAD PUSH2 0x614 SWAP1 PUSH2 0x2410 JUMP JUMPDEST CALLER PUSH1 0x0 DUP2 DUP2 MSTORE PUSH1 0x7 PUSH1 0x20 SWAP1 DUP2 MSTORE PUSH1 0x40 DUP1 DUP4 KECCAK256 PUSH1 0x1 PUSH1 0x1 PUSH1 0xA0 SHL SUB DUP8 AND DUP1 DUP6 MSTORE SWAP1 DUP4 MSTORE SWAP3 DUP2 SWAP1 KECCAK256 DUP1 SLOAD PUSH1 0xFF NOT AND DUP7 ISZERO ISZERO SWAP1 DUP2 OR SWAP1 SWAP2 SSTORE SWAP1 MLOAD SWAP1 DUP2 MSTORE SWAP2 SWAP3 SWAP2 PUSH32 0x17307EAB39AB6107E8899845AD3D59BD9653F200F220920489CA2B5937696C31 SWAP2 ADD PUSH1 0x40 MLOAD DUP1 SWAP2 SUB SWAP1 LOG3 POP POP JUMP JUMPDEST PUSH1 0xB DUP1 SLOAD PUSH2 0x874 SWAP1 PUSH2 0x2410 JUMP JUMPDEST PUSH2 0xC37 PUSH2 0x14CD JUMP JUMPDEST PUSH1 0xD PUSH2 0xC43 DUP4 DUP3 PUSH2 0x2498 JUMP JUMPDEST POP PUSH1 0xE PUSH2 0xA1F DUP3 DUP3 PUSH2 0x2498 JUMP JUMPDEST PUSH2 0xC58 PUSH2 0x14CD JUMP JUMPDEST PUSH1 0x11 PUSH2 0xB7A DUP3 DUP3 PUSH2 0x2498 JUMP JUMPDEST PUSH2 0xC6F DUP5 DUP5 DUP5 PUSH2 0x6E2 JUMP JUMPDEST PUSH1 0x1 PUSH1 0x1 PUSH1 0xA0 SHL SUB DUP4 AND EXTCODESIZE ISZERO PUSH2 0xC9F JUMPI PUSH2 0xC8B DUP5 DUP5 DUP5 DUP5 PUSH2 0x1638 JUMP JUMPDEST PUSH2 0xC9F JUMPI PUSH2 0xC9F PUSH4 0x68D2BF6B PUSH1 0xE1 SHL PUSH2 0x138A JUMP JUMPDEST POP POP POP POP JUMP JUMPDEST PUSH1 0x60 PUSH2 0xCB0 DUP3 PUSH2 0x1345 JUMP JUMPDEST PUSH2 0xCCD JUMPI PUSH1 0x40 MLOAD PUSH4 0xA14C4B5 PUSH1 0xE4 SHL DUP2 MSTORE PUSH1 0x4 ADD PUSH1 0x40 MLOAD DUP1 SWAP2 SUB SWAP1 REVERT JUMPDEST PUSH1 0x0 DUP3 DUP2 MSTORE PUSH1 0x12 PUSH1 0x20 MSTORE PUSH1 0x40 DUP2 KECCAK256 DUP1 SLOAD PUSH2 0xCE6 SWAP1 PUSH2 0x2410 JUMP JUMPDEST DUP1 PUSH1 0x1F ADD PUSH1 0x20 DUP1 SWAP2 DIV MUL PUSH1 0x20 ADD PUSH1 0x40 MLOAD SWAP1 DUP2 ADD PUSH1 0x40 MSTORE DUP1 SWAP3 SWAP2 SWAP1 DUP2 DUP2 MSTORE PUSH1 0x20 ADD DUP3 DUP1 SLOAD PUSH2 0xD12 SWAP1 PUSH2 0x2410 JUMP JUMPDEST DUP1 ISZERO PUSH2 0xD5F JUMPI DUP1 PUSH1 0x1F LT PUSH2 0xD34 JUMPI PUSH2 0x100 DUP1 DUP4 SLOAD DIV MUL DUP4 MSTORE SWAP2 PUSH1 0x20 ADD SWAP2 PUSH2 0xD5F JUMP JUMPDEST DUP3 ADD SWAP2 SWAP1 PUSH1 0x0 MSTORE PUSH1 0x20 PUSH1 0x0 KECCAK256 SWAP1 JUMPDEST DUP2 SLOAD DUP2 MSTORE SWAP1 PUSH1 0x1 ADD SWAP1 PUSH1 0x20 ADD DUP1 DUP4 GT PUSH2 0xD42 JUMPI DUP3 SWAP1 SUB PUSH1 0x1F AND DUP3 ADD SWAP2 JUMPDEST POP POP POP POP POP SWAP1 POP PUSH1 0x0 DUP2 MLOAD GT ISZERO PUSH2 0xD76 JUMPI SWAP3 SWAP2 POP POP JUMP JUMPDEST PUSH1 0xC SLOAD PUSH1 0x60 SWAP1 ISZERO PUSH2 0xE39 JUMPI PUSH1 0xC DUP1 SLOAD PUSH2 0xD8F SWAP1 DUP7 PUSH2 0x2582 JUMP JUMPDEST DUP2 SLOAD DUP2 LT PUSH2 0xD9F JUMPI PUSH2 0xD9F PUSH2 0x2556 JUMP JUMPDEST SWAP1 PUSH1 0x0 MSTORE PUSH1 0x20 PUSH1 0x0 KECCAK256 ADD DUP1 SLOAD PUSH2 0xDB4 SWAP1 PUSH2 0x2410 JUMP JUMPDEST DUP1 PUSH1 0x1F ADD PUSH1 0x20 DUP1 SWAP2 DIV MUL PUSH1 0x20 ADD PUSH1 0x40 MLOAD SWAP1 DUP2 ADD PUSH1 0x40 MSTORE DUP1 SWAP3 SWAP2 SWAP1 DUP2 DUP2 MSTORE PUSH1 0x20 ADD DUP3 DUP1 SLOAD PUSH2 0xDE0 SWAP1 PUSH2 0x2410 JUMP JUMPDEST DUP1 ISZERO PUSH2 0xE2D JUMPI DUP1 PUSH1 0x1F LT PUSH2 0xE02 JUMPI PUSH2 0x100 DUP1 DUP4 SLOAD DIV MUL DUP4 MSTORE SWAP2 PUSH1 0x20 ADD SWAP2 PUSH2 0xE2D JUMP JUMPDEST DUP3 ADD SWAP2 SWAP1 PUSH1 0x0 MSTORE PUSH1 0x20 PUSH1 0x0 KECCAK256 SWAP1 JUMPDEST DUP2 SLOAD DUP2 MSTORE SWAP1 PUSH1 0x1 ADD SWAP1 PUSH1 0x20 ADD DUP1 DUP4 GT PUSH2 0xE10 JUMPI DUP3 SWAP1 SUB PUSH1 0x1F AND DUP3 ADD SWAP2 JUMPDEST POP POP POP POP POP SWAP1 POP PUSH2 0xEC7 JUMP JUMPDEST PUSH1 0xB DUP1 SLOAD PUSH2 0xE46 SWAP1 PUSH2 0x2410 JUMP JUMPDEST DUP1 PUSH1 0x1F ADD PUSH1 0x20 DUP1 SWAP2 DIV MUL PUSH1 0x20 ADD PUSH1 0x40 MLOAD SWAP1 DUP2 ADD PUSH1 0x40 MSTORE DUP1 SWAP3 SWAP2 SWAP1 DUP2 DUP2 MSTORE PUSH1 0x20 ADD DUP3 DUP1 SLOAD PUSH2 0xE72 SWAP1 PUSH2 0x2410 JUMP JUMPDEST DUP1 ISZERO PUSH2 0xEBF JUMPI DUP1 PUSH1 0x1F LT PUSH2 0xE94 JUMPI PUSH2 0x100 DUP1 DUP4 SLOAD DIV MUL DUP4 MSTORE SWAP2 PUSH1 0x20 ADD SWAP2 PUSH2 0xEBF JUMP JUMPDEST DUP3 ADD SWAP2 SWAP1 PUSH1 0x0 MSTORE PUSH1 0x20 PUSH1 0x0 KECCAK256 SWAP1 JUMPDEST DUP2 SLOAD DUP2 MSTORE SWAP1 PUSH1 0x1 ADD SWAP1 PUSH1 0x20 ADD DUP1 DUP4 GT PUSH2 0xEA2 JUMPI DUP3 SWAP1 SUB PUSH1 0x1F AND DUP3 ADD SWAP2 JUMPDEST POP POP POP POP POP SWAP1 POP JUMPDEST PUSH2 0xFB8 PUSH2 0xF5D PUSH1 0xA DUP1 SLOAD PUSH2 0xEDA SWAP1 PUSH2 0x2410 JUMP JUMPDEST DUP1 PUSH1 0x1F ADD PUSH1 0x20 DUP1 SWAP2 DIV MUL PUSH1 0x20 ADD PUSH1 0x40 MLOAD SWAP1 DUP2 ADD PUSH1 0x40 MSTORE DUP1 SWAP3 SWAP2 SWAP1 DUP2 DUP2 MSTORE PUSH1 0x20 ADD DUP3 DUP1 SLOAD PUSH2 0xF06 SWAP1 PUSH2 0x2410 JUMP JUMPDEST DUP1 ISZERO PUSH2 0xF53 JUMPI DUP1 PUSH1 0x1F LT PUSH2 0xF28 JUMPI PUSH2 0x100 DUP1 DUP4 SLOAD DIV MUL DUP4 MSTORE SWAP2 PUSH1 0x20 ADD SWAP2 PUSH2 0xF53 JUMP JUMPDEST DUP3 ADD SWAP2 SWAP1 PUSH1 0x0 MSTORE PUSH1 0x20 PUSH1 0x0 KECCAK256 SWAP1 JUMPDEST DUP2 SLOAD DUP2 MSTORE SWAP1 PUSH1 0x1 ADD SWAP1 PUSH1 0x20 ADD DUP1 DUP4 GT PUSH2 0xF36 JUMPI DUP3 SWAP1 SUB PUSH1 0x1F AND DUP3 ADD SWAP2 JUMPDEST POP POP POP POP POP PUSH2 0x171B JUMP JUMPDEST PUSH2 0xF66 DUP7 PUSH2 0x1856 JUMP JUMPDEST PUSH2 0xF76 PUSH1 0xA DUP1 SLOAD PUSH2 0xEDA SWAP1 PUSH2 0x2410 JUMP JUMPDEST PUSH1 0x0 DUP6 MLOAD GT PUSH2 0xF8F JUMPI PUSH2 0xF8A PUSH1 0xF SLOAD PUSH2 0x18E8 JUMP JUMPDEST PUSH2 0xF91 JUMP JUMPDEST DUP5 JUMPDEST PUSH1 0x40 MLOAD PUSH1 0x20 ADD PUSH2 0xFA4 SWAP5 SWAP4 SWAP3 SWAP2 SWAP1 PUSH2 0x25B2 JUMP JUMPDEST PUSH1 0x40 MLOAD PUSH1 0x20 DUP2 DUP4 SUB SUB DUP2 MSTORE SWAP1 PUSH1 0x40 MSTORE PUSH2 0x1932 JUMP JUMPDEST PUSH1 0x40 MLOAD PUSH1 0x20 ADD PUSH2 0xFC8 SWAP2 SWAP1 PUSH2 0x267C JUMP JUMPDEST PUSH1 0x40 MLOAD PUSH1 0x20 DUP2 DUP4 SUB SUB DUP2 MSTORE SWAP1 PUSH1 0x40 MSTORE SWAP3 POP POP POP SWAP2 SWAP1 POP JUMP JUMPDEST PUSH1 0x60 PUSH1 0x0 PUSH1 0x10 DUP1 SLOAD PUSH2 0xFF1 SWAP1 PUSH2 0x2410 JUMP JUMPDEST SWAP1 POP GT ISZERO PUSH2 0x1006 JUMPI PUSH1 0x10 DUP1 SLOAD PUSH2 0x614 SWAP1 PUSH2 0x2410 JUMP JUMPDEST PUSH1 0x0 PUSH2 0x1018 PUSH1 0xA DUP1 SLOAD PUSH2 0xEDA SWAP1 PUSH2 0x2410 JUMP JUMPDEST PUSH2 0x1028 PUSH1 0xA DUP1 SLOAD PUSH2 0xEDA SWAP1 PUSH2 0x2410 JUMP JUMPDEST PUSH1 0x0 PUSH1 0xB DUP1 SLOAD PUSH2 0x1037 SWAP1 PUSH2 0x2410 JUMP JUMPDEST SWAP1 POP GT PUSH2 0x104E JUMPI PUSH2 0x1049 PUSH1 0xF SLOAD PUSH2 0x18E8 JUMP JUMPDEST PUSH2 0x10DA JUMP JUMPDEST PUSH1 0xB DUP1 SLOAD PUSH2 0x105B SWAP1 PUSH2 0x2410 JUMP JUMPDEST DUP1 PUSH1 0x1F ADD PUSH1 0x20 DUP1 SWAP2 DIV MUL PUSH1 0x20 ADD PUSH1 0x40 MLOAD SWAP1 DUP2 ADD PUSH1 0x40 MSTORE DUP1 SWAP3 SWAP2 SWAP1 DUP2 DUP2 MSTORE PUSH1 0x20 ADD DUP3 DUP1 SLOAD PUSH2 0x1087 SWAP1 PUSH2 0x2410 JUMP JUMPDEST DUP1 ISZERO PUSH2 0x10D4 JUMPI DUP1 PUSH1 0x1F LT PUSH2 0x10A9 JUMPI PUSH2 0x100 DUP1 DUP4 SLOAD DIV MUL DUP4 MSTORE SWAP2 PUSH1 0x20 ADD SWAP2 PUSH2 0x10D4 JUMP JUMPDEST DUP3 ADD SWAP2 SWAP1 PUSH1 0x0 MSTORE PUSH1 0x20 PUSH1 0x0 KECCAK256 SWAP1 JUMPDEST DUP2 SLOAD DUP2 MSTORE SWAP1 PUSH1 0x1 ADD SWAP1 PUSH1 0x20 ADD DUP1 DUP4 GT PUSH2 0x10B7 JUMPI DUP3 SWAP1 SUB PUSH1 0x1F AND DUP3 ADD SWAP2 JUMPDEST POP POP POP POP POP JUMPDEST PUSH1 0x0 PUSH1 0x11 DUP1 SLOAD PUSH2 0x10E9 SWAP1 PUSH2 0x2410 JUMP JUMPDEST SWAP1 POP GT PUSH2 0x11A6 JUMPI PUSH1 0x0 PUSH1 0xB DUP1 SLOAD PUSH2 0x10FF SWAP1 PUSH2 0x2410 JUMP JUMPDEST SWAP1 POP GT PUSH2 0x1116 JUMPI PUSH2 0x1111 PUSH1 0xF SLOAD PUSH2 0x18E8 JUMP JUMPDEST PUSH2 0x1232 JUMP JUMPDEST PUSH1 0xB DUP1 SLOAD PUSH2 0x1123 SWAP1 PUSH2 0x2410 JUMP JUMPDEST DUP1 PUSH1 0x1F ADD PUSH1 0x20 DUP1 SWAP2 DIV MUL PUSH1 0x20 ADD PUSH1 0x40 MLOAD SWAP1 DUP2 ADD PUSH1 0x40 MSTORE DUP1 SWAP3 SWAP2 SWAP1 DUP2 DUP2 MSTORE PUSH1 0x20 ADD DUP3 DUP1 SLOAD PUSH2 0x114F SWAP1 PUSH2 0x2410 JUMP JUMPDEST DUP1 ISZERO PUSH2 0x119C JUMPI DUP1 PUSH1 0x1F LT PUSH2 0x1171 JUMPI PUSH2 0x100 DUP1 DUP4 SLOAD DIV MUL DUP4 MSTORE SWAP2 PUSH1 0x20 ADD SWAP2 PUSH2 0x119C JUMP JUMPDEST DUP3 ADD SWAP2 SWAP1 PUSH1 0x0 MSTORE PUSH1 0x20 PUSH1 0x0 KECCAK256 SWAP1 JUMPDEST DUP2 SLOAD DUP2 MSTORE SWAP1 PUSH1 0x1 ADD SWAP1 PUSH1 0x20 ADD DUP1 DUP4 GT PUSH2 0x117F JUMPI DUP3 SWAP1 SUB PUSH1 0x1F AND DUP3 ADD SWAP2 JUMPDEST POP POP POP POP POP PUSH2 0x1232 JUMP JUMPDEST PUSH1 0x11 DUP1 SLOAD PUSH2 0x11B3 SWAP1 PUSH2 0x2410 JUMP JUMPDEST DUP1 PUSH1 0x1F ADD PUSH1 0x20 DUP1 SWAP2 DIV MUL PUSH1 0x20 ADD PUSH1 0x40 MLOAD SWAP1 DUP2 ADD PUSH1 0x40 MSTORE DUP1 SWAP3 SWAP2 SWAP1 DUP2 DUP2 MSTORE PUSH1 0x20 ADD DUP3 DUP1 SLOAD PUSH2 0x11DF SWAP1 PUSH2 0x2410 JUMP JUMPDEST DUP1 ISZERO PUSH2 0x122C JUMPI DUP1 PUSH1 0x1F LT PUSH2 0x1201 JUMPI PUSH2 0x100 DUP1 DUP4 SLOAD DIV MUL DUP4 MSTORE SWAP2 PUSH1 0x20 ADD SWAP2 PUSH2 0x122C JUMP JUMPDEST DUP3 ADD SWAP2 SWAP1 PUSH1 0x0 MSTORE PUSH1 0x20 PUSH1 0x0 KECCAK256 SWAP1 JUMPDEST DUP2 SLOAD DUP2 MSTORE SWAP1 PUSH1 0x1 ADD SWAP1 PUSH1 0x20 ADD DUP1 DUP4 GT PUSH2 0x120F JUMPI DUP3 SWAP1 SUB PUSH1 0x1F AND DUP3 ADD SWAP2 JUMPDEST POP POP POP POP POP JUMPDEST PUSH1 0x40 MLOAD PUSH1 0x20 ADD PUSH2 0x1245 SWAP5 SWAP4 SWAP3 SWAP2 SWAP1 PUSH2 0x26C1 JUMP JUMPDEST PUSH1 0x40 MLOAD PUSH1 0x20 DUP2 DUP4 SUB SUB DUP2 MSTORE SWAP1 PUSH1 0x40 MSTORE SWAP1 POP PUSH2 0x125F DUP2 PUSH2 0x1932 JUMP JUMPDEST PUSH1 0x40 MLOAD PUSH1 0x20 ADD PUSH2 0x126F SWAP2 SWAP1 PUSH2 0x267C JUMP JUMPDEST PUSH1 0x40 MLOAD PUSH1 0x20 DUP2 DUP4 SUB SUB DUP2 MSTORE SWAP1 PUSH1 0x40 MSTORE SWAP2 POP POP SWAP1 JUMP JUMPDEST PUSH1 0x1 PUSH1 0x1 PUSH1 0xA0 SHL SUB SWAP2 DUP3 AND PUSH1 0x0 SWAP1 DUP2 MSTORE PUSH1 0x7 PUSH1 0x20 SWAP1 DUP2 MSTORE PUSH1 0x40 DUP1 DUP4 KECCAK256 SWAP4 SWAP1 SWAP5 AND DUP3 MSTORE SWAP2 SWAP1 SWAP2 MSTORE KECCAK256 SLOAD PUSH1 0xFF AND SWAP1 JUMP JUMPDEST PUSH2 0x12BA PUSH2 0x14CD JUMP JUMPDEST PUSH1 0x1 PUSH1 0x1 PUSH1 0xA0 SHL SUB DUP2 AND PUSH2 0x131F JUMPI PUSH1 0x40 MLOAD PUSH3 0x461BCD PUSH1 0xE5 SHL DUP2 MSTORE PUSH1 0x20 PUSH1 0x4 DUP3 ADD MSTORE PUSH1 0x26 PUSH1 0x24 DUP3 ADD MSTORE PUSH32 0x4F776E61626C653A206E6577206F776E657220697320746865207A65726F2061 PUSH1 0x44 DUP3 ADD MSTORE PUSH6 0x646472657373 PUSH1 0xD0 SHL PUSH1 0x64 DUP3 ADD MSTORE PUSH1 0x84 ADD PUSH2 0x94A JUMP JUMPDEST PUSH2 0x1328 DUP2 PUSH2 0x15E6 JUMP JUMPDEST POP JUMP JUMPDEST PUSH1 0xE DUP1 SLOAD PUSH2 0x874 SWAP1 PUSH2 0x2410 JUMP JUMPDEST PUSH1 0xD DUP1 SLOAD PUSH2 0x874 SWAP1 PUSH2 0x2410 JUMP JUMPDEST PUSH1 0x0 DUP1 SLOAD DUP3 LT ISZERO PUSH2 0x1385 JUMPI PUSH1 0x0 JUMPDEST POP PUSH1 0x0 DUP3 DUP2 MSTORE PUSH1 0x4 PUSH1 0x20 MSTORE PUSH1 0x40 DUP2 KECCAK256 SLOAD SWAP1 DUP2 SWAP1 SUB PUSH2 0x137B JUMPI PUSH2 0x1374 DUP4 PUSH2 0x27C2 JUMP JUMPDEST SWAP3 POP PUSH2 0x1353 JUMP JUMPDEST PUSH1 0x1 PUSH1 0xE0 SHL AND ISZERO SWAP1 POP JUMPDEST SWAP2 SWAP1 POP JUMP JUMPDEST DUP1 PUSH1 0x0 MSTORE PUSH1 0x4 PUSH1 0x0 REVERT JUMPDEST PUSH1 0x0 PUSH2 0x139F DUP4 PUSH2 0xA7C JUMP JUMPDEST SWAP1 POP DUP2 DUP1 ISZERO PUSH2 0x13B7 JUMPI POP CALLER PUSH1 0x1 PUSH1 0x1 PUSH1 0xA0 SHL SUB DUP3 AND EQ ISZERO JUMPDEST ISZERO PUSH2 0x13DA JUMPI PUSH2 0x13C6 DUP2 CALLER PUSH2 0x1284 JUMP JUMPDEST PUSH2 0x13DA JUMPI PUSH2 0x13DA PUSH4 0x67D9DCA1 PUSH1 0xE1 SHL PUSH2 0x138A JUMP JUMPDEST PUSH1 0x0 DUP4 DUP2 MSTORE PUSH1 0x6 PUSH1 0x20 MSTORE PUSH1 0x40 DUP1 DUP3 KECCAK256 DUP1 SLOAD PUSH1 0x1 PUSH1 0x1 PUSH1 0xA0 SHL SUB NOT AND PUSH1 0x1 PUSH1 0x1 PUSH1 0xA0 SHL SUB DUP9 DUP2 AND SWAP2 DUP3 OR SWAP1 SWAP3 SSTORE SWAP2 MLOAD DUP7 SWAP4 SWAP2 DUP6 AND SWAP2 PUSH32 0x8C5BE1E5EBEC7D5BD14F71427D1E84F3DD0314C0F7B2291E5B200AC8C7C3B925 SWAP2 LOG4 POP POP POP POP JUMP JUMPDEST PUSH1 0x0 DUP2 DUP2 MSTORE PUSH1 0x4 PUSH1 0x20 MSTORE PUSH1 0x40 SWAP1 KECCAK256 SLOAD DUP1 PUSH1 0x0 SUB PUSH2 0x14AA JUMPI PUSH1 0x0 SLOAD DUP3 LT PUSH2 0x1467 JUMPI PUSH2 0x1467 PUSH4 0x6F96CDA1 PUSH1 0xE1 SHL PUSH2 0x138A JUMP JUMPDEST JUMPDEST POP PUSH1 0x0 NOT ADD PUSH1 0x0 DUP2 DUP2 MSTORE PUSH1 0x4 PUSH1 0x20 MSTORE PUSH1 0x40 SWAP1 KECCAK256 SLOAD DUP1 ISZERO PUSH2 0x1468 JUMPI PUSH1 0x1 PUSH1 0xE0 SHL DUP2 AND PUSH1 0x0 SUB PUSH2 0x1495 JUMPI SWAP2 SWAP1 POP JUMP JUMPDEST PUSH2 0x14A5 PUSH4 0x6F96CDA1 PUSH1 0xE1 SHL PUSH2 0x138A JUMP JUMPDEST PUSH2 0x1468 JUMP JUMPDEST PUSH1 0x1 PUSH1 0xE0 SHL DUP2 AND PUSH1 0x0 SUB PUSH2 0x14BD JUMPI SWAP2 SWAP1 POP JUMP JUMPDEST PUSH2 0x1385 PUSH4 0x6F96CDA1 PUSH1 0xE1 SHL PUSH2 0x138A JUMP JUMPDEST PUSH1 0x9 SLOAD PUSH1 0x1 PUSH1 0x1 PUSH1 0xA0 SHL SUB AND CALLER EQ PUSH2 0xAF8 JUMPI PUSH1 0x40 MLOAD PUSH3 0x461BCD PUSH1 0xE5 SHL DUP2 MSTORE PUSH1 0x20 PUSH1 0x4 DUP3 ADD DUP2 SWAP1 MSTORE PUSH1 0x24 DUP3 ADD MSTORE PUSH32 0x4F776E61626C653A2063616C6C6572206973206E6F7420746865206F776E6572 PUSH1 0x44 DUP3 ADD MSTORE PUSH1 0x64 ADD PUSH2 0x94A JUMP JUMPDEST PUSH1 0x0 DUP1 SLOAD SWAP1 DUP3 SWAP1 SUB PUSH2 0x1543 JUMPI PUSH2 0x1543 PUSH4 0xB562E8DD PUSH1 0xE0 SHL PUSH2 0x138A JUMP JUMPDEST PUSH1 0x0 DUP2 DUP2 MSTORE PUSH1 0x4 PUSH1 0x20 SWAP1 DUP2 MSTORE PUSH1 0x40 DUP1 DUP4 KECCAK256 PUSH1 0x1 PUSH1 0x1 PUSH1 0xA0 SHL SUB DUP8 AND TIMESTAMP PUSH1 0xA0 SHL PUSH1 0x1 DUP9 EQ PUSH1 0xE1 SHL OR DUP2 OR SWAP1 SWAP2 SSTORE DUP1 DUP5 MSTORE PUSH1 0x5 SWAP1 SWAP3 MSTORE DUP3 KECCAK256 DUP1 SLOAD PUSH9 0x10000000000000001 DUP7 MUL ADD SWAP1 SSTORE SWAP1 DUP2 SWAP1 SUB PUSH2 0x15A1 JUMPI PUSH2 0x15A1 PUSH3 0x2E0763 PUSH1 0xE8 SHL PUSH2 0x138A JUMP JUMPDEST DUP2 DUP4 ADD DUP3 JUMPDEST DUP1 DUP4 PUSH1 0x0 PUSH32 0xDDF252AD1BE2C89B69C2B068FC378DAA952BA7F163C4A11628F55A4DF523B3EF PUSH1 0x0 DUP1 LOG4 DUP2 DUP2 PUSH1 0x1 ADD SWAP2 POP DUP2 SUB PUSH2 0x15A6 JUMPI POP PUSH1 0x0 SSTORE POP POP POP POP JUMP JUMPDEST PUSH1 0x9 DUP1 SLOAD PUSH1 0x1 PUSH1 0x1 PUSH1 0xA0 SHL SUB DUP4 DUP2 AND PUSH1 0x1 PUSH1 0x1 PUSH1 0xA0 SHL SUB NOT DUP4 AND DUP2 OR SWAP1 SWAP4 SSTORE PUSH1 0x40 MLOAD SWAP2 AND SWAP2 SWAP1 DUP3 SWAP1 PUSH32 0x8BE0079C531659141344CD1FD0A4F28419497F9722A3DAAFE3B4186F6B6457E0 SWAP1 PUSH1 0x0 SWAP1 LOG3 POP POP JUMP JUMPDEST PUSH1 0x40 MLOAD PUSH4 0xA85BD01 PUSH1 0xE1 SHL DUP2 MSTORE PUSH1 0x0 SWAP1 PUSH1 0x1 PUSH1 0x1 PUSH1 0xA0 SHL SUB DUP6 AND SWAP1 PUSH4 0x150B7A02 SWAP1 PUSH2 0x166D SWAP1 CALLER SWAP1 DUP10 SWAP1 DUP9 SWAP1 DUP9 SWAP1 PUSH1 0x4 ADD PUSH2 0x27D9 JUMP JUMPDEST PUSH1 0x20 PUSH1 0x40 MLOAD DUP1 DUP4 SUB DUP2 PUSH1 0x0 DUP8 GAS CALL SWAP3 POP POP POP DUP1 ISZERO PUSH2 0x16A8 JUMPI POP PUSH1 0x40 DUP1 MLOAD PUSH1 0x1F RETURNDATASIZE SWAP1 DUP2 ADD PUSH1 0x1F NOT AND DUP3 ADD SWAP1 SWAP3 MSTORE PUSH2 0x16A5 SWAP2 DUP2 ADD SWAP1 PUSH2 0x2816 JUMP JUMPDEST PUSH1 0x1 JUMPDEST PUSH2 0x16FD JUMPI RETURNDATASIZE DUP1 DUP1 ISZERO PUSH2 0x16D6 JUMPI PUSH1 0x40 MLOAD SWAP2 POP PUSH1 0x1F NOT PUSH1 0x3F RETURNDATASIZE ADD AND DUP3 ADD PUSH1 0x40 MSTORE RETURNDATASIZE DUP3 MSTORE RETURNDATASIZE PUSH1 0x0 PUSH1 0x20 DUP5 ADD RETURNDATACOPY PUSH2 0x16DB JUMP JUMPDEST PUSH1 0x60 SWAP2 POP JUMPDEST POP DUP1 MLOAD PUSH1 0x0 SUB PUSH2 0x16F5 JUMPI PUSH2 0x16F5 PUSH4 0x68D2BF6B PUSH1 0xE1 SHL PUSH2 0x138A JUMP JUMPDEST DUP1 MLOAD DUP2 PUSH1 0x20 ADD REVERT JUMPDEST PUSH1 0x1 PUSH1 0x1 PUSH1 0xE0 SHL SUB NOT AND PUSH4 0xA85BD01 PUSH1 0xE1 SHL EQ SWAP1 POP JUMPDEST SWAP5 SWAP4 POP POP POP POP JUMP JUMPDEST PUSH1 0x60 PUSH1 0x0 DUP3 SWAP1 POP PUSH1 0x0 DUP2 MLOAD PUSH1 0x1 PUSH1 0x1 PUSH1 0x40 SHL SUB DUP2 GT ISZERO PUSH2 0x173D JUMPI PUSH2 0x173D PUSH2 0x2015 JUMP JUMPDEST PUSH1 0x40 MLOAD SWAP1 DUP1 DUP3 MSTORE DUP1 PUSH1 0x1F ADD PUSH1 0x1F NOT AND PUSH1 0x20 ADD DUP3 ADD PUSH1 0x40 MSTORE DUP1 ISZERO PUSH2 0x1767 JUMPI PUSH1 0x20 DUP3 ADD DUP2 DUP1 CALLDATASIZE DUP4 CALLDATACOPY ADD SWAP1 POP JUMPDEST POP SWAP1 POP PUSH1 0x0 JUMPDEST DUP3 MLOAD DUP2 LT ISZERO PUSH2 0x184E JUMPI DUP3 DUP2 DUP2 MLOAD DUP2 LT PUSH2 0x1788 JUMPI PUSH2 0x1788 PUSH2 0x2556 JUMP JUMPDEST PUSH1 0x20 ADD ADD MLOAD PUSH1 0xF8 SHR PUSH1 0xF8 SHL DUP3 DUP3 DUP2 MLOAD DUP2 LT PUSH2 0x17A5 JUMPI PUSH2 0x17A5 PUSH2 0x2556 JUMP JUMPDEST PUSH1 0x20 ADD ADD SWAP1 PUSH1 0x1 PUSH1 0x1 PUSH1 0xF8 SHL SUB NOT AND SWAP1 DUP2 PUSH1 0x0 BYTE SWAP1 MSTORE8 POP PUSH1 0x40 DUP1 MLOAD DUP1 DUP3 ADD SWAP1 SWAP2 MSTORE PUSH1 0x1 DUP2 MSTORE PUSH1 0x11 PUSH1 0xF9 SHL PUSH1 0x20 SWAP1 SWAP2 ADD DUP2 SWAP1 MSTORE DUP3 MLOAD DUP4 SWAP1 DUP4 SWAP1 DUP2 LT PUSH2 0x17EB JUMPI PUSH2 0x17EB PUSH2 0x2556 JUMP JUMPDEST ADD PUSH1 0x20 ADD MLOAD PUSH1 0x1 PUSH1 0x1 PUSH1 0xF8 SHL SUB NOT AND SUB PUSH2 0x1846 JUMPI PUSH1 0x40 DUP1 MLOAD DUP1 DUP3 ADD SWAP1 SWAP2 MSTORE PUSH1 0x1 DUP2 MSTORE PUSH1 0x27 PUSH1 0xF8 SHL PUSH1 0x20 SWAP1 SWAP2 ADD DUP2 SWAP1 MSTORE DUP3 MLOAD DUP4 SWAP1 DUP4 SWAP1 DUP2 LT PUSH2 0x182E JUMPI PUSH2 0x182E PUSH2 0x2556 JUMP JUMPDEST PUSH1 0x20 ADD ADD SWAP1 PUSH1 0x1 PUSH1 0x1 PUSH1 0xF8 SHL SUB NOT AND SWAP1 DUP2 PUSH1 0x0 BYTE SWAP1 MSTORE8 POP JUMPDEST PUSH1 0x1 ADD PUSH2 0x176D JUMP JUMPDEST POP SWAP4 SWAP3 POP POP POP JUMP JUMPDEST PUSH1 0x60 PUSH1 0x0 PUSH2 0x1863 DUP4 PUSH2 0x1A91 JUMP JUMPDEST PUSH1 0x1 ADD SWAP1 POP PUSH1 0x0 DUP2 PUSH1 0x1 PUSH1 0x1 PUSH1 0x40 SHL SUB DUP2 GT ISZERO PUSH2 0x1882 JUMPI PUSH2 0x1882 PUSH2 0x2015 JUMP JUMPDEST PUSH1 0x40 MLOAD SWAP1 DUP1 DUP3 MSTORE DUP1 PUSH1 0x1F ADD PUSH1 0x1F NOT AND PUSH1 0x20 ADD DUP3 ADD PUSH1 0x40 MSTORE DUP1 ISZERO PUSH2 0x18AC JUMPI PUSH1 0x20 DUP3 ADD DUP2 DUP1 CALLDATASIZE DUP4 CALLDATACOPY ADD SWAP1 POP JUMPDEST POP SWAP1 POP DUP2 DUP2 ADD PUSH1 0x20 ADD JUMPDEST PUSH1 0x0 NOT ADD PUSH16 0x181899199A1A9B1B9C1CB0B131B232B3 PUSH1 0x81 SHL PUSH1 0xA DUP7 MOD BYTE DUP2 MSTORE8 PUSH1 0xA DUP6 DIV SWAP5 POP DUP5 PUSH2 0x18B6 JUMPI POP SWAP4 SWAP3 POP POP POP JUMP JUMPDEST PUSH1 0x60 PUSH2 0x190C PUSH1 0xE PUSH1 0xD PUSH2 0x18FA DUP6 PUSH2 0x1B69 JUMP JUMPDEST PUSH1 0x40 MLOAD PUSH1 0x20 ADD PUSH2 0xFA4 SWAP4 SWAP3 SWAP2 SWAP1 PUSH2 0x28A5 JUMP JUMPDEST PUSH1 0x40 MLOAD PUSH1 0x20 ADD PUSH2 0x191C SWAP2 SWAP1 PUSH2 0x2A57 JUMP JUMPDEST PUSH1 0x40 MLOAD PUSH1 0x20 DUP2 DUP4 SUB SUB DUP2 MSTORE SWAP1 PUSH1 0x40 MSTORE SWAP1 POP SWAP2 SWAP1 POP JUMP JUMPDEST PUSH1 0x60 DUP2 MLOAD PUSH1 0x0 SUB PUSH2 0x1951 JUMPI POP POP PUSH1 0x40 DUP1 MLOAD PUSH1 0x20 DUP2 ADD SWAP1 SWAP2 MSTORE PUSH1 0x0 DUP2 MSTORE SWAP1 JUMP JUMPDEST PUSH1 0x0 PUSH1 0x40 MLOAD DUP1 PUSH1 0x60 ADD PUSH1 0x40 MSTORE DUP1 PUSH1 0x40 DUP2 MSTORE PUSH1 0x20 ADD PUSH2 0x2B4D PUSH1 0x40 SWAP2 CODECOPY SWAP1 POP PUSH1 0x0 PUSH1 0x3 DUP5 MLOAD PUSH1 0x2 PUSH2 0x1980 SWAP2 SWAP1 PUSH2 0x2A9C JUMP JUMPDEST PUSH2 0x198A SWAP2 SWAP1 PUSH2 0x2AAF JUMP JUMPDEST PUSH2 0x1995 SWAP1 PUSH1 0x4 PUSH2 0x2AC3 JUMP JUMPDEST PUSH1 0x1 PUSH1 0x1 PUSH1 0x40 SHL SUB DUP2 GT ISZERO PUSH2 0x19AC JUMPI PUSH2 0x19AC PUSH2 0x2015 JUMP JUMPDEST PUSH1 0x40 MLOAD SWAP1 DUP1 DUP3 MSTORE DUP1 PUSH1 0x1F ADD PUSH1 0x1F NOT AND PUSH1 0x20 ADD DUP3 ADD PUSH1 0x40 MSTORE DUP1 ISZERO PUSH2 0x19D6 JUMPI PUSH1 0x20 DUP3 ADD DUP2 DUP1 CALLDATASIZE DUP4 CALLDATACOPY ADD SWAP1 POP JUMPDEST POP SWAP1 POP PUSH1 0x1 DUP3 ADD PUSH1 0x20 DUP3 ADD DUP6 DUP7 MLOAD DUP8 ADD PUSH1 0x20 DUP2 ADD DUP1 MLOAD PUSH1 0x0 DUP3 MSTORE JUMPDEST DUP3 DUP5 LT ISZERO PUSH2 0x1A4C JUMPI PUSH1 0x3 DUP5 ADD SWAP4 POP DUP4 MLOAD PUSH1 0x3F DUP2 PUSH1 0x12 SHR AND DUP8 ADD MLOAD DUP7 MSTORE8 PUSH1 0x1 DUP7 ADD SWAP6 POP PUSH1 0x3F DUP2 PUSH1 0xC SHR AND DUP8 ADD MLOAD DUP7 MSTORE8 PUSH1 0x1 DUP7 ADD SWAP6 POP PUSH1 0x3F DUP2 PUSH1 0x6 SHR AND DUP8 ADD MLOAD DUP7 MSTORE8 PUSH1 0x1 DUP7 ADD SWAP6 POP PUSH1 0x3F DUP2 AND DUP8 ADD MLOAD DUP7 MSTORE8 POP PUSH1 0x1 DUP6 ADD SWAP5 POP PUSH2 0x19F1 JUMP JUMPDEST SWAP1 MSTORE POP POP DUP6 MLOAD PUSH1 0x3 SWAP1 MOD PUSH1 0x1 DUP2 EQ PUSH2 0x1A6B JUMPI PUSH1 0x2 DUP2 EQ PUSH2 0x1A7E JUMPI PUSH2 0x1A86 JUMP JUMPDEST PUSH1 0x3D PUSH1 0x1 DUP4 SUB MSTORE8 PUSH1 0x3D PUSH1 0x2 DUP4 SUB MSTORE8 PUSH2 0x1A86 JUMP JUMPDEST PUSH1 0x3D PUSH1 0x1 DUP4 SUB MSTORE8 JUMPDEST POP SWAP2 SWAP6 SWAP5 POP POP POP POP POP JUMP JUMPDEST PUSH1 0x0 DUP1 PUSH19 0x184F03E93FF9F4DAA797ED6E38ED64BF6A1F01 PUSH1 0x40 SHL DUP4 LT PUSH2 0x1AD0 JUMPI PUSH19 0x184F03E93FF9F4DAA797ED6E38ED64BF6A1F01 PUSH1 0x40 SHL DUP4 DIV SWAP3 POP PUSH1 0x40 ADD JUMPDEST PUSH14 0x4EE2D6D415B85ACEF8100000000 DUP4 LT PUSH2 0x1AFC JUMPI PUSH14 0x4EE2D6D415B85ACEF8100000000 DUP4 DIV SWAP3 POP PUSH1 0x20 ADD JUMPDEST PUSH7 0x2386F26FC10000 DUP4 LT PUSH2 0x1B1A JUMPI PUSH7 0x2386F26FC10000 DUP4 DIV SWAP3 POP PUSH1 0x10 ADD JUMPDEST PUSH4 0x5F5E100 DUP4 LT PUSH2 0x1B32 JUMPI PUSH4 0x5F5E100 DUP4 DIV SWAP3 POP PUSH1 0x8 ADD JUMPDEST PUSH2 0x2710 DUP4 LT PUSH2 0x1B46 JUMPI PUSH2 0x2710 DUP4 DIV SWAP3 POP PUSH1 0x4 ADD JUMPDEST PUSH1 0x64 DUP4 LT PUSH2 0x1B58 JUMPI PUSH1 0x64 DUP4 DIV SWAP3 POP PUSH1 0x2 ADD JUMPDEST PUSH1 0xA DUP4 LT PUSH2 0x5FF JUMPI PUSH1 0x1 ADD SWAP3 SWAP2 POP POP JUMP JUMPDEST PUSH1 0x60 PUSH3 0x15180 PUSH1 0x0 PUSH2 0x1B7B DUP3 DUP6 PUSH2 0x2AAF JUMP JUMPDEST SWAP1 POP PUSH2 0x7B2 PUSH2 0x16D JUMPDEST DUP1 DUP4 LT PUSH2 0x1BFF JUMPI PUSH2 0x1B96 PUSH1 0x4 DUP4 PUSH2 0x2582 JUMP JUMPDEST ISZERO DUP1 ISZERO PUSH2 0x1BAC JUMPI POP PUSH2 0x1BA9 PUSH1 0x64 DUP4 PUSH2 0x2582 JUMP JUMPDEST ISZERO ISZERO JUMPDEST DUP1 PUSH2 0x1BC0 JUMPI POP PUSH2 0x1BBE PUSH2 0x190 DUP4 PUSH2 0x2582 JUMP JUMPDEST ISZERO JUMPDEST ISZERO PUSH2 0x1BF3 JUMPI PUSH2 0x16E DUP4 LT PUSH2 0x1BEE JUMPI PUSH2 0x1BDA PUSH2 0x16E DUP5 PUSH2 0x2ADA JUMP JUMPDEST SWAP3 POP PUSH2 0x1BE7 PUSH1 0x1 DUP4 PUSH2 0x2A9C JUMP JUMPDEST SWAP2 POP PUSH2 0x1B84 JUMP JUMPDEST PUSH2 0x1BFF JUMP JUMPDEST PUSH2 0x1BDA PUSH2 0x16D DUP5 PUSH2 0x2ADA JUMP JUMPDEST PUSH1 0x40 DUP1 MLOAD PUSH2 0x180 DUP2 ADD DUP3 MSTORE PUSH1 0x1F DUP1 DUP3 MSTORE PUSH1 0x1C PUSH1 0x20 DUP4 ADD MSTORE SWAP2 DUP2 ADD DUP3 SWAP1 MSTORE PUSH1 0x1E PUSH1 0x60 DUP3 ADD DUP2 SWAP1 MSTORE PUSH1 0x80 DUP3 ADD DUP4 SWAP1 MSTORE PUSH1 0xA0 DUP3 ADD DUP2 SWAP1 MSTORE PUSH1 0xC0 DUP3 ADD DUP4 SWAP1 MSTORE PUSH1 0xE0 DUP3 ADD DUP4 SWAP1 MSTORE PUSH2 0x100 DUP3 ADD DUP2 SWAP1 MSTORE PUSH2 0x120 DUP3 ADD DUP4 SWAP1 MSTORE PUSH2 0x140 DUP3 ADD MSTORE PUSH2 0x160 DUP2 ADD SWAP2 SWAP1 SWAP2 MSTORE PUSH2 0x1C6B PUSH1 0x4 DUP5 PUSH2 0x2582 JUMP JUMPDEST ISZERO DUP1 ISZERO PUSH2 0x1C81 JUMPI POP PUSH2 0x1C7E PUSH1 0x64 DUP5 PUSH2 0x2582 JUMP JUMPDEST ISZERO ISZERO JUMPDEST DUP1 PUSH2 0x1C95 JUMPI POP PUSH2 0x1C93 PUSH2 0x190 DUP5 PUSH2 0x2582 JUMP JUMPDEST ISZERO JUMPDEST ISZERO PUSH2 0x1CA2 JUMPI PUSH1 0x1D PUSH1 0x20 DUP3 ADD MSTORE JUMPDEST PUSH1 0x0 JUMPDEST PUSH1 0xC DUP2 LT DUP1 ISZERO PUSH2 0x1CCE JUMPI POP DUP2 DUP2 PUSH1 0xC DUP2 LT PUSH2 0x1CC2 JUMPI PUSH2 0x1CC2 PUSH2 0x2556 JUMP JUMPDEST PUSH1 0x20 MUL ADD MLOAD PUSH1 0xFF AND DUP6 LT ISZERO JUMPDEST ISZERO PUSH2 0x1D0B JUMPI DUP2 DUP2 PUSH1 0xC DUP2 LT PUSH2 0x1CE5 JUMPI PUSH2 0x1CE5 PUSH2 0x2556 JUMP JUMPDEST PUSH1 0x20 MUL ADD MLOAD PUSH2 0x1CF7 SWAP1 PUSH1 0xFF AND DUP7 PUSH2 0x2ADA JUMP JUMPDEST SWAP5 POP PUSH2 0x1D04 PUSH1 0x1 DUP3 PUSH2 0x2A9C JUMP JUMPDEST SWAP1 POP PUSH2 0x1CA5 JUMP JUMPDEST PUSH2 0x1D16 PUSH1 0x1 DUP3 PUSH2 0x2A9C JUMP JUMPDEST SWAP1 POP PUSH1 0x0 PUSH2 0x1D25 DUP7 PUSH1 0x1 PUSH2 0x2A9C JUMP JUMPDEST PUSH1 0x40 DUP1 MLOAD PUSH2 0x1C0 DUP2 ADD DUP3 MSTORE PUSH1 0x3 PUSH2 0x180 DUP3 ADD DUP2 DUP2 MSTORE PUSH3 0x2520A7 PUSH1 0xE9 SHL PUSH2 0x1A0 DUP5 ADD MSTORE DUP3 MSTORE DUP3 MLOAD DUP1 DUP5 ADD DUP5 MSTORE DUP2 DUP2 MSTORE PUSH3 0x2322A1 PUSH1 0xE9 SHL PUSH1 0x20 DUP3 DUP2 ADD SWAP2 SWAP1 SWAP2 MSTORE DUP1 DUP5 ADD SWAP2 SWAP1 SWAP2 MSTORE DUP4 MLOAD DUP1 DUP6 ADD DUP6 MSTORE DUP3 DUP2 MSTORE PUSH3 0x26A0A9 PUSH1 0xE9 SHL DUP2 DUP4 ADD MSTORE DUP4 DUP6 ADD MSTORE DUP4 MLOAD DUP1 DUP6 ADD DUP6 MSTORE DUP3 DUP2 MSTORE PUSH3 0x20A829 PUSH1 0xE9 SHL DUP2 DUP4 ADD MSTORE PUSH1 0x60 DUP5 ADD MSTORE DUP4 MLOAD DUP1 DUP6 ADD DUP6 MSTORE DUP3 DUP2 MSTORE PUSH3 0x4D4159 PUSH1 0xE8 SHL DUP2 DUP4 ADD MSTORE PUSH1 0x80 DUP5 ADD MSTORE DUP4 MLOAD DUP1 DUP6 ADD DUP6 MSTORE DUP3 DUP2 MSTORE PUSH3 0x252AA7 PUSH1 0xE9 SHL DUP2 DUP4 ADD MSTORE PUSH1 0xA0 DUP5 ADD MSTORE DUP4 MLOAD DUP1 DUP6 ADD DUP6 MSTORE DUP3 DUP2 MSTORE PUSH3 0x129553 PUSH1 0xEA SHL DUP2 DUP4 ADD MSTORE PUSH1 0xC0 DUP5 ADD MSTORE DUP4 MLOAD DUP1 DUP6 ADD DUP6 MSTORE DUP3 DUP2 MSTORE PUSH3 0x415547 PUSH1 0xE8 SHL DUP2 DUP4 ADD MSTORE PUSH1 0xE0 DUP5 ADD MSTORE DUP4 MLOAD DUP1 DUP6 ADD DUP6 MSTORE DUP3 DUP2 MSTORE PUSH3 0x53455 PUSH1 0xEC SHL DUP2 DUP4 ADD MSTORE PUSH2 0x100 DUP5 ADD MSTORE DUP4 MLOAD DUP1 DUP6 ADD DUP6 MSTORE DUP3 DUP2 MSTORE PUSH3 0x13D0D5 PUSH1 0xEA SHL DUP2 DUP4 ADD MSTORE PUSH2 0x120 DUP5 ADD MSTORE DUP4 MLOAD DUP1 DUP6 ADD DUP6 MSTORE DUP3 DUP2 MSTORE PUSH3 0x2727AB PUSH1 0xE9 SHL DUP2 DUP4 ADD MSTORE PUSH2 0x140 DUP5 ADD MSTORE DUP4 MLOAD DUP1 DUP6 ADD SWAP1 SWAP5 MSTORE SWAP1 DUP4 MSTORE PUSH3 0x444543 PUSH1 0xE8 SHL SWAP1 DUP4 ADD MSTORE PUSH2 0x160 DUP2 ADD SWAP2 SWAP1 SWAP2 MSTORE SWAP1 SWAP2 POP PUSH1 0x0 DUP2 PUSH2 0x1E86 PUSH1 0x1 DUP7 PUSH2 0x2ADA JUMP JUMPDEST PUSH1 0xC DUP2 LT PUSH2 0x1E96 JUMPI PUSH2 0x1E96 PUSH2 0x2556 JUMP JUMPDEST PUSH1 0x20 MUL ADD MLOAD SWAP1 POP DUP1 PUSH2 0x1EA7 DUP5 PUSH2 0x1856 JUMP JUMPDEST PUSH2 0x1EB0 DUP10 PUSH2 0x1856 JUMP JUMPDEST PUSH1 0x40 MLOAD PUSH1 0x20 ADD PUSH2 0x1EC2 SWAP4 SWAP3 SWAP2 SWAP1 PUSH2 0x2AED JUMP JUMPDEST PUSH1 0x40 MLOAD PUSH1 0x20 DUP2 DUP4 SUB SUB DUP2 MSTORE SWAP1 PUSH1 0x40 MSTORE SWAP10 POP POP POP POP POP POP POP POP POP POP SWAP2 SWAP1 POP JUMP JUMPDEST PUSH1 0x1 PUSH1 0x1 PUSH1 0xE0 SHL SUB NOT DUP2 AND DUP2 EQ PUSH2 0x1328 JUMPI PUSH1 0x0 DUP1 REVERT JUMPDEST PUSH1 0x0 PUSH1 0x20 DUP3 DUP5 SUB SLT ISZERO PUSH2 0x1F09 JUMPI PUSH1 0x0 DUP1 REVERT JUMPDEST DUP2 CALLDATALOAD PUSH2 0x1F14 DUP2 PUSH2 0x1EE1 JUMP JUMPDEST SWAP4 SWAP3 POP POP POP JUMP JUMPDEST PUSH1 0x0 JUMPDEST DUP4 DUP2 LT ISZERO PUSH2 0x1F36 JUMPI DUP2 DUP2 ADD MLOAD DUP4 DUP3 ADD MSTORE PUSH1 0x20 ADD PUSH2 0x1F1E JUMP JUMPDEST POP POP PUSH1 0x0 SWAP2 ADD MSTORE JUMP JUMPDEST PUSH1 0x0 DUP2 MLOAD DUP1 DUP5 MSTORE PUSH2 0x1F57 DUP2 PUSH1 0x20 DUP7 ADD PUSH1 0x20 DUP7 ADD PUSH2 0x1F1B JUMP JUMPDEST PUSH1 0x1F ADD PUSH1 0x1F NOT AND SWAP3 SWAP1 SWAP3 ADD PUSH1 0x20 ADD SWAP3 SWAP2 POP POP JUMP JUMPDEST PUSH1 0x20 DUP2 MSTORE PUSH1 0x0 PUSH2 0x1F14 PUSH1 0x20 DUP4 ADD DUP5 PUSH2 0x1F3F JUMP JUMPDEST PUSH1 0x0 PUSH1 0x20 DUP3 DUP5 SUB SLT ISZERO PUSH2 0x1F90 JUMPI PUSH1 0x0 DUP1 REVERT JUMPDEST POP CALLDATALOAD SWAP2 SWAP1 POP JUMP JUMPDEST DUP1 CALLDATALOAD PUSH1 0x1 PUSH1 0x1 PUSH1 0xA0 SHL SUB DUP2 AND DUP2 EQ PUSH2 0x1385 JUMPI PUSH1 0x0 DUP1 REVERT JUMPDEST PUSH1 0x0 DUP1 PUSH1 0x40 DUP4 DUP6 SUB SLT ISZERO PUSH2 0x1FC1 JUMPI PUSH1 0x0 DUP1 REVERT JUMPDEST PUSH2 0x1FCA DUP4 PUSH2 0x1F97 JUMP JUMPDEST SWAP5 PUSH1 0x20 SWAP4 SWAP1 SWAP4 ADD CALLDATALOAD SWAP4 POP POP POP JUMP JUMPDEST PUSH1 0x0 DUP1 PUSH1 0x0 PUSH1 0x60 DUP5 DUP7 SUB SLT ISZERO PUSH2 0x1FED JUMPI PUSH1 0x0 DUP1 REVERT JUMPDEST PUSH2 0x1FF6 DUP5 PUSH2 0x1F97 JUMP JUMPDEST SWAP3 POP PUSH2 0x2004 PUSH1 0x20 DUP6 ADD PUSH2 0x1F97 JUMP JUMPDEST SWAP3 SWAP6 SWAP3 SWAP5 POP POP POP PUSH1 0x40 SWAP2 SWAP1 SWAP2 ADD CALLDATALOAD SWAP1 JUMP JUMPDEST PUSH4 0x4E487B71 PUSH1 0xE0 SHL PUSH1 0x0 MSTORE PUSH1 0x41 PUSH1 0x4 MSTORE PUSH1 0x24 PUSH1 0x0 REVERT JUMPDEST PUSH1 0x40 MLOAD PUSH1 0x1F DUP3 ADD PUSH1 0x1F NOT AND DUP2 ADD PUSH1 0x1 PUSH1 0x1 PUSH1 0x40 SHL SUB DUP2 GT DUP3 DUP3 LT OR ISZERO PUSH2 0x2053 JUMPI PUSH2 0x2053 PUSH2 0x2015 JUMP JUMPDEST PUSH1 0x40 MSTORE SWAP2 SWAP1 POP JUMP JUMPDEST PUSH1 0x0 DUP1 PUSH1 0x1 PUSH1 0x1 PUSH1 0x40 SHL SUB DUP5 GT ISZERO PUSH2 0x2075 JUMPI PUSH2 0x2075 PUSH2 0x2015 JUMP JUMPDEST POP PUSH1 0x1F DUP4 ADD PUSH1 0x1F NOT AND PUSH1 0x20 ADD PUSH2 0x208A DUP2 PUSH2 0x202B JUMP JUMPDEST SWAP2 POP POP DUP3 DUP2 MSTORE DUP4 DUP4 DUP4 ADD GT ISZERO PUSH2 0x209F JUMPI PUSH1 0x0 DUP1 REVERT JUMPDEST DUP3 DUP3 PUSH1 0x20 DUP4 ADD CALLDATACOPY PUSH1 0x0 PUSH1 0x20 DUP5 DUP4 ADD ADD MSTORE SWAP4 SWAP3 POP POP POP JUMP JUMPDEST PUSH1 0x0 DUP3 PUSH1 0x1F DUP4 ADD SLT PUSH2 0x20C7 JUMPI PUSH1 0x0 DUP1 REVERT JUMPDEST PUSH2 0x1F14 DUP4 DUP4 CALLDATALOAD PUSH1 0x20 DUP6 ADD PUSH2 0x205B JUMP JUMPDEST PUSH1 0x0 PUSH1 0x20 DUP3 DUP5 SUB SLT ISZERO PUSH2 0x20E8 JUMPI PUSH1 0x0 DUP1 REVERT JUMPDEST DUP2 CALLDATALOAD PUSH1 0x1 PUSH1 0x1 PUSH1 0x40 SHL SUB DUP2 GT ISZERO PUSH2 0x20FE JUMPI PUSH1 0x0 DUP1 REVERT JUMPDEST PUSH2 0x1713 DUP5 DUP3 DUP6 ADD PUSH2 0x20B6 JUMP JUMPDEST PUSH1 0x0 PUSH1 0x1 PUSH1 0x1 PUSH1 0x40 SHL SUB DUP3 GT ISZERO PUSH2 0x2123 JUMPI PUSH2 0x2123 PUSH2 0x2015 JUMP JUMPDEST POP PUSH1 0x5 SHL PUSH1 0x20 ADD SWAP1 JUMP JUMPDEST PUSH1 0x0 DUP3 PUSH1 0x1F DUP4 ADD SLT PUSH2 0x213E JUMPI PUSH1 0x0 DUP1 REVERT JUMPDEST DUP2 CALLDATALOAD PUSH2 0x2151 PUSH2 0x214C DUP3 PUSH2 0x210A JUMP JUMPDEST PUSH2 0x202B JUMP JUMPDEST DUP1 DUP3 DUP3 MSTORE PUSH1 0x20 DUP3 ADD SWAP2 POP PUSH1 0x20 DUP4 PUSH1 0x5 SHL DUP7 ADD ADD SWAP3 POP DUP6 DUP4 GT ISZERO PUSH2 0x2173 JUMPI PUSH1 0x0 DUP1 REVERT JUMPDEST PUSH1 0x20 DUP6 ADD JUMPDEST DUP4 DUP2 LT ISZERO PUSH2 0x21B4 JUMPI DUP1 CALLDATALOAD PUSH1 0x1 PUSH1 0x1 PUSH1 0x40 SHL SUB DUP2 GT ISZERO PUSH2 0x2196 JUMPI PUSH1 0x0 DUP1 REVERT JUMPDEST PUSH2 0x21A5 DUP9 PUSH1 0x20 DUP4 DUP11 ADD ADD PUSH2 0x20B6 JUMP JUMPDEST DUP5 MSTORE POP PUSH1 0x20 SWAP3 DUP4 ADD SWAP3 ADD PUSH2 0x2178 JUMP JUMPDEST POP SWAP6 SWAP5 POP POP POP POP POP JUMP JUMPDEST PUSH1 0x0 DUP1 PUSH1 0x40 DUP4 DUP6 SUB SLT ISZERO PUSH2 0x21D1 JUMPI PUSH1 0x0 DUP1 REVERT JUMPDEST DUP3 CALLDATALOAD PUSH1 0x1 PUSH1 0x1 PUSH1 0x40 SHL SUB DUP2 GT ISZERO PUSH2 0x21E7 JUMPI PUSH1 0x0 DUP1 REVERT JUMPDEST DUP4 ADD PUSH1 0x1F DUP2 ADD DUP6 SGT PUSH2 0x21F8 JUMPI PUSH1 0x0 DUP1 REVERT JUMPDEST DUP1 CALLDATALOAD PUSH2 0x2206 PUSH2 0x214C DUP3 PUSH2 0x210A JUMP JUMPDEST DUP1 DUP3 DUP3 MSTORE PUSH1 0x20 DUP3 ADD SWAP2 POP PUSH1 0x20 DUP4 PUSH1 0x5 SHL DUP6 ADD ADD SWAP3 POP DUP8 DUP4 GT ISZERO PUSH2 0x2228 JUMPI PUSH1 0x0 DUP1 REVERT JUMPDEST PUSH1 0x20 DUP5 ADD SWAP4 POP JUMPDEST DUP3 DUP5 LT ISZERO PUSH2 0x224A JUMPI DUP4 CALLDATALOAD DUP3 MSTORE PUSH1 0x20 SWAP4 DUP5 ADD SWAP4 SWAP1 SWAP2 ADD SWAP1 PUSH2 0x222F JUMP JUMPDEST SWAP5 POP POP POP POP PUSH1 0x20 DUP4 ADD CALLDATALOAD PUSH1 0x1 PUSH1 0x1 PUSH1 0x40 SHL SUB DUP2 GT ISZERO PUSH2 0x2268 JUMPI PUSH1 0x0 DUP1 REVERT JUMPDEST PUSH2 0x2274 DUP6 DUP3 DUP7 ADD PUSH2 0x212D JUMP JUMPDEST SWAP2 POP POP SWAP3 POP SWAP3 SWAP1 POP JUMP JUMPDEST PUSH1 0x0 PUSH1 0x20 DUP3 DUP5 SUB SLT ISZERO PUSH2 0x2290 JUMPI PUSH1 0x0 DUP1 REVERT JUMPDEST PUSH2 0x1F14 DUP3 PUSH2 0x1F97 JUMP JUMPDEST PUSH1 0x0 DUP1 PUSH1 0x40 DUP4 DUP6 SUB SLT ISZERO PUSH2 0x22AC JUMPI PUSH1 0x0 DUP1 REVERT JUMPDEST DUP3 CALLDATALOAD SWAP2 POP PUSH1 0x20 DUP4 ADD CALLDATALOAD PUSH1 0x1 PUSH1 0x1 PUSH1 0x40 SHL SUB DUP2 GT ISZERO PUSH2 0x22C9 JUMPI PUSH1 0x0 DUP1 REVERT JUMPDEST PUSH2 0x2274 DUP6 DUP3 DUP7 ADD PUSH2 0x20B6 JUMP JUMPDEST PUSH1 0x0 DUP1 PUSH1 0x40 DUP4 DUP6 SUB SLT ISZERO PUSH2 0x22E8 JUMPI PUSH1 0x0 DUP1 REVERT JUMPDEST PUSH2 0x22F1 DUP4 PUSH2 0x1F97 JUMP JUMPDEST SWAP2 POP PUSH1 0x20 DUP4 ADD CALLDATALOAD DUP1 ISZERO ISZERO DUP2 EQ PUSH2 0x2306 JUMPI PUSH1 0x0 DUP1 REVERT JUMPDEST DUP1 SWAP2 POP POP SWAP3 POP SWAP3 SWAP1 POP JUMP JUMPDEST PUSH1 0x0 DUP1 PUSH1 0x40 DUP4 DUP6 SUB SLT ISZERO PUSH2 0x2324 JUMPI PUSH1 0x0 DUP1 REVERT JUMPDEST DUP3 CALLDATALOAD PUSH1 0x1 PUSH1 0x1 PUSH1 0x40 SHL SUB DUP2 GT ISZERO PUSH2 0x233A JUMPI PUSH1 0x0 DUP1 REVERT JUMPDEST PUSH2 0x2346 DUP6 DUP3 DUP7 ADD PUSH2 0x20B6 JUMP JUMPDEST SWAP3 POP POP PUSH1 0x20 DUP4 ADD CALLDATALOAD PUSH1 0x1 PUSH1 0x1 PUSH1 0x40 SHL SUB DUP2 GT ISZERO PUSH2 0x22C9 JUMPI PUSH1 0x0 DUP1 REVERT JUMPDEST PUSH1 0x0 DUP1 PUSH1 0x0 DUP1 PUSH1 0x80 DUP6 DUP8 SUB SLT ISZERO PUSH2 0x2378 JUMPI PUSH1 0x0 DUP1 REVERT JUMPDEST PUSH2 0x2381 DUP6 PUSH2 0x1F97 JUMP JUMPDEST SWAP4 POP PUSH2 0x238F PUSH1 0x20 DUP7 ADD PUSH2 0x1F97 JUMP JUMPDEST SWAP3 POP PUSH1 0x40 DUP6 ADD CALLDATALOAD SWAP2 POP PUSH1 0x60 DUP6 ADD CALLDATALOAD PUSH1 0x1 PUSH1 0x1 PUSH1 0x40 SHL SUB DUP2 GT ISZERO PUSH2 0x23B1 JUMPI PUSH1 0x0 DUP1 REVERT JUMPDEST DUP6 ADD PUSH1 0x1F DUP2 ADD DUP8 SGT PUSH2 0x23C2 JUMPI PUSH1 0x0 DUP1 REVERT JUMPDEST PUSH2 0x23D1 DUP8 DUP3 CALLDATALOAD PUSH1 0x20 DUP5 ADD PUSH2 0x205B JUMP JUMPDEST SWAP2 POP POP SWAP3 SWAP6 SWAP2 SWAP5 POP SWAP3 POP JUMP JUMPDEST PUSH1 0x0 DUP1 PUSH1 0x40 DUP4 DUP6 SUB SLT ISZERO PUSH2 0x23F0 JUMPI PUSH1 0x0 DUP1 REVERT JUMPDEST PUSH2 0x23F9 DUP4 PUSH2 0x1F97 JUMP JUMPDEST SWAP2 POP PUSH2 0x2407 PUSH1 0x20 DUP5 ADD PUSH2 0x1F97 JUMP JUMPDEST SWAP1 POP SWAP3 POP SWAP3 SWAP1 POP JUMP JUMPDEST PUSH1 0x1 DUP2 DUP2 SHR SWAP1 DUP3 AND DUP1 PUSH2 0x2424 JUMPI PUSH1 0x7F DUP3 AND SWAP2 POP JUMPDEST PUSH1 0x20 DUP3 LT DUP2 SUB PUSH2 0x2444 JUMPI PUSH4 0x4E487B71 PUSH1 0xE0 SHL PUSH1 0x0 MSTORE PUSH1 0x22 PUSH1 0x4 MSTORE PUSH1 0x24 PUSH1 0x0 REVERT JUMPDEST POP SWAP2 SWAP1 POP JUMP JUMPDEST PUSH1 0x1F DUP3 GT ISZERO PUSH2 0xA1F JUMPI DUP1 PUSH1 0x0 MSTORE PUSH1 0x20 PUSH1 0x0 KECCAK256 PUSH1 0x1F DUP5 ADD PUSH1 0x5 SHR DUP2 ADD PUSH1 0x20 DUP6 LT ISZERO PUSH2 0x2471 JUMPI POP DUP1 JUMPDEST PUSH1 0x1F DUP5 ADD PUSH1 0x5 SHR DUP3 ADD SWAP2 POP JUMPDEST DUP2 DUP2 LT ISZERO PUSH2 0x2491 JUMPI PUSH1 0x0 DUP2 SSTORE PUSH1 0x1 ADD PUSH2 0x247D JUMP JUMPDEST POP POP POP POP POP JUMP JUMPDEST DUP2 MLOAD PUSH1 0x1 PUSH1 0x1 PUSH1 0x40 SHL SUB DUP2 GT ISZERO PUSH2 0x24B1 JUMPI PUSH2 0x24B1 PUSH2 0x2015 JUMP JUMPDEST PUSH2 0x24C5 DUP2 PUSH2 0x24BF DUP5 SLOAD PUSH2 0x2410 JUMP JUMPDEST DUP5 PUSH2 0x244A JUMP JUMPDEST PUSH1 0x20 PUSH1 0x1F DUP3 GT PUSH1 0x1 DUP2 EQ PUSH2 0x24F9 JUMPI PUSH1 0x0 DUP4 ISZERO PUSH2 0x24E1 JUMPI POP DUP5 DUP3 ADD MLOAD JUMPDEST PUSH1 0x0 NOT PUSH1 0x3 DUP6 SWAP1 SHL SHR NOT AND PUSH1 0x1 DUP5 SWAP1 SHL OR DUP5 SSTORE PUSH2 0x2491 JUMP JUMPDEST PUSH1 0x0 DUP5 DUP2 MSTORE PUSH1 0x20 DUP2 KECCAK256 PUSH1 0x1F NOT DUP6 AND SWAP2 JUMPDEST DUP3 DUP2 LT ISZERO PUSH2 0x2529 JUMPI DUP8 DUP6 ADD MLOAD DUP3 SSTORE PUSH1 0x20 SWAP5 DUP6 ADD SWAP5 PUSH1 0x1 SWAP1 SWAP3 ADD SWAP2 ADD PUSH2 0x2509 JUMP JUMPDEST POP DUP5 DUP3 LT ISZERO PUSH2 0x2547 JUMPI DUP7 DUP5 ADD MLOAD PUSH1 0x0 NOT PUSH1 0x3 DUP8 SWAP1 SHL PUSH1 0xF8 AND SHR NOT AND DUP2 SSTORE JUMPDEST POP POP POP POP PUSH1 0x1 SWAP1 DUP2 SHL ADD SWAP1 SSTORE POP JUMP JUMPDEST PUSH4 0x4E487B71 PUSH1 0xE0 SHL PUSH1 0x0 MSTORE PUSH1 0x32 PUSH1 0x4 MSTORE PUSH1 0x24 PUSH1 0x0 REVERT JUMPDEST PUSH4 0x4E487B71 PUSH1 0xE0 SHL PUSH1 0x0 MSTORE PUSH1 0x12 PUSH1 0x4 MSTORE PUSH1 0x24 PUSH1 0x0 REVERT JUMPDEST PUSH1 0x0 DUP3 PUSH2 0x2591 JUMPI PUSH2 0x2591 PUSH2 0x256C JUMP JUMPDEST POP MOD SWAP1 JUMP JUMPDEST PUSH1 0x0 DUP2 MLOAD PUSH2 0x25A8 DUP2 DUP6 PUSH1 0x20 DUP7 ADD PUSH2 0x1F1B JUMP JUMPDEST SWAP3 SWAP1 SWAP3 ADD SWAP3 SWAP2 POP POP JUMP JUMPDEST PUSH9 0x3D913730B6B2911D11 PUSH1 0xB9 SHL DUP2 MSTORE DUP5 MLOAD PUSH1 0x0 SWAP1 PUSH2 0x25D7 DUP2 PUSH1 0x9 DUP6 ADD PUSH1 0x20 DUP11 ADD PUSH2 0x1F1B JUMP JUMPDEST PUSH2 0x2023 PUSH1 0xF0 SHL PUSH1 0x9 SWAP2 DUP5 ADD SWAP2 DUP3 ADD MSTORE DUP6 MLOAD PUSH2 0x25F9 DUP2 PUSH1 0xB DUP5 ADD PUSH1 0x20 DUP11 ADD PUSH2 0x1F1B JUMP JUMPDEST PUSH1 0x9 DUP2 DUP4 ADD ADD SWAP2 POP POP PUSH17 0x1116113232B9B1B934B83A34B7B7111D11 PUSH1 0x79 SHL PUSH1 0x2 DUP3 ADD MSTORE DUP5 MLOAD PUSH2 0x262F DUP2 PUSH1 0x13 DUP5 ADD PUSH1 0x20 DUP10 ADD PUSH2 0x1F1B JUMP JUMPDEST PUSH1 0x2 DUP2 DUP4 ADD ADD SWAP2 POP POP PUSH11 0x11161134B6B0B3B2911D11 PUSH1 0xA9 SHL PUSH1 0x11 DUP3 ADD MSTORE DUP4 MLOAD PUSH2 0x265F DUP2 PUSH1 0x1C DUP5 ADD PUSH1 0x20 DUP9 ADD PUSH2 0x1F1B JUMP JUMPDEST PUSH2 0x227D PUSH1 0xF0 SHL PUSH1 0x1C SWAP3 SWAP1 SWAP2 ADD SWAP2 DUP3 ADD MSTORE PUSH1 0x1E ADD SWAP7 SWAP6 POP POP POP POP POP POP JUMP JUMPDEST PUSH32 0x646174613A6170706C69636174696F6E2F6A736F6E3B6261736536342C000000 DUP2 MSTORE PUSH1 0x0 DUP3 MLOAD PUSH2 0x26B4 DUP2 PUSH1 0x1D DUP6 ADD PUSH1 0x20 DUP8 ADD PUSH2 0x1F1B JUMP JUMPDEST SWAP2 SWAP1 SWAP2 ADD PUSH1 0x1D ADD SWAP3 SWAP2 POP POP JUMP JUMPDEST PUSH9 0x3D913730B6B2911D11 PUSH1 0xB9 SHL DUP2 MSTORE DUP5 MLOAD PUSH1 0x0 SWAP1 PUSH2 0x26E6 DUP2 PUSH1 0x9 DUP6 ADD PUSH1 0x20 DUP11 ADD PUSH2 0x1F1B JUMP JUMPDEST PUSH17 0x1116113232B9B1B934B83A34B7B7111D11 PUSH1 0x79 SHL PUSH1 0x9 SWAP2 DUP5 ADD SWAP2 DUP3 ADD MSTORE DUP6 MLOAD PUSH2 0x2717 DUP2 PUSH1 0x1A DUP5 ADD PUSH1 0x20 DUP11 ADD PUSH2 0x1F1B JUMP JUMPDEST PUSH2 0x88B PUSH1 0xF2 SHL PUSH1 0x1A SWAP3 SWAP1 SWAP2 ADD SWAP2 DUP3 ADD MSTORE PUSH9 0x1134B6B0B3B2911D11 PUSH1 0xB9 SHL PUSH1 0x1C DUP3 ADD MSTORE DUP5 MLOAD PUSH1 0x9 DUP3 ADD SWAP2 PUSH2 0x2752 SWAP1 DUP3 SWAP1 PUSH1 0x25 ADD PUSH1 0x20 DUP10 ADD PUSH2 0x1F1B JUMP JUMPDEST PUSH1 0x11 DUP2 DUP4 ADD ADD SWAP2 POP POP PUSH18 0x1116113130B73732B92FB4B6B0B3B2911D11 PUSH1 0x71 SHL PUSH1 0xB DUP3 ADD MSTORE DUP4 MLOAD PUSH2 0x2789 DUP2 PUSH1 0x1D DUP5 ADD PUSH1 0x20 DUP9 ADD PUSH2 0x1F1B JUMP JUMPDEST PUSH2 0x27A0 PUSH1 0x1D DUP4 DUP4 ADD ADD PUSH2 0x227D PUSH1 0xF0 SHL DUP2 MSTORE PUSH1 0x2 ADD SWAP1 JUMP JUMPDEST SWAP9 SWAP8 POP POP POP POP POP POP POP POP JUMP JUMPDEST PUSH4 0x4E487B71 PUSH1 0xE0 SHL PUSH1 0x0 MSTORE PUSH1 0x11 PUSH1 0x4 MSTORE PUSH1 0x24 PUSH1 0x0 REVERT JUMPDEST PUSH1 0x0 DUP2 PUSH2 0x27D1 JUMPI PUSH2 0x27D1 PUSH2 0x27AC JUMP JUMPDEST POP PUSH1 0x0 NOT ADD SWAP1 JUMP JUMPDEST PUSH1 0x1 PUSH1 0x1 PUSH1 0xA0 SHL SUB DUP6 DUP2 AND DUP3 MSTORE DUP5 AND PUSH1 0x20 DUP3 ADD MSTORE PUSH1 0x40 DUP2 ADD DUP4 SWAP1 MSTORE PUSH1 0x80 PUSH1 0x60 DUP3 ADD DUP2 SWAP1 MSTORE PUSH1 0x0 SWAP1 PUSH2 0x280C SWAP1 DUP4 ADD DUP5 PUSH2 0x1F3F JUMP JUMPDEST SWAP7 SWAP6 POP POP POP POP POP POP JUMP JUMPDEST PUSH1 0x0 PUSH1 0x20 DUP3 DUP5 SUB SLT ISZERO PUSH2 0x2828 JUMPI PUSH1 0x0 DUP1 REVERT JUMPDEST DUP2 MLOAD PUSH2 0x1F14 DUP2 PUSH2 0x1EE1 JUMP JUMPDEST PUSH1 0x0 DUP2 SLOAD PUSH2 0x2840 DUP2 PUSH2 0x2410 JUMP JUMPDEST PUSH1 0x1 DUP3 AND DUP1 ISZERO PUSH2 0x2857 JUMPI PUSH1 0x1 DUP2 EQ PUSH2 0x286C JUMPI PUSH2 0x289C JUMP JUMPDEST PUSH1 0xFF NOT DUP4 AND DUP7 MSTORE DUP2 ISZERO ISZERO DUP3 MUL DUP7 ADD SWAP4 POP PUSH2 0x289C JUMP JUMPDEST DUP5 PUSH1 0x0 MSTORE PUSH1 0x20 PUSH1 0x0 KECCAK256 PUSH1 0x0 JUMPDEST DUP4 DUP2 LT ISZERO PUSH2 0x2894 JUMPI DUP2 SLOAD DUP9 DUP3 ADD MSTORE PUSH1 0x1 SWAP1 SWAP2 ADD SWAP1 PUSH1 0x20 ADD PUSH2 0x2878 JUMP JUMPDEST POP POP DUP2 DUP7 ADD SWAP4 POP JUMPDEST POP POP POP SWAP3 SWAP2 POP POP JUMP JUMPDEST PUSH32 0x3C73766720786D6C6E733D22687474703A2F2F7777772E77332E6F72672F3230 DUP2 MSTORE PUSH32 0x30302F737667222077696474683D2238303022206865696768743D2236303022 PUSH1 0x20 DUP3 ADD MSTORE PUSH32 0x2076696577426F783D223020302038303020363030223E000000000000000000 PUSH1 0x40 DUP3 ADD MSTORE PUSH32 0x3C726563742077696474683D223130302522206865696768743D223130302522 PUSH1 0x57 DUP3 ADD MSTORE PUSH7 0x103334B6361E91 PUSH1 0xC9 SHL PUSH1 0x77 DUP3 ADD MSTORE PUSH1 0x0 PUSH2 0x2959 PUSH1 0x7E DUP4 ADD DUP7 PUSH2 0x2833 JUMP JUMPDEST PUSH4 0x1110179F PUSH1 0xE1 SHL DUP2 MSTORE PUSH32 0x3C7465787420783D223530252220793D223530252220646F6D696E616E742D62 PUSH1 0x4 DUP3 ADD MSTORE PUSH32 0x6173656C696E653D226D6964646C652220746578742D616E63686F723D226D69 PUSH1 0x24 DUP3 ADD MSTORE PUSH32 0x64646C652220666F6E742D66616D696C793D22417269616C2220666F6E742D73 PUSH1 0x44 DUP3 ADD MSTORE PUSH32 0x697A653D2238342220666F6E742D7765696768743D22363030222066696C6C3D PUSH1 0x64 DUP3 ADD MSTORE PUSH1 0x11 PUSH1 0xF9 SHL PUSH1 0x84 DUP3 ADD MSTORE PUSH2 0x280C PUSH2 0x2A45 PUSH2 0x2A32 PUSH2 0x2A2C PUSH2 0x2A1E PUSH1 0x85 DUP7 ADD DUP11 PUSH2 0x2833 JUMP JUMPDEST PUSH2 0x111F PUSH1 0xF1 SHL DUP2 MSTORE PUSH1 0x2 ADD SWAP1 JUMP JUMPDEST DUP8 PUSH2 0x2596 JUMP JUMPDEST PUSH7 0x1E17BA32BC3A1F PUSH1 0xC9 SHL DUP2 MSTORE PUSH1 0x7 ADD SWAP1 JUMP JUMPDEST PUSH6 0x1E17B9BB339F PUSH1 0xD1 SHL DUP2 MSTORE PUSH1 0x6 ADD SWAP1 JUMP JUMPDEST PUSH32 0x646174613A696D6167652F7376672B786D6C3B6261736536342C000000000000 DUP2 MSTORE PUSH1 0x0 DUP3 MLOAD PUSH2 0x2A8F DUP2 PUSH1 0x1A DUP6 ADD PUSH1 0x20 DUP8 ADD PUSH2 0x1F1B JUMP JUMPDEST SWAP2 SWAP1 SWAP2 ADD PUSH1 0x1A ADD SWAP3 SWAP2 POP POP JUMP JUMPDEST DUP1 DUP3 ADD DUP1 DUP3 GT ISZERO PUSH2 0x5FF JUMPI PUSH2 0x5FF PUSH2 0x27AC JUMP JUMPDEST PUSH1 0x0 DUP3 PUSH2 0x2ABE JUMPI PUSH2 0x2ABE PUSH2 0x256C JUMP JUMPDEST POP DIV SWAP1 JUMP JUMPDEST DUP1 DUP3 MUL DUP2 ISZERO DUP3 DUP3 DIV DUP5 EQ OR PUSH2 0x5FF JUMPI PUSH2 0x5FF PUSH2 0x27AC JUMP JUMPDEST DUP2 DUP2 SUB DUP2 DUP2 GT ISZERO PUSH2 0x5FF JUMPI PUSH2 0x5FF PUSH2 0x27AC JUMP JUMPDEST PUSH1 0x0 DUP5 MLOAD PUSH2 0x2AFF DUP2 DUP5 PUSH1 0x20 DUP10 ADD PUSH2 0x1F1B JUMP JUMPDEST PUSH1 0x17 PUSH1 0xF9 SHL SWAP1 DUP4 ADD SWAP1 DUP2 MSTORE DUP5 MLOAD PUSH2 0x2B1D DUP2 PUSH1 0x1 DUP5 ADD PUSH1 0x20 DUP10 ADD PUSH2 0x1F1B JUMP JUMPDEST PUSH1 0xB PUSH1 0xFA SHL PUSH1 0x1 SWAP3 SWAP1 SWAP2 ADD SWAP2 DUP3 ADD MSTORE DUP4 MLOAD PUSH2 0x2B3F DUP2 PUSH1 0x2 DUP5 ADD PUSH1 0x20 DUP9 ADD PUSH2 0x1F1B JUMP JUMPDEST ADD PUSH1 0x2 ADD SWAP6 SWAP5 POP POP POP POP POP JUMP INVALID COINBASE TIMESTAMP NUMBER PREVRANDAO GASLIMIT CHAINID SELFBALANCE BASEFEE BLOBHASH BLOBBASEFEE 0x4B 0x4C 0x4D 0x4E 0x4F POP MLOAD MSTORE MSTORE8 SLOAD SSTORE JUMP JUMPI PC MSIZE GAS PUSH2 0x6263 PUSH5 0x6566676869 PUSH11 0x6B6C6D6E6F707172737475 PUSH23 0x7778797A303132333435363738392B2FA2646970667358 0x22 SLT KECCAK256 0xE8 EXTCODESIZE SWAP6 TIMESTAMP 0xB1 0xB8 SWAP2 0xBE 0xF CALLDATACOPY ADDMOD CODECOPY CALLDATACOPY SWAP3 ADDMOD JUMP MSIZE SWAP11 PUSH14 0x2C16190F81F3147B3C205CE0FB64 PUSH20 0x6F6C634300081D00330000000000000000000000 "},"methodIdentifiers":{"approve(address,uint256)":"095ea7b3","balanceOf(address)":"70a08231","bgColor()":"f57e6806","contractURI()":"e8a3d485","customBannerImage()":"68e803a6","customContractURI()":"6cbf6456","customTokenURIs(uint256)":"3077ac25","getApproved(uint256)":"081812fc","imageUrl()":"aba83150","imageUrls(uint256)":"5f528ee8","isApprovedForAll(address,address)":"e985e9c5","mint(address,uint256)":"40c10f19","name()":"06fdde03","owner()":"8da5cb5b","ownerOf(uint256)":"6352211e","renounceOwnership()":"715018a6","safeTransferFrom(address,address,uint256)":"42842e0e","safeTransferFrom(address,address,uint256,bytes)":"b88d4fde","setApprovalForAll(address,bool)":"a22cb465","setBatchCustomTokenURI(uint256[],string[])":"3122e4f4","setColors(string,string)":"aec19c42","setContractURI(string)":"938e3d7b","setCustomBannerImage(string)":"b1e3c207","setCustomTokenURI(uint256,string)":"851fc4b6","setImageUrl(string)":"2abff1f2","supportsInterface(bytes4)":"01ffc9a7","symbol()":"95d89b41","textColor()":"fb15e9fd","time()":"16ada547","tokenURI(uint256)":"c87b56dd","totalSupply()":"18160ddd","transferFrom(address,address,uint256)":"23b872dd","transferOwnership(address)":"f2fde38b"}}}}}