{
  "_format": "hh-sol-artifact-1",
  "contractName": "Factory",
  "sourceName": "contracts/Factory.sol",
  "abi": [
    {
      "inputs": [],
      "stateMutability": "nonpayable",
      "type": "constructor"
    },
    {
      "anonymous": false,
      "inputs": [
        {
          "indexed": true,
          "internalType": "address",
          "name": "deployer",
          "type": "address"
        },
        {
          "indexed": false,
          "internalType": "address",
          "name": "contractAddress",
          "type": "address"
        },
        {
          "indexed": false,
          "internalType": "string",
          "name": "name",
          "type": "string"
        },
        {
          "indexed": false,
          "internalType": "uint256",
          "name": "mintAmount",
          "type": "uint256"
        }
      ],
      "name": "Deployed",
      "type": "event"
    },
    {
      "anonymous": false,
      "inputs": [
        {
          "indexed": true,
          "internalType": "address",
          "name": "previousOwner",
          "type": "address"
        },
        {
          "indexed": true,
          "internalType": "address",
          "name": "newOwner",
          "type": "address"
        }
      ],
      "name": "OwnershipTransferred",
      "type": "event"
    },
    {
      "inputs": [],
      "name": "OPENSEA_CONDUIT_CONTROLLER",
      "outputs": [
        {
          "internalType": "address",
          "name": "",
          "type": "address"
        }
      ],
      "stateMutability": "view",
      "type": "function"
    },
    {
      "inputs": [],
      "name": "OPENSEA_CONDUIT_KEY",
      "outputs": [
        {
          "internalType": "bytes32",
          "name": "",
          "type": "bytes32"
        }
      ],
      "stateMutability": "view",
      "type": "function"
    },
    {
      "inputs": [
        {
          "internalType": "uint256",
          "name": "",
          "type": "uint256"
        }
      ],
      "name": "contracts",
      "outputs": [
        {
          "internalType": "address",
          "name": "",
          "type": "address"
        }
      ],
      "stateMutability": "view",
      "type": "function"
    },
    {
      "inputs": [
        {
          "internalType": "address",
          "name": "",
          "type": "address"
        },
        {
          "internalType": "uint256",
          "name": "",
          "type": "uint256"
        }
      ],
      "name": "contractsByDeployer",
      "outputs": [
        {
          "internalType": "address",
          "name": "",
          "type": "address"
        }
      ],
      "stateMutability": "view",
      "type": "function"
    },
    {
      "inputs": [
        {
          "internalType": "uint256",
          "name": "mintAmount",
          "type": "uint256"
        },
        {
          "internalType": "address",
          "name": "owner",
          "type": "address"
        },
        {
          "internalType": "string",
          "name": "name",
          "type": "string"
        },
        {
          "internalType": "string[]",
          "name": "imageUrls",
          "type": "string[]"
        },
        {
          "internalType": "string",
          "name": "textColor",
          "type": "string"
        },
        {
          "internalType": "string",
          "name": "bgColor",
          "type": "string"
        },
        {
          "internalType": "string",
          "name": "contractURI",
          "type": "string"
        },
        {
          "internalType": "string",
          "name": "bannerImage",
          "type": "string"
        }
      ],
      "name": "deploy",
      "outputs": [
        {
          "internalType": "address",
          "name": "",
          "type": "address"
        }
      ],
      "stateMutability": "nonpayable",
      "type": "function"
    },
    {
      "inputs": [],
      "name": "getConduitAddress",
      "outputs": [
        {
          "internalType": "address",
          "name": "conduit",
          "type": "address"
        }
      ],
      "stateMutability": "view",
      "type": "function"
    },
    {
      "inputs": [
        {
          "internalType": "address",
          "name": "deployer",
          "type": "address"
        }
      ],
      "name": "getContractsByDeployer",
      "outputs": [
        {
          "internalType": "address[]",
          "name": "",
          "type": "address[]"
        }
      ],
      "stateMutability": "view",
      "type": "function"
    },
    {
      "inputs": [],
      "name": "getContractsCount",
      "outputs": [
        {
          "internalType": "uint256",
          "name": "",
          "type": "uint256"
        }
      ],
      "stateMutability": "view",
      "type": "function"
    },
    {
      "inputs": [
        {
          "internalType": "address",
          "name": "deployer",
          "type": "address"
        }
      ],
      "name": "getContractsCountByDeployer",
      "outputs": [
        {
          "internalType": "uint256",
          "name": "",
          "type": "uint256"
        }
      ],
      "stateMutability": "view",
      "type": "function"
    },
    {
      "inputs": [],
      "name": "owner",
      "outputs": [
        {
          "internalType": "address",
          "name": "",
          "type": "address"
        }
      ],
      "stateMutability": "view",
      "type": "function"
    },
    {
      "inputs": [],
      "name": "renounceOwnership",
      "outputs": [],
      "stateMutability": "nonpayable",
      "type": "function"
    },
    {
      "inputs": [
        {
          "internalType": "address",
          "name": "newOwner",
          "type": "address"
        }
      ],
      "name": "transferOwnership",
      "outputs": [],
      "stateMutability": "nonpayable",
      "type": "function"
    }
  ],
  "bytecode": "0x6080604052348015600f57600080fd5b506017336022565b601e336022565b6072565b600080546001600160a01b038381166001600160a01b0319831681178455604051919092169283917f8be0079c531659141344cd1fd0a4f28419497f9722a3daafe3b4186f6b6457e09190a35050565b614510806100816000396000f3fe608060405234801561001057600080fd5b50600436106100b45760003560e01c8063b0a09b0811610071578063b0a09b081461013c578063ce42cfca1461015c578063e68296d014610180578063edc595b114610197578063f27d5f46146101c0578063f2fde38b146101c857600080fd5b8063474da79a146100b9578063715018a6146100e95780637b929723146100f35780638ccff065146101065780638da5cb5b146101195780639683584f1461012a575b600080fd5b6100cc6100c736600461080e565b6101db565b6040516001600160a01b0390911681526020015b60405180910390f35b6100f1610205565b005b6100cc610101366004610843565b610219565b6100cc6101143660046109cc565b610251565b6000546001600160a01b03166100cc565b6001545b6040519081526020016100e0565b61014f61014a366004610afe565b610550565b6040516100e09190610b20565b61012e7c7b02230091a7ed01230072f7006a004d60a8d4e71d599b8104250f000081565b6100cc6ff9490004c11cef243f5400493c00ad6381565b61012e6101a5366004610afe565b6001600160a01b031660009081526002602052604090205490565b6100cc6105c6565b6100f16101d6366004610afe565b6106de565b600181815481106101eb57600080fd5b6000918252602090912001546001600160a01b0316905081565b61020d610757565b61021760006107b1565b565b6002602052816000526040600020818154811061023557600080fd5b6000918252602090912001546001600160a01b03169150829050565b60006001600160a01b038816610265573397505b6000878787878660405161027890610801565b610286959493929190610bbc565b604051809103906000f0801580156102a2573d6000803e3d6000fd5b50905060006102af6105c6565b60405163a22cb46560e01b81526001600160a01b038083166004830152600160248301529192509083169063a22cb46590604401600060405180830381600087803b1580156102fd57600080fd5b505af1158015610311573d6000803e3d6000fd5b5050505060008b1115610381576040516340c10f1960e01b81526001600160a01b038b81166004830152602482018d90528316906340c10f1990604401600060405180830381600087803b15801561036857600080fd5b505af115801561037c573d6000803e3d6000fd5b505050505b8451156103e75760405163938e3d7b60e01b81526001600160a01b0383169063938e3d7b906103b4908890600401610c70565b600060405180830381600087803b1580156103ce57600080fd5b505af11580156103e2573d6000803e3d6000fd5b505050505b60405163f2fde38b60e01b81526001600160a01b038b8116600483015283169063f2fde38b90602401600060405180830381600087803b15801561042a57600080fd5b505af115801561043e573d6000803e3d6000fd5b5050505060008290506001819080600181540180825580915050600190039060005260206000200160009091909190916101000a8154816001600160a01b0302191690836001600160a01b0316021790555060026000336001600160a01b03166001600160a01b03168152602001908152602001600020819080600181540180825580915050600190039060005260206000200160009091909190916101000a8154816001600160a01b0302191690836001600160a01b03160217905550336001600160a01b03167f55372325cd98024562bf2aa30eacb8ea4f5921ead740809aa89fd8bd9e3ba3b4828c8f60405161053993929190610c83565b60405180910390a29b9a5050505050505050505050565b6001600160a01b0381166000908152600260209081526040918290208054835181840281018401909452808452606093928301828280156105ba57602002820191906000526020600020905b81546001600160a01b0316815260019091019060200180831161059c575b50505050509050919050565b6040517c7b02230091a7ed01230072f7006a004d60a8d4e71d599b8104250f00006024820152600090819081906ff9490004c11cef243f5400493c00ad639060440160408051601f198184030181529181526020820180516001600160e01b0316636e9bfd9f60e01b1790525161063d9190610cb7565b600060405180830381855afa9150503d8060008114610678576040519150601f19603f3d011682016040523d82523d6000602084013e61067d565b606091505b5091509150816106d45760405162461bcd60e51b815260206004820152601d60248201527f4661696c656420746f2067657420636f6e64756974206164647265737300000060448201526064015b60405180910390fd5b6020015192915050565b6106e6610757565b6001600160a01b03811661074b5760405162461bcd60e51b815260206004820152602660248201527f4f776e61626c653a206e6577206f776e657220697320746865207a65726f206160448201526564647265737360d01b60648201526084016106cb565b610754816107b1565b50565b6000546001600160a01b031633146102175760405162461bcd60e51b815260206004820181905260248201527f4f776e61626c653a2063616c6c6572206973206e6f7420746865206f776e657260448201526064016106cb565b600080546001600160a01b038381166001600160a01b0319831681178455604051919092169283917f8be0079c531659141344cd1fd0a4f28419497f9722a3daafe3b4186f6b6457e09190a35050565b61380780610cd483390190565b60006020828403121561082057600080fd5b5035919050565b80356001600160a01b038116811461083e57600080fd5b919050565b6000806040838503121561085657600080fd5b61085f83610827565b946020939093013593505050565b634e487b7160e01b600052604160045260246000fd5b604051601f8201601f1916810167ffffffffffffffff811182821017156108ac576108ac61086d565b604052919050565b600082601f8301126108c557600080fd5b813567ffffffffffffffff8111156108df576108df61086d565b6108f2601f8201601f1916602001610883565b81815284602083860101111561090757600080fd5b816020850160208301376000918101602001919091529392505050565b600082601f83011261093557600080fd5b813567ffffffffffffffff81111561094f5761094f61086d565b8060051b61095f60208201610883565b9182526020818501810192908101908684111561097b57600080fd5b6020860192505b838310156109c257823567ffffffffffffffff8111156109a157600080fd5b6109b0886020838a01016108b4565b83525060209283019290910190610982565b9695505050505050565b600080600080600080600080610100898b0312156109e957600080fd5b883597506109f960208a01610827565b9650604089013567ffffffffffffffff811115610a1557600080fd5b610a218b828c016108b4565b965050606089013567ffffffffffffffff811115610a3e57600080fd5b610a4a8b828c01610924565b955050608089013567ffffffffffffffff811115610a6757600080fd5b610a738b828c016108b4565b94505060a089013567ffffffffffffffff811115610a9057600080fd5b610a9c8b828c016108b4565b93505060c089013567ffffffffffffffff811115610ab957600080fd5b610ac58b828c016108b4565b92505060e089013567ffffffffffffffff811115610ae257600080fd5b610aee8b828c016108b4565b9150509295985092959890939650565b600060208284031215610b1057600080fd5b610b1982610827565b9392505050565b602080825282518282018190526000918401906040840190835b81811015610b615783516001600160a01b0316835260209384019390920191600101610b3a565b509095945050505050565b60005b83811015610b87578181015183820152602001610b6f565b50506000910152565b60008151808452610ba8816020860160208601610b6c565b601f01601f19169290920160200192915050565b60a081526000610bcf60a0830188610b90565b828103602084015280875180835260208301915060208160051b84010160208a0160005b83811015610c2557601f19868403018552610c0f838351610b90565b6020958601959093509190910190600101610bf3565b50508581036040870152610c39818a610b90565b93505050508281036060840152610c508186610b90565b90508281036080840152610c648185610b90565b98975050505050505050565b602081526000610b196020830184610b90565b6001600160a01b0384168152606060208201819052600090610ca790830185610b90565b9050826040830152949350505050565b60008251610cc9818460208701610b6c565b919091019291505056fe608060405234801561001057600080fd5b5060405161380738038061380783398101604081905261002f91610911565b61003885610172565b604080518082019091526005815264544f44415960d81b602082015260026100608382610a89565b50600361006d8282610a89565b5050600080555061007d33610193565b61008685610172565b600a906100939082610a89565b508351156100da57836000815181106100ae576100ae610b47565b6020026020010151600b90816100c49190610a89565b5083516100d890600c9060208701906106d1565b505b600083511161010857604051806040016040528060078152602001662366356635663560c81b81525061010a565b825b600d906101179082610a89565b50600082511161014657604051806040016040528060078152602001660233030303030360cc1b815250610148565b815b600e906101559082610a89565b5060116101628282610a89565b505042600f5550610c3692505050565b6060600082511161018b57610186426101e5565b61018d565b815b92915050565b600980546001600160a01b038381166001600160a01b0319831681179093556040519116919082907f8be0079c531659141344cd1fd0a4f28419497f9722a3daafe3b4186f6b6457e090600090a35050565b60606201518060006101f78285610b89565b90506107b261016d5b80831061027b57610212600483610b9d565b1580156102285750610225606483610b9d565b15155b8061023c575061023a61019083610b9d565b155b1561026f5761016e831061026a5761025661016e84610bb1565b9250610263600183610bc4565b9150610200565b61027b565b61025661016d84610bb1565b6040805161018081018252601f808252601c6020830152918101829052601e606082018190526080820183905260a0820181905260c0820183905260e08201839052610100820181905261012082018390526101408201526101608101919091526102e7600484610b9d565b1580156102fd57506102fa606484610b9d565b15155b80610311575061030f61019084610b9d565b155b1561031e57601d60208201525b60005b600c8110801561034a57508181600c811061033e5761033e610b47565b602002015160ff168510155b15610387578181600c811061036157610361610b47565b60200201516103739060ff1686610bb1565b9450610380600182610bc4565b9050610321565b610392600182610bc4565b905060006103a1866001610bc4565b604080516101c08101825260036101808201818152622520a760e91b6101a0840152825282518084018452818152622322a160e91b60208281019190915280840191909152835180850185528281526226a0a960e91b8183015283850152835180850185528281526220a82960e91b81830152606084015283518085018552828152624d415960e81b8183015260808401528351808501855282815262252aa760e91b8183015260a0840152835180850185528281526212955360ea1b8183015260c0840152835180850185528281526241554760e81b8183015260e0840152835180850185528281526205345560ec1b81830152610100840152835180850185528281526213d0d560ea1b8183015261012084015283518085018552828152622727ab60e91b8183015261014084015283518085019094529083526244454360e81b90830152610160810191909152909150600081610502600186610bb1565b600c811061051257610512610b47565b60200201519050806105238461055d565b61052c8961055d565b60405160200161053e93929190610bd7565b6040516020818303038152906040529950505050505050505050919050565b6060600061056a836105ef565b60010190506000816001600160401b0381111561058957610589610796565b6040519080825280601f01601f1916602001820160405280156105b3576020820181803683370190505b5090508181016020015b600019016f181899199a1a9b1b9c1cb0b131b232b360811b600a86061a8153600a85049450846105bd57509392505050565b6000807a184f03e93ff9f4daa797ed6e38ed64bf6a1f0100000000000000008310610638577a184f03e93ff9f4daa797ed6e38ed64bf6a1f010000000000000000830492506040015b6d04ee2d6d415b85acef81000000008310610664576d04ee2d6d415b85acef8100000000830492506020015b662386f26fc10000831061068257662386f26fc10000830492506010015b6305f5e100831061069a576305f5e100830492506008015b61271083106106ae57612710830492506004015b606483106106c0576064830492506002015b600a831061018d5760010192915050565b828054828255906000526020600020908101928215610717579160200282015b8281111561071757825182906107079082610a89565b50916020019190600101906106f1565b50610723929150610727565b5090565b8082111561072357600061073b8282610744565b50600101610727565b50805461075090610a00565b6000825580601f10610760575050565b601f01602090049060005260206000209081019061077e9190610781565b50565b5b808211156107235760008155600101610782565b634e487b7160e01b600052604160045260246000fd5b604051601f8201601f191681016001600160401b03811182821017156107d4576107d4610796565b604052919050565b60005b838110156107f75781810151838201526020016107df565b50506000910152565b600082601f83011261081157600080fd5b81516001600160401b0381111561082a5761082a610796565b61083d601f8201601f19166020016107ac565b81815284602083860101111561085257600080fd5b6108638260208301602087016107dc565b949350505050565b600082601f83011261087c57600080fd5b81516001600160401b0381111561089557610895610796565b8060051b6108a5602082016107ac565b918252602081850181019290810190868411156108c157600080fd5b6020860192505b838310156109075782516001600160401b038111156108e657600080fd5b6108f5886020838a0101610800565b835250602092830192909101906108c8565b9695505050505050565b600080600080600060a0868803121561092957600080fd5b85516001600160401b0381111561093f57600080fd5b61094b88828901610800565b602088015190965090506001600160401b0381111561096957600080fd5b6109758882890161086b565b604088015190955090506001600160401b0381111561099357600080fd5b61099f88828901610800565b606088015190945090506001600160401b038111156109bd57600080fd5b6109c988828901610800565b608088015190935090506001600160401b038111156109e757600080fd5b6109f388828901610800565b9150509295509295909350565b600181811c90821680610a1457607f821691505b602082108103610a3457634e487b7160e01b600052602260045260246000fd5b50919050565b601f821115610a8457806000526020600020601f840160051c81016020851015610a615750805b601f840160051c820191505b81811015610a815760008155600101610a6d565b50505b505050565b81516001600160401b03811115610aa257610aa2610796565b610ab681610ab08454610a00565b84610a3a565b6020601f821160018114610aea5760008315610ad25750848201515b600019600385901b1c1916600184901b178455610a81565b600084815260208120601f198516915b82811015610b1a5787850151825560209485019460019092019101610afa565b5084821015610b385786840151600019600387901b60f8161c191681555b50505050600190811b01905550565b634e487b7160e01b600052603260045260246000fd5b634e487b7160e01b600052601260045260246000fd5b634e487b7160e01b600052601160045260246000fd5b600082610b9857610b98610b5d565b500490565b600082610bac57610bac610b5d565b500690565b8181038181111561018d5761018d610b73565b8082018082111561018d5761018d610b73565b60008451610be98184602089016107dc565b601760f91b9083019081528451610c078160018401602089016107dc565b600b60fa1b600192909101918201528351610c298160028401602088016107dc565b0160020195945050505050565b612bc280610c456000396000f3fe6080604052600436106101ee5760003560e01c806370a082311161010d578063aec19c42116100a0578063e8a3d4851161006f578063e8a3d48514610534578063e985e9c514610549578063f2fde38b14610569578063f57e680614610589578063fb15e9fd1461059e57600080fd5b8063aec19c42146104c1578063b1e3c207146104e1578063b88d4fde14610501578063c87b56dd1461051457600080fd5b8063938e3d7b116100dc578063938e3d7b1461045757806395d89b4114610477578063a22cb4651461048c578063aba83150146104ac57600080fd5b806370a08231146103e4578063715018a614610404578063851fc4b6146104195780638da5cb5b1461043957600080fd5b80633077ac25116101855780635f528ee8116101545780635f528ee81461037a5780636352211e1461039a57806368e803a6146103ba5780636cbf6456146103cf57600080fd5b80633077ac25146103075780633122e4f41461032757806340c10f191461034757806342842e0e1461036757600080fd5b806316ada547116101c157806316ada5471461029757806318160ddd146102bb57806323b872dd146102d45780632abff1f2146102e757600080fd5b806301ffc9a7146101f357806306fdde0314610228578063081812fc1461024a578063095ea7b314610282575b600080fd5b3480156101ff57600080fd5b5061021361020e366004611ef7565b6105b3565b60405190151581526020015b60405180910390f35b34801561023457600080fd5b5061023d610605565b60405161021f9190611f6b565b34801561025657600080fd5b5061026a610265366004611f7e565b610697565b6040516001600160a01b03909116815260200161021f565b610295610290366004611fae565b6106d2565b005b3480156102a357600080fd5b506102ad600f5481565b60405190815260200161021f565b3480156102c757600080fd5b50600154600054036102ad565b6102956102e2366004611fd8565b6106e2565b3480156102f357600080fd5b506102956103023660046120d6565b610847565b34801561031357600080fd5b5061023d610322366004611f7e565b61085b565b34801561033357600080fd5b506102956103423660046121be565b6108f5565b34801561035357600080fd5b50610295610362366004611fae565b610a24565b610295610375366004611fd8565b610a36565b34801561038657600080fd5b5061023d610395366004611f7e565b610a51565b3480156103a657600080fd5b5061026a6103b5366004611f7e565b610a7c565b3480156103c657600080fd5b5061023d610a87565b3480156103db57600080fd5b5061023d610a94565b3480156103f057600080fd5b506102ad6103ff36600461227e565b610aa1565b34801561041057600080fd5b50610295610ae6565b34801561042557600080fd5b50610295610434366004612299565b610afa565b34801561044557600080fd5b506009546001600160a01b031661026a565b34801561046357600080fd5b506102956104723660046120d6565b610b66565b34801561048357600080fd5b5061023d610ba7565b34801561049857600080fd5b506102956104a73660046122d5565b610bb6565b3480156104b857600080fd5b5061023d610c22565b3480156104cd57600080fd5b506102956104dc366004612311565b610c2f565b3480156104ed57600080fd5b506102956104fc3660046120d6565b610c50565b61029561050f366004612362565b610c64565b34801561052057600080fd5b5061023d61052f366004611f7e565b610ca5565b34801561054057600080fd5b5061023d610fe0565b34801561055557600080fd5b506102136105643660046123dd565b611284565b34801561057557600080fd5b5061029561058436600461227e565b6112b2565b34801561059557600080fd5b5061023d61132b565b3480156105aa57600080fd5b5061023d611338565b60006301ffc9a760e01b6001600160e01b0319831614806105e457506380ac58cd60e01b6001600160e01b03198316145b806105ff5750635b5e139f60e01b6001600160e01b03198316145b92915050565b6060600a805461061490612410565b80601f016020809104026020016040519081016040528092919081815260200182805461064090612410565b801561068d5780601f106106625761010080835404028352916020019161068d565b820191906000526020600020905b81548152906001019060200180831161067057829003601f168201915b5050505050905090565b60006106a282611345565b6106b6576106b66333d1c03960e21b61138a565b506000908152600660205260409020546001600160a01b031690565b6106de82826001611394565b5050565b60006106ed82611437565b6001600160a01b0394851694909150811684146107135761071362a1148160e81b61138a565b60008281526006602052604090208054338082146001600160a01b03881690911417610757576107438633611284565b61075757610757632ce44b5f60e11b61138a565b801561076257600082555b6001600160a01b038681166000908152600560205260408082208054600019019055918716808252919020805460010190554260a01b17600160e11b17600085815260046020526040812091909155600160e11b841690036107f4576001840160008181526004602052604081205490036107f25760005481146107f25760008181526004602052604090208490555b505b6001600160a01b0385168481887fddf252ad1be2c89b69c2b068fc378daa952ba7f163c4a11628f55a4df523b3ef600080a48060000361083e5761083e633a954ecd60e21b61138a565b50505050505050565b61084f6114cd565b600b6106de8282612498565b6012602052600090815260409020805461087490612410565b80601f01602080910402602001604051908101604052809291908181526020018280546108a090612410565b80156108ed5780601f106108c2576101008083540402835291602001916108ed565b820191906000526020600020905b8154815290600101906020018083116108d057829003601f168201915b505050505081565b6108fd6114cd565b80518251146109535760405162461bcd60e51b815260206004820152601860248201527f4d69736d61746368656420696e707574206c656e67746873000000000000000060448201526064015b60405180910390fd5b60005b8251811015610a1f5761098183828151811061097457610974612556565b6020026020010151611345565b6109c45760405162461bcd60e51b8152602060048201526014602482015273151bdad95b88191bd95cc81b9bdd08195e1a5cdd60621b604482015260640161094a565b8181815181106109d6576109d6612556565b6020026020010151601260008584815181106109f4576109f4612556565b602002602001015181526020019081526020016000209081610a169190612498565b50600101610956565b505050565b610a2c6114cd565b6106de8282611527565b610a1f83838360405180602001604052806000815250610c64565b600c8181548110610a6157600080fd5b90600052602060002001600091509050805461087490612410565b60006105ff82611437565b6011805461087490612410565b6010805461087490612410565b60006001600160a01b038216610ac157610ac16323d3ad8160e21b61138a565b506001600160a01b03166000908152600560205260409020546001600160401b031690565b610aee6114cd565b610af860006115e6565b565b610b026114cd565b610b0b82611345565b610b4e5760405162461bcd60e51b8152602060048201526014602482015273151bdad95b88191bd95cc81b9bdd08195e1a5cdd60621b604482015260640161094a565b6000828152601260205260409020610a1f8282612498565b610b6e6114cd565b6010610b7a8282612498565b506040517fa5d4097edda6d87cb9329af83fb3712ef77eeb13738ffe43cc35a4ce305ad96290600090a150565b60606003805461061490612410565b3360008181526007602090815260408083206001600160a01b03871680855290835292819020805460ff191686151590811790915590519081529192917f17307eab39ab6107e8899845ad3d59bd9653f200f220920489ca2b5937696c31910160405180910390a35050565b600b805461087490612410565b610c376114cd565b600d610c438382612498565b50600e610a1f8282612498565b610c586114cd565b6011610b7a8282612498565b610c6f8484846106e2565b6001600160a01b0383163b15610c9f57610c8b84848484611638565b610c9f57610c9f6368d2bf6b60e11b61138a565b50505050565b6060610cb082611345565b610ccd57604051630a14c4b560e41b815260040160405180910390fd5b60008281526012602052604081208054610ce690612410565b80601f0160208091040260200160405190810160405280929190818152602001828054610d1290612410565b8015610d5f5780601f10610d3457610100808354040283529160200191610d5f565b820191906000526020600020905b815481529060010190602001808311610d4257829003601f168201915b50505050509050600081511115610d765792915050565b600c5460609015610e3957600c8054610d8f9086612582565b81548110610d9f57610d9f612556565b906000526020600020018054610db490612410565b80601f0160208091040260200160405190810160405280929190818152602001828054610de090612410565b8015610e2d5780601f10610e0257610100808354040283529160200191610e2d565b820191906000526020600020905b815481529060010190602001808311610e1057829003601f168201915b50505050509050610ec7565b600b8054610e4690612410565b80601f0160208091040260200160405190810160405280929190818152602001828054610e7290612410565b8015610ebf5780601f10610e9457610100808354040283529160200191610ebf565b820191906000526020600020905b815481529060010190602001808311610ea257829003601f168201915b505050505090505b610fb8610f5d600a8054610eda90612410565b80601f0160208091040260200160405190810160405280929190818152602001828054610f0690612410565b8015610f535780601f10610f2857610100808354040283529160200191610f53565b820191906000526020600020905b815481529060010190602001808311610f3657829003601f168201915b505050505061171b565b610f6686611856565b610f76600a8054610eda90612410565b6000855111610f8f57610f8a600f546118e8565b610f91565b845b604051602001610fa494939291906125b2565b604051602081830303815290604052611932565b604051602001610fc8919061267c565b60405160208183030381529060405292505050919050565b6060600060108054610ff190612410565b90501115611006576010805461061490612410565b6000611018600a8054610eda90612410565b611028600a8054610eda90612410565b6000600b805461103790612410565b90501161104e57611049600f546118e8565b6110da565b600b805461105b90612410565b80601f016020809104026020016040519081016040528092919081815260200182805461108790612410565b80156110d45780601f106110a9576101008083540402835291602001916110d4565b820191906000526020600020905b8154815290600101906020018083116110b757829003601f168201915b50505050505b6000601180546110e990612410565b9050116111a6576000600b80546110ff90612410565b90501161111657611111600f546118e8565b611232565b600b805461112390612410565b80601f016020809104026020016040519081016040528092919081815260200182805461114f90612410565b801561119c5780601f106111715761010080835404028352916020019161119c565b820191906000526020600020905b81548152906001019060200180831161117f57829003601f168201915b5050505050611232565b601180546111b390612410565b80601f01602080910402602001604051908101604052809291908181526020018280546111df90612410565b801561122c5780601f106112015761010080835404028352916020019161122c565b820191906000526020600020905b81548152906001019060200180831161120f57829003601f168201915b50505050505b60405160200161124594939291906126c1565b604051602081830303815290604052905061125f81611932565b60405160200161126f919061267c565b60405160208183030381529060405291505090565b6001600160a01b03918216600090815260076020908152604080832093909416825291909152205460ff1690565b6112ba6114cd565b6001600160a01b03811661131f5760405162461bcd60e51b815260206004820152602660248201527f4f776e61626c653a206e6577206f776e657220697320746865207a65726f206160448201526564647265737360d01b606482015260840161094a565b611328816115e6565b50565b600e805461087490612410565b600d805461087490612410565b600080548210156113855760005b506000828152600460205260408120549081900361137b57611374836127c2565b9250611353565b600160e01b161590505b919050565b8060005260046000fd5b600061139f83610a7c565b90508180156113b75750336001600160a01b03821614155b156113da576113c68133611284565b6113da576113da6367d9dca160e11b61138a565b60008381526006602052604080822080546001600160a01b0319166001600160a01b0388811691821790925591518693918516917f8c5be1e5ebec7d5bd14f71427d1e84f3dd0314c0f7b2291e5b200ac8c7c3b92591a450505050565b600081815260046020526040902054806000036114aa57600054821061146757611467636f96cda160e11b61138a565b5b5060001901600081815260046020526040902054801561146857600160e01b811660000361149557919050565b6114a5636f96cda160e11b61138a565b611468565b600160e01b81166000036114bd57919050565b611385636f96cda160e11b61138a565b6009546001600160a01b03163314610af85760405162461bcd60e51b815260206004820181905260248201527f4f776e61626c653a2063616c6c6572206973206e6f7420746865206f776e6572604482015260640161094a565b60008054908290036115435761154363b562e8dd60e01b61138a565b60008181526004602090815260408083206001600160a01b0387164260a01b6001881460e11b178117909155808452600590925282208054680100000000000000018602019055908190036115a1576115a1622e076360e81b61138a565b818301825b808360007fddf252ad1be2c89b69c2b068fc378daa952ba7f163c4a11628f55a4df523b3ef600080a48181600101915081036115a6575060005550505050565b600980546001600160a01b038381166001600160a01b0319831681179093556040519116919082907f8be0079c531659141344cd1fd0a4f28419497f9722a3daafe3b4186f6b6457e090600090a35050565b604051630a85bd0160e11b81526000906001600160a01b0385169063150b7a029061166d9033908990889088906004016127d9565b6020604051808303816000875af19250505080156116a8575060408051601f3d908101601f191682019092526116a591810190612816565b60015b6116fd573d8080156116d6576040519150601f19603f3d011682016040523d82523d6000602084013e6116db565b606091505b5080516000036116f5576116f56368d2bf6b60e11b61138a565b805181602001fd5b6001600160e01b031916630a85bd0160e11b1490505b949350505050565b60606000829050600081516001600160401b0381111561173d5761173d612015565b6040519080825280601f01601f191660200182016040528015611767576020820181803683370190505b50905060005b825181101561184e5782818151811061178857611788612556565b602001015160f81c60f81b8282815181106117a5576117a5612556565b60200101906001600160f81b031916908160001a9053506040805180820190915260018152601160f91b602090910181905282518390839081106117eb576117eb612556565b01602001516001600160f81b03191603611846576040805180820190915260018152602760f81b6020909101819052825183908390811061182e5761182e612556565b60200101906001600160f81b031916908160001a9053505b60010161176d565b509392505050565b6060600061186383611a91565b60010190506000816001600160401b0381111561188257611882612015565b6040519080825280601f01601f1916602001820160405280156118ac576020820181803683370190505b5090508181016020015b600019016f181899199a1a9b1b9c1cb0b131b232b360811b600a86061a8153600a85049450846118b657509392505050565b606061190c600e600d6118fa85611b69565b604051602001610fa4939291906128a5565b60405160200161191c9190612a57565b6040516020818303038152906040529050919050565b6060815160000361195157505060408051602081019091526000815290565b6000604051806060016040528060408152602001612b4d60409139905060006003845160026119809190612a9c565b61198a9190612aaf565b611995906004612ac3565b6001600160401b038111156119ac576119ac612015565b6040519080825280601f01601f1916602001820160405280156119d6576020820181803683370190505b50905060018201602082018586518701602081018051600082525b82841015611a4c576003840193508351603f8160121c168701518653600186019550603f81600c1c168701518653600186019550603f8160061c168701518653600186019550603f81168701518653506001850194506119f1565b9052505085516003900660018114611a6b5760028114611a7e57611a86565b603d6001830353603d6002830353611a86565b603d60018303535b509195945050505050565b60008072184f03e93ff9f4daa797ed6e38ed64bf6a1f0160401b8310611ad05772184f03e93ff9f4daa797ed6e38ed64bf6a1f0160401b830492506040015b6d04ee2d6d415b85acef81000000008310611afc576d04ee2d6d415b85acef8100000000830492506020015b662386f26fc100008310611b1a57662386f26fc10000830492506010015b6305f5e1008310611b32576305f5e100830492506008015b6127108310611b4657612710830492506004015b60648310611b58576064830492506002015b600a83106105ff5760010192915050565b6060620151806000611b7b8285612aaf565b90506107b261016d5b808310611bff57611b96600483612582565b158015611bac5750611ba9606483612582565b15155b80611bc05750611bbe61019083612582565b155b15611bf35761016e8310611bee57611bda61016e84612ada565b9250611be7600183612a9c565b9150611b84565b611bff565b611bda61016d84612ada565b6040805161018081018252601f808252601c6020830152918101829052601e606082018190526080820183905260a0820181905260c0820183905260e0820183905261010082018190526101208201839052610140820152610160810191909152611c6b600484612582565b158015611c815750611c7e606484612582565b15155b80611c955750611c9361019084612582565b155b15611ca257601d60208201525b60005b600c81108015611cce57508181600c8110611cc257611cc2612556565b602002015160ff168510155b15611d0b578181600c8110611ce557611ce5612556565b6020020151611cf79060ff1686612ada565b9450611d04600182612a9c565b9050611ca5565b611d16600182612a9c565b90506000611d25866001612a9c565b604080516101c08101825260036101808201818152622520a760e91b6101a0840152825282518084018452818152622322a160e91b60208281019190915280840191909152835180850185528281526226a0a960e91b8183015283850152835180850185528281526220a82960e91b81830152606084015283518085018552828152624d415960e81b8183015260808401528351808501855282815262252aa760e91b8183015260a0840152835180850185528281526212955360ea1b8183015260c0840152835180850185528281526241554760e81b8183015260e0840152835180850185528281526205345560ec1b81830152610100840152835180850185528281526213d0d560ea1b8183015261012084015283518085018552828152622727ab60e91b8183015261014084015283518085019094529083526244454360e81b90830152610160810191909152909150600081611e86600186612ada565b600c8110611e9657611e96612556565b6020020151905080611ea784611856565b611eb089611856565b604051602001611ec293929190612aed565b6040516020818303038152906040529950505050505050505050919050565b6001600160e01b03198116811461132857600080fd5b600060208284031215611f0957600080fd5b8135611f1481611ee1565b9392505050565b60005b83811015611f36578181015183820152602001611f1e565b50506000910152565b60008151808452611f57816020860160208601611f1b565b601f01601f19169290920160200192915050565b602081526000611f146020830184611f3f565b600060208284031215611f9057600080fd5b5035919050565b80356001600160a01b038116811461138557600080fd5b60008060408385031215611fc157600080fd5b611fca83611f97565b946020939093013593505050565b600080600060608486031215611fed57600080fd5b611ff684611f97565b925061200460208501611f97565b929592945050506040919091013590565b634e487b7160e01b600052604160045260246000fd5b604051601f8201601f191681016001600160401b038111828210171561205357612053612015565b604052919050565b6000806001600160401b0384111561207557612075612015565b50601f8301601f191660200161208a8161202b565b91505082815283838301111561209f57600080fd5b828260208301376000602084830101529392505050565b600082601f8301126120c757600080fd5b611f148383356020850161205b565b6000602082840312156120e857600080fd5b81356001600160401b038111156120fe57600080fd5b611713848285016120b6565b60006001600160401b0382111561212357612123612015565b5060051b60200190565b600082601f83011261213e57600080fd5b813561215161214c8261210a565b61202b565b8082825260208201915060208360051b86010192508583111561217357600080fd5b602085015b838110156121b45780356001600160401b0381111561219657600080fd5b6121a5886020838a01016120b6565b84525060209283019201612178565b5095945050505050565b600080604083850312156121d157600080fd5b82356001600160401b038111156121e757600080fd5b8301601f810185136121f857600080fd5b803561220661214c8261210a565b8082825260208201915060208360051b85010192508783111561222857600080fd5b6020840193505b8284101561224a57833582526020938401939091019061222f565b945050505060208301356001600160401b0381111561226857600080fd5b6122748582860161212d565b9150509250929050565b60006020828403121561229057600080fd5b611f1482611f97565b600080604083850312156122ac57600080fd5b8235915060208301356001600160401b038111156122c957600080fd5b612274858286016120b6565b600080604083850312156122e857600080fd5b6122f183611f97565b91506020830135801515811461230657600080fd5b809150509250929050565b6000806040838503121561232457600080fd5b82356001600160401b0381111561233a57600080fd5b612346858286016120b6565b92505060208301356001600160401b038111156122c957600080fd5b6000806000806080858703121561237857600080fd5b61238185611f97565b935061238f60208601611f97565b92506040850135915060608501356001600160401b038111156123b157600080fd5b8501601f810187136123c257600080fd5b6123d18782356020840161205b565b91505092959194509250565b600080604083850312156123f057600080fd5b6123f983611f97565b915061240760208401611f97565b90509250929050565b600181811c9082168061242457607f821691505b60208210810361244457634e487b7160e01b600052602260045260246000fd5b50919050565b601f821115610a1f57806000526020600020601f840160051c810160208510156124715750805b601f840160051c820191505b81811015612491576000815560010161247d565b5050505050565b81516001600160401b038111156124b1576124b1612015565b6124c5816124bf8454612410565b8461244a565b6020601f8211600181146124f957600083156124e15750848201515b600019600385901b1c1916600184901b178455612491565b600084815260208120601f198516915b828110156125295787850151825560209485019460019092019101612509565b50848210156125475786840151600019600387901b60f8161c191681555b50505050600190811b01905550565b634e487b7160e01b600052603260045260246000fd5b634e487b7160e01b600052601260045260246000fd5b6000826125915761259161256c565b500690565b600081516125a8818560208601611f1b565b9290920192915050565b683d913730b6b2911d1160b91b815284516000906125d7816009850160208a01611f1b565b61202360f01b60099184019182015285516125f981600b840160208a01611f1b565b600981830101915050701116113232b9b1b934b83a34b7b7111d1160791b6002820152845161262f816013840160208901611f1b565b6002818301019150506a11161134b6b0b3b2911d1160a91b6011820152835161265f81601c840160208801611f1b565b61227d60f01b601c9290910191820152601e019695505050505050565b7f646174613a6170706c69636174696f6e2f6a736f6e3b6261736536342c0000008152600082516126b481601d850160208701611f1b565b91909101601d0192915050565b683d913730b6b2911d1160b91b815284516000906126e6816009850160208a01611f1b565b701116113232b9b1b934b83a34b7b7111d1160791b600991840191820152855161271781601a840160208a01611f1b565b61088b60f21b601a9290910191820152681134b6b0b3b2911d1160b91b601c8201528451600982019161275290829060250160208901611f1b565b601181830101915050711116113130b73732b92fb4b6b0b3b2911d1160711b600b820152835161278981601d840160208801611f1b565b6127a0601d8383010161227d60f01b815260020190565b98975050505050505050565b634e487b7160e01b600052601160045260246000fd5b6000816127d1576127d16127ac565b506000190190565b6001600160a01b038581168252841660208201526040810183905260806060820181905260009061280c90830184611f3f565b9695505050505050565b60006020828403121561282857600080fd5b8151611f1481611ee1565b6000815461284081612410565b600182168015612857576001811461286c5761289c565b60ff198316865281151582028601935061289c565b84600052602060002060005b8381101561289457815488820152600190910190602001612878565b505081860193505b50505092915050565b7f3c73766720786d6c6e733d22687474703a2f2f7777772e77332e6f72672f323081527f30302f737667222077696474683d2238303022206865696768743d223630302260208201527f2076696577426f783d223020302038303020363030223e00000000000000000060408201527f3c726563742077696474683d223130302522206865696768743d223130302522605782015266103334b6361e9160c91b60778201526000612959607e830186612833565b631110179f60e11b81527f3c7465787420783d223530252220793d223530252220646f6d696e616e742d6260048201527f6173656c696e653d226d6964646c652220746578742d616e63686f723d226d6960248201527f64646c652220666f6e742d66616d696c793d22417269616c2220666f6e742d7360448201527f697a653d2238342220666f6e742d7765696768743d22363030222066696c6c3d6064820152601160f91b608482015261280c612a45612a32612a2c612a1e608586018a612833565b61111f60f11b815260020190565b87612596565b661e17ba32bc3a1f60c91b815260070190565b651e17b9bb339f60d11b815260060190565b7f646174613a696d6167652f7376672b786d6c3b6261736536342c000000000000815260008251612a8f81601a850160208701611f1b565b91909101601a0192915050565b808201808211156105ff576105ff6127ac565b600082612abe57612abe61256c565b500490565b80820281158282048414176105ff576105ff6127ac565b818103818111156105ff576105ff6127ac565b60008451612aff818460208901611f1b565b601760f91b9083019081528451612b1d816001840160208901611f1b565b600b60fa1b600192909101918201528351612b3f816002840160208801611f1b565b016002019594505050505056fe4142434445464748494a4b4c4d4e4f505152535455565758595a6162636465666768696a6b6c6d6e6f707172737475767778797a303132333435363738392b2fa2646970667358221220e83b9542b1b891be0f37083937920856599a6d2c16190f81f3147b3c205ce0fb64736f6c634300081d0033a264697066735822122015390199cac0e2f55e0934399c13500220ab31c077f83ced44ed9eaaa688cba264736f6c634300081d0033",
  "linkReferences": {},
  "deployedLinkReferences": {}
}