{
  "_format": "hh-sol-artifact-1",
  "contractName": "Factory",
  "sourceName": "contracts/Factory.sol",
  "abi": [
    {
      "inputs": [],
      "stateMutability": "nonpayable",
      "type": "constructor"
    },
    {
      "anonymous": false,
      "inputs": [
        {
          "indexed": true,
          "internalType": "address",
          "name": "deployer",
          "type": "address"
        },
        {
          "indexed": false,
          "internalType": "address",
          "name": "contractAddress",
          "type": "address"
        },
        {
          "indexed": false,
          "internalType": "string",
          "name": "name",
          "type": "string"
        },
        {
          "indexed": false,
          "internalType": "uint256",
          "name": "mintAmount",
          "type": "uint256"
        }
      ],
      "name": "Deployed",
      "type": "event"
    },
    {
      "anonymous": false,
      "inputs": [
        {
          "indexed": true,
          "internalType": "address",
          "name": "previousOwner",
          "type": "address"
        },
        {
          "indexed": true,
          "internalType": "address",
          "name": "newOwner",
          "type": "address"
        }
      ],
      "name": "OwnershipTransferred",
      "type": "event"
    },
    {
      "inputs": [],
      "name": "OPENSEA_CONDUIT_CONTROLLER",
      "outputs": [
        {
          "internalType": "address",
          "name": "",
          "type": "address"
        }
      ],
      "stateMutability": "view",
      "type": "function"
    },
    {
      "inputs": [],
      "name": "OPENSEA_CONDUIT_KEY",
      "outputs": [
        {
          "internalType": "bytes32",
          "name": "",
          "type": "bytes32"
        }
      ],
      "stateMutability": "view",
      "type": "function"
    },
    {
      "inputs": [
        {
          "internalType": "uint256",
          "name": "",
          "type": "uint256"
        }
      ],
      "name": "contracts",
      "outputs": [
        {
          "internalType": "address",
          "name": "",
          "type": "address"
        }
      ],
      "stateMutability": "view",
      "type": "function"
    },
    {
      "inputs": [
        {
          "internalType": "address",
          "name": "",
          "type": "address"
        },
        {
          "internalType": "uint256",
          "name": "",
          "type": "uint256"
        }
      ],
      "name": "contractsByDeployer",
      "outputs": [
        {
          "internalType": "address",
          "name": "",
          "type": "address"
        }
      ],
      "stateMutability": "view",
      "type": "function"
    },
    {
      "inputs": [
        {
          "internalType": "uint256",
          "name": "mintAmount",
          "type": "uint256"
        },
        {
          "internalType": "address",
          "name": "owner",
          "type": "address"
        },
        {
          "internalType": "string",
          "name": "name",
          "type": "string"
        },
        {
          "internalType": "string",
          "name": "imageUrl",
          "type": "string"
        },
        {
          "internalType": "string",
          "name": "textColor",
          "type": "string"
        },
        {
          "internalType": "string",
          "name": "bgColor",
          "type": "string"
        },
        {
          "internalType": "string",
          "name": "contractURI",
          "type": "string"
        },
        {
          "internalType": "string",
          "name": "bannerImage",
          "type": "string"
        }
      ],
      "name": "deploy",
      "outputs": [
        {
          "internalType": "address",
          "name": "",
          "type": "address"
        }
      ],
      "stateMutability": "nonpayable",
      "type": "function"
    },
    {
      "inputs": [],
      "name": "getConduitAddress",
      "outputs": [
        {
          "internalType": "address",
          "name": "conduit",
          "type": "address"
        }
      ],
      "stateMutability": "view",
      "type": "function"
    },
    {
      "inputs": [
        {
          "internalType": "address",
          "name": "deployer",
          "type": "address"
        }
      ],
      "name": "getContractsByDeployer",
      "outputs": [
        {
          "internalType": "address[]",
          "name": "",
          "type": "address[]"
        }
      ],
      "stateMutability": "view",
      "type": "function"
    },
    {
      "inputs": [],
      "name": "getContractsCount",
      "outputs": [
        {
          "internalType": "uint256",
          "name": "",
          "type": "uint256"
        }
      ],
      "stateMutability": "view",
      "type": "function"
    },
    {
      "inputs": [
        {
          "internalType": "address",
          "name": "deployer",
          "type": "address"
        }
      ],
      "name": "getContractsCountByDeployer",
      "outputs": [
        {
          "internalType": "uint256",
          "name": "",
          "type": "uint256"
        }
      ],
      "stateMutability": "view",
      "type": "function"
    },
    {
      "inputs": [],
      "name": "owner",
      "outputs": [
        {
          "internalType": "address",
          "name": "",
          "type": "address"
        }
      ],
      "stateMutability": "view",
      "type": "function"
    },
    {
      "inputs": [],
      "name": "renounceOwnership",
      "outputs": [],
      "stateMutability": "nonpayable",
      "type": "function"
    },
    {
      "inputs": [
        {
          "internalType": "address",
          "name": "newOwner",
          "type": "address"
        }
      ],
      "name": "transferOwnership",
      "outputs": [],
      "stateMutability": "nonpayable",
      "type": "function"
    }
  ],
  "bytecode": "0x6080604052348015600f57600080fd5b506017336022565b601e336022565b6072565b600080546001600160a01b038381166001600160a01b0319831681178455604051919092169283917f8be0079c531659141344cd1fd0a4f28419497f9722a3daafe3b4186f6b6457e09190a35050565b614148806100816000396000f3fe608060405234801561001057600080fd5b50600436106100b45760003560e01c8063b0a09b0811610071578063b0a09b081461013c578063ce42cfca1461015c578063e68296d014610180578063edc595b114610197578063f27d5f46146101c0578063f2fde38b146101c857600080fd5b8063474da79a146100b957806349c33209146100e9578063715018a6146100fc5780637b929723146101065780638da5cb5b146101195780639683584f1461012a575b600080fd5b6100cc6100c736600461080e565b6101db565b6040516001600160a01b0390911681526020015b60405180910390f35b6100cc6100f73660046108e8565b610205565b610104610504565b005b6100cc610114366004610a1a565b610518565b6000546001600160a01b03166100cc565b6001545b6040519081526020016100e0565b61014f61014a366004610a44565b610550565b6040516100e09190610a66565b61012e7c7b02230091a7ed01230072f7006a004d60a8d4e71d599b8104250f000081565b6100cc6ff9490004c11cef243f5400493c00ad6381565b61012e6101a5366004610a44565b6001600160a01b031660009081526002602052604090205490565b6100cc6105c6565b6101046101d6366004610a44565b6106de565b600181815481106101eb57600080fd5b6000918252602090912001546001600160a01b0316905081565b60006001600160a01b038816610219573397505b6000878787878660405161022c90610801565b61023a959493929190610b02565b604051809103906000f080158015610256573d6000803e3d6000fd5b50905060006102636105c6565b60405163a22cb46560e01b81526001600160a01b038083166004830152600160248301529192509083169063a22cb46590604401600060405180830381600087803b1580156102b157600080fd5b505af11580156102c5573d6000803e3d6000fd5b5050505060008b1115610335576040516340c10f1960e01b81526001600160a01b038b81166004830152602482018d90528316906340c10f1990604401600060405180830381600087803b15801561031c57600080fd5b505af1158015610330573d6000803e3d6000fd5b505050505b84511561039b5760405163938e3d7b60e01b81526001600160a01b0383169063938e3d7b90610368908890600401610b6f565b600060405180830381600087803b15801561038257600080fd5b505af1158015610396573d6000803e3d6000fd5b505050505b60405163f2fde38b60e01b81526001600160a01b038b8116600483015283169063f2fde38b90602401600060405180830381600087803b1580156103de57600080fd5b505af11580156103f2573d6000803e3d6000fd5b5050505060008290506001819080600181540180825580915050600190039060005260206000200160009091909190916101000a8154816001600160a01b0302191690836001600160a01b0316021790555060026000336001600160a01b03166001600160a01b03168152602001908152602001600020819080600181540180825580915050600190039060005260206000200160009091909190916101000a8154816001600160a01b0302191690836001600160a01b03160217905550336001600160a01b03167f55372325cd98024562bf2aa30eacb8ea4f5921ead740809aa89fd8bd9e3ba3b4828c8f6040516104ed93929190610b82565b60405180910390a29b9a5050505050505050505050565b61050c610757565b61051660006107b1565b565b6002602052816000526040600020818154811061053457600080fd5b6000918252602090912001546001600160a01b03169150829050565b6001600160a01b0381166000908152600260209081526040918290208054835181840281018401909452808452606093928301828280156105ba57602002820191906000526020600020905b81546001600160a01b0316815260019091019060200180831161059c575b50505050509050919050565b6040517c7b02230091a7ed01230072f7006a004d60a8d4e71d599b8104250f00006024820152600090819081906ff9490004c11cef243f5400493c00ad639060440160408051601f198184030181529181526020820180516001600160e01b0316636e9bfd9f60e01b1790525161063d9190610bb6565b600060405180830381855afa9150503d8060008114610678576040519150601f19603f3d011682016040523d82523d6000602084013e61067d565b606091505b5091509150816106d45760405162461bcd60e51b815260206004820152601d60248201527f4661696c656420746f2067657420636f6e64756974206164647265737300000060448201526064015b60405180910390fd5b6020015192915050565b6106e6610757565b6001600160a01b03811661074b5760405162461bcd60e51b815260206004820152602660248201527f4f776e61626c653a206e6577206f776e657220697320746865207a65726f206160448201526564647265737360d01b60648201526084016106cb565b610754816107b1565b50565b6000546001600160a01b031633146105165760405162461bcd60e51b815260206004820181905260248201527f4f776e61626c653a2063616c6c6572206973206e6f7420746865206f776e657260448201526064016106cb565b600080546001600160a01b038381166001600160a01b0319831681178455604051919092169283917f8be0079c531659141344cd1fd0a4f28419497f9722a3daafe3b4186f6b6457e09190a35050565b61354080610bd383390190565b60006020828403121561082057600080fd5b5035919050565b80356001600160a01b038116811461083e57600080fd5b919050565b634e487b7160e01b600052604160045260246000fd5b600082601f83011261086a57600080fd5b813567ffffffffffffffff81111561088457610884610843565b604051601f8201601f19908116603f0116810167ffffffffffffffff811182821017156108b3576108b3610843565b6040528181528382016020018510156108cb57600080fd5b816020850160208301376000918101602001919091529392505050565b600080600080600080600080610100898b03121561090557600080fd5b8835975061091560208a01610827565b9650604089013567ffffffffffffffff81111561093157600080fd5b61093d8b828c01610859565b965050606089013567ffffffffffffffff81111561095a57600080fd5b6109668b828c01610859565b955050608089013567ffffffffffffffff81111561098357600080fd5b61098f8b828c01610859565b94505060a089013567ffffffffffffffff8111156109ac57600080fd5b6109b88b828c01610859565b93505060c089013567ffffffffffffffff8111156109d557600080fd5b6109e18b828c01610859565b92505060e089013567ffffffffffffffff8111156109fe57600080fd5b610a0a8b828c01610859565b9150509295985092959890939650565b60008060408385031215610a2d57600080fd5b610a3683610827565b946020939093013593505050565b600060208284031215610a5657600080fd5b610a5f82610827565b9392505050565b602080825282518282018190526000918401906040840190835b81811015610aa75783516001600160a01b0316835260209384019390920191600101610a80565b509095945050505050565b60005b83811015610acd578181015183820152602001610ab5565b50506000910152565b60008151808452610aee816020860160208601610ab2565b601f01601f19169290920160200192915050565b60a081526000610b1560a0830188610ad6565b8281036020840152610b278188610ad6565b90508281036040840152610b3b8187610ad6565b90508281036060840152610b4f8186610ad6565b90508281036080840152610b638185610ad6565b98975050505050505050565b602081526000610a5f6020830184610ad6565b6001600160a01b0384168152606060208201819052600090610ba690830185610ad6565b9050826040830152949350505050565b60008251610bc8818460208701610ab2565b919091019291505056fe608060405234801561001057600080fd5b5060405161354038038061354083398101604081905261002f9161075b565b61003885610139565b604080518082019091526005815264544f44415960d81b6020820152600261006083826108d3565b50600361006d82826108d3565b5050600080555061007d3361015a565b61008685610139565b600a9061009390826108d3565b50600b6100a085826108d3565b5060008351116100cf57604051806040016040528060078152602001662366356635663560c81b8152506100d1565b825b600c906100de90826108d3565b50600082511161010d57604051806040016040528060078152602001660233030303030360cc1b81525061010f565b815b600d9061011c90826108d3565b50601061012982826108d3565b505042600e5550610a8092505050565b606060008251116101525761014d426101ac565b610154565b815b92915050565b600980546001600160a01b038381166001600160a01b0319831681179093556040519116919082907f8be0079c531659141344cd1fd0a4f28419497f9722a3daafe3b4186f6b6457e090600090a35050565b60606201518060006101be82856109bd565b90506107b261016d5b808310610242576101d96004836109d1565b1580156101ef57506101ec6064836109d1565b15155b806102035750610201610190836109d1565b155b156102365761016e83106102315761021d61016e846109e5565b925061022a6001836109f8565b91506101c7565b610242565b61021d61016d846109e5565b6040805161018081018252601f808252601c6020830152918101829052601e606082018190526080820183905260a0820181905260c0820183905260e08201839052610100820181905261012082018390526101408201526101608101919091526102ae6004846109d1565b1580156102c457506102c16064846109d1565b15155b806102d857506102d6610190846109d1565b155b156102e557601d60208201525b60005b600c8110801561031157508181600c811061030557610305610a0b565b602002015160ff168510155b1561034e578181600c811061032857610328610a0b565b602002015161033a9060ff16866109e5565b94506103476001826109f8565b90506102e8565b6103596001826109f8565b905060006103688660016109f8565b604080516101c08101825260036101808201818152622520a760e91b6101a0840152825282518084018452818152622322a160e91b60208281019190915280840191909152835180850185528281526226a0a960e91b8183015283850152835180850185528281526220a82960e91b81830152606084015283518085018552828152624d415960e81b8183015260808401528351808501855282815262252aa760e91b8183015260a0840152835180850185528281526212955360ea1b8183015260c0840152835180850185528281526241554760e81b8183015260e0840152835180850185528281526205345560ec1b81830152610100840152835180850185528281526213d0d560ea1b8183015261012084015283518085018552828152622727ab60e91b8183015261014084015283518085019094529083526244454360e81b908301526101608101919091529091506000816104c96001866109e5565b600c81106104d9576104d9610a0b565b60200201519050806104ea84610524565b6104f389610524565b60405160200161050593929190610a21565b6040516020818303038152906040529950505050505050505050919050565b60606000610531836105b6565b60010190506000816001600160401b0381111561055057610550610698565b6040519080825280601f01601f19166020018201604052801561057a576020820181803683370190505b5090508181016020015b600019016f181899199a1a9b1b9c1cb0b131b232b360811b600a86061a8153600a850494508461058457509392505050565b6000807a184f03e93ff9f4daa797ed6e38ed64bf6a1f01000000000000000083106105ff577a184f03e93ff9f4daa797ed6e38ed64bf6a1f010000000000000000830492506040015b6d04ee2d6d415b85acef8100000000831061062b576d04ee2d6d415b85acef8100000000830492506020015b662386f26fc10000831061064957662386f26fc10000830492506010015b6305f5e1008310610661576305f5e100830492506008015b612710831061067557612710830492506004015b60648310610687576064830492506002015b600a83106101545760010192915050565b634e487b7160e01b600052604160045260246000fd5b60005b838110156106c95781810151838201526020016106b1565b50506000910152565b600082601f8301126106e357600080fd5b81516001600160401b038111156106fc576106fc610698565b604051601f8201601f19908116603f011681016001600160401b038111828210171561072a5761072a610698565b60405281815283820160200185101561074257600080fd5b6107538260208301602087016106ae565b949350505050565b600080600080600060a0868803121561077357600080fd5b85516001600160401b0381111561078957600080fd5b610795888289016106d2565b602088015190965090506001600160401b038111156107b357600080fd5b6107bf888289016106d2565b604088015190955090506001600160401b038111156107dd57600080fd5b6107e9888289016106d2565b606088015190945090506001600160401b0381111561080757600080fd5b610813888289016106d2565b608088015190935090506001600160401b0381111561083157600080fd5b61083d888289016106d2565b9150509295509295909350565b600181811c9082168061085e57607f821691505b60208210810361087e57634e487b7160e01b600052602260045260246000fd5b50919050565b601f8211156108ce57806000526020600020601f840160051c810160208510156108ab5750805b601f840160051c820191505b818110156108cb57600081556001016108b7565b50505b505050565b81516001600160401b038111156108ec576108ec610698565b610900816108fa845461084a565b84610884565b6020601f821160018114610934576000831561091c5750848201515b600019600385901b1c1916600184901b1784556108cb565b600084815260208120601f198516915b828110156109645787850151825560209485019460019092019101610944565b50848210156109825786840151600019600387901b60f8161c191681555b50505050600190811b01905550565b634e487b7160e01b600052601260045260246000fd5b634e487b7160e01b600052601160045260246000fd5b6000826109cc576109cc610991565b500490565b6000826109e0576109e0610991565b500690565b81810381811115610154576101546109a7565b80820180821115610154576101546109a7565b634e487b7160e01b600052603260045260246000fd5b60008451610a338184602089016106ae565b601760f91b9083019081528451610a518160018401602089016106ae565b600b60fa1b600192909101918201528351610a738160028401602088016106ae565b0160020195945050505050565b612ab180610a8f6000396000f3fe6080604052600436106101e35760003560e01c8063715018a611610102578063b1e3c20711610095578063e985e9c511610064578063e985e9c51461051e578063f2fde38b1461053e578063f57e68061461055e578063fb15e9fd1461057357600080fd5b8063b1e3c207146104b6578063b88d4fde146104d6578063c87b56dd146104e9578063e8a3d4851461050957600080fd5b806395d89b41116100d157806395d89b411461044c578063a22cb46514610461578063aba8315014610481578063aec19c421461049657600080fd5b8063715018a6146103d9578063851fc4b6146103ee5780638da5cb5b1461040e578063938e3d7b1461042c57600080fd5b80633077ac251161017a5780636352211e116101495780636352211e1461036f57806368e803a61461038f5780636cbf6456146103a457806370a08231146103b957600080fd5b80633077ac25146102fc5780633122e4f41461031c57806340c10f191461033c57806342842e0e1461035c57600080fd5b806316ada547116101b657806316ada5471461028c57806318160ddd146102b057806323b872dd146102c95780632abff1f2146102dc57600080fd5b806301ffc9a7146101e857806306fdde031461021d578063081812fc1461023f578063095ea7b314610277575b600080fd5b3480156101f457600080fd5b50610208610203366004611de6565b610588565b60405190151581526020015b60405180910390f35b34801561022957600080fd5b506102326105da565b6040516102149190611e5a565b34801561024b57600080fd5b5061025f61025a366004611e6d565b61066c565b6040516001600160a01b039091168152602001610214565b61028a610285366004611e9d565b6106a7565b005b34801561029857600080fd5b506102a2600e5481565b604051908152602001610214565b3480156102bc57600080fd5b50600154600054036102a2565b61028a6102d7366004611ec7565b6106b7565b3480156102e857600080fd5b5061028a6102f7366004611fc5565b61081c565b34801561030857600080fd5b50610232610317366004611e6d565b610830565b34801561032857600080fd5b5061028a6103373660046120ad565b6108ca565b34801561034857600080fd5b5061028a610357366004611e9d565b6109f9565b61028a61036a366004611ec7565b610a0b565b34801561037b57600080fd5b5061025f61038a366004611e6d565b610a26565b34801561039b57600080fd5b50610232610a31565b3480156103b057600080fd5b50610232610a3e565b3480156103c557600080fd5b506102a26103d436600461216d565b610a4b565b3480156103e557600080fd5b5061028a610a90565b3480156103fa57600080fd5b5061028a610409366004612188565b610aa4565b34801561041a57600080fd5b506009546001600160a01b031661025f565b34801561043857600080fd5b5061028a610447366004611fc5565b610b10565b34801561045857600080fd5b50610232610b51565b34801561046d57600080fd5b5061028a61047c3660046121c4565b610b60565b34801561048d57600080fd5b50610232610bcc565b3480156104a257600080fd5b5061028a6104b1366004612200565b610bd9565b3480156104c257600080fd5b5061028a6104d1366004611fc5565b610bfa565b61028a6104e4366004612251565b610c0e565b3480156104f557600080fd5b50610232610504366004611e6d565b610c4f565b34801561051557600080fd5b50610232610ecf565b34801561052a57600080fd5b506102086105393660046122cc565b611173565b34801561054a57600080fd5b5061028a61055936600461216d565b6111a1565b34801561056a57600080fd5b5061023261121a565b34801561057f57600080fd5b50610232611227565b60006301ffc9a760e01b6001600160e01b0319831614806105b957506380ac58cd60e01b6001600160e01b03198316145b806105d45750635b5e139f60e01b6001600160e01b03198316145b92915050565b6060600a80546105e9906122ff565b80601f0160208091040260200160405190810160405280929190818152602001828054610615906122ff565b80156106625780601f1061063757610100808354040283529160200191610662565b820191906000526020600020905b81548152906001019060200180831161064557829003601f168201915b5050505050905090565b600061067782611234565b61068b5761068b6333d1c03960e21b611279565b506000908152600660205260409020546001600160a01b031690565b6106b382826001611283565b5050565b60006106c282611326565b6001600160a01b0394851694909150811684146106e8576106e862a1148160e81b611279565b60008281526006602052604090208054338082146001600160a01b0388169091141761072c576107188633611173565b61072c5761072c632ce44b5f60e11b611279565b801561073757600082555b6001600160a01b038681166000908152600560205260408082208054600019019055918716808252919020805460010190554260a01b17600160e11b17600085815260046020526040812091909155600160e11b841690036107c9576001840160008181526004602052604081205490036107c75760005481146107c75760008181526004602052604090208490555b505b6001600160a01b0385168481887fddf252ad1be2c89b69c2b068fc378daa952ba7f163c4a11628f55a4df523b3ef600080a48060000361081357610813633a954ecd60e21b611279565b50505050505050565b6108246113bc565b600b6106b38282612387565b60116020526000908152604090208054610849906122ff565b80601f0160208091040260200160405190810160405280929190818152602001828054610875906122ff565b80156108c25780601f10610897576101008083540402835291602001916108c2565b820191906000526020600020905b8154815290600101906020018083116108a557829003601f168201915b505050505081565b6108d26113bc565b80518251146109285760405162461bcd60e51b815260206004820152601860248201527f4d69736d61746368656420696e707574206c656e67746873000000000000000060448201526064015b60405180910390fd5b60005b82518110156109f45761095683828151811061094957610949612445565b6020026020010151611234565b6109995760405162461bcd60e51b8152602060048201526014602482015273151bdad95b88191bd95cc81b9bdd08195e1a5cdd60621b604482015260640161091f565b8181815181106109ab576109ab612445565b6020026020010151601160008584815181106109c9576109c9612445565b6020026020010151815260200190815260200160002090816109eb9190612387565b5060010161092b565b505050565b610a016113bc565b6106b38282611416565b6109f483838360405180602001604052806000815250610c0e565b60006105d482611326565b60108054610849906122ff565b600f8054610849906122ff565b60006001600160a01b038216610a6b57610a6b6323d3ad8160e21b611279565b506001600160a01b03166000908152600560205260409020546001600160401b031690565b610a986113bc565b610aa260006114d5565b565b610aac6113bc565b610ab582611234565b610af85760405162461bcd60e51b8152602060048201526014602482015273151bdad95b88191bd95cc81b9bdd08195e1a5cdd60621b604482015260640161091f565b60008281526011602052604090206109f48282612387565b610b186113bc565b600f610b248282612387565b506040517fa5d4097edda6d87cb9329af83fb3712ef77eeb13738ffe43cc35a4ce305ad96290600090a150565b6060600380546105e9906122ff565b3360008181526007602090815260408083206001600160a01b03871680855290835292819020805460ff191686151590811790915590519081529192917f17307eab39ab6107e8899845ad3d59bd9653f200f220920489ca2b5937696c31910160405180910390a35050565b600b8054610849906122ff565b610be16113bc565b600c610bed8382612387565b50600d6109f48282612387565b610c026113bc565b6010610b248282612387565b610c198484846106b7565b6001600160a01b0383163b15610c4957610c3584848484611527565b610c4957610c496368d2bf6b60e11b611279565b50505050565b6060610c5a82611234565b610c7757604051630a14c4b560e41b815260040160405180910390fd5b60008281526011602052604081208054610c90906122ff565b80601f0160208091040260200160405190810160405280929190818152602001828054610cbc906122ff565b8015610d095780601f10610cde57610100808354040283529160200191610d09565b820191906000526020600020905b815481529060010190602001808311610cec57829003601f168201915b50505050509050600081511115610d205792915050565b610ea8610db6600a8054610d33906122ff565b80601f0160208091040260200160405190810160405280929190818152602001828054610d5f906122ff565b8015610dac5780601f10610d8157610100808354040283529160200191610dac565b820191906000526020600020905b815481529060010190602001808311610d8f57829003601f168201915b505050505061160a565b610dbf85611745565b610dcf600a8054610d33906122ff565b6000600b8054610dde906122ff565b905011610df557610df0600e546117d7565b610e81565b600b8054610e02906122ff565b80601f0160208091040260200160405190810160405280929190818152602001828054610e2e906122ff565b8015610e7b5780601f10610e5057610100808354040283529160200191610e7b565b820191906000526020600020905b815481529060010190602001808311610e5e57829003601f168201915b50505050505b604051602001610e949493929190612477565b604051602081830303815290604052611821565b604051602001610eb89190612541565b604051602081830303815290604052915050919050565b60606000600f8054610ee0906122ff565b90501115610ef557600f80546105e9906122ff565b6000610f07600a8054610d33906122ff565b610f17600a8054610d33906122ff565b6000600b8054610f26906122ff565b905011610f3d57610f38600e546117d7565b610fc9565b600b8054610f4a906122ff565b80601f0160208091040260200160405190810160405280929190818152602001828054610f76906122ff565b8015610fc35780601f10610f9857610100808354040283529160200191610fc3565b820191906000526020600020905b815481529060010190602001808311610fa657829003601f168201915b50505050505b600060108054610fd8906122ff565b905011611095576000600b8054610fee906122ff565b90501161100557611000600e546117d7565b611121565b600b8054611012906122ff565b80601f016020809104026020016040519081016040528092919081815260200182805461103e906122ff565b801561108b5780601f106110605761010080835404028352916020019161108b565b820191906000526020600020905b81548152906001019060200180831161106e57829003601f168201915b5050505050611121565b601080546110a2906122ff565b80601f01602080910402602001604051908101604052809291908181526020018280546110ce906122ff565b801561111b5780601f106110f05761010080835404028352916020019161111b565b820191906000526020600020905b8154815290600101906020018083116110fe57829003601f168201915b50505050505b6040516020016111349493929190612586565b604051602081830303815290604052905061114e81611821565b60405160200161115e9190612541565b60405160208183030381529060405291505090565b6001600160a01b03918216600090815260076020908152604080832093909416825291909152205460ff1690565b6111a96113bc565b6001600160a01b03811661120e5760405162461bcd60e51b815260206004820152602660248201527f4f776e61626c653a206e6577206f776e657220697320746865207a65726f206160448201526564647265737360d01b606482015260840161091f565b611217816114d5565b50565b600d8054610849906122ff565b600c8054610849906122ff565b600080548210156112745760005b506000828152600460205260408120549081900361126a5761126383612687565b9250611242565b600160e01b161590505b919050565b8060005260046000fd5b600061128e83610a26565b90508180156112a65750336001600160a01b03821614155b156112c9576112b58133611173565b6112c9576112c96367d9dca160e11b611279565b60008381526006602052604080822080546001600160a01b0319166001600160a01b0388811691821790925591518693918516917f8c5be1e5ebec7d5bd14f71427d1e84f3dd0314c0f7b2291e5b200ac8c7c3b92591a450505050565b6000818152600460205260409020548060000361139957600054821061135657611356636f96cda160e11b611279565b5b5060001901600081815260046020526040902054801561135757600160e01b811660000361138457919050565b611394636f96cda160e11b611279565b611357565b600160e01b81166000036113ac57919050565b611274636f96cda160e11b611279565b6009546001600160a01b03163314610aa25760405162461bcd60e51b815260206004820181905260248201527f4f776e61626c653a2063616c6c6572206973206e6f7420746865206f776e6572604482015260640161091f565b60008054908290036114325761143263b562e8dd60e01b611279565b60008181526004602090815260408083206001600160a01b0387164260a01b6001881460e11b1781179091558084526005909252822080546801000000000000000186020190559081900361149057611490622e076360e81b611279565b818301825b808360007fddf252ad1be2c89b69c2b068fc378daa952ba7f163c4a11628f55a4df523b3ef600080a4818160010191508103611495575060005550505050565b600980546001600160a01b038381166001600160a01b0319831681179093556040519116919082907f8be0079c531659141344cd1fd0a4f28419497f9722a3daafe3b4186f6b6457e090600090a35050565b604051630a85bd0160e11b81526000906001600160a01b0385169063150b7a029061155c90339089908890889060040161269e565b6020604051808303816000875af1925050508015611597575060408051601f3d908101601f19168201909252611594918101906126db565b60015b6115ec573d8080156115c5576040519150601f19603f3d011682016040523d82523d6000602084013e6115ca565b606091505b5080516000036115e4576115e46368d2bf6b60e11b611279565b805181602001fd5b6001600160e01b031916630a85bd0160e11b1490505b949350505050565b60606000829050600081516001600160401b0381111561162c5761162c611f04565b6040519080825280601f01601f191660200182016040528015611656576020820181803683370190505b50905060005b825181101561173d5782818151811061167757611677612445565b602001015160f81c60f81b82828151811061169457611694612445565b60200101906001600160f81b031916908160001a9053506040805180820190915260018152601160f91b602090910181905282518390839081106116da576116da612445565b01602001516001600160f81b03191603611735576040805180820190915260018152602760f81b6020909101819052825183908390811061171d5761171d612445565b60200101906001600160f81b031916908160001a9053505b60010161165c565b509392505050565b6060600061175283611980565b60010190506000816001600160401b0381111561177157611771611f04565b6040519080825280601f01601f19166020018201604052801561179b576020820181803683370190505b5090508181016020015b600019016f181899199a1a9b1b9c1cb0b131b232b360811b600a86061a8153600a85049450846117a557509392505050565b60606117fb600d600c6117e985611a58565b604051602001610e9493929190612780565b60405160200161180b9190612932565b6040516020818303038152906040529050919050565b6060815160000361184057505060408051602081019091526000815290565b6000604051806060016040528060408152602001612a3c604091399050600060038451600261186f9190612977565b611879919061298a565b61188490600461299e565b6001600160401b0381111561189b5761189b611f04565b6040519080825280601f01601f1916602001820160405280156118c5576020820181803683370190505b50905060018201602082018586518701602081018051600082525b8284101561193b576003840193508351603f8160121c168701518653600186019550603f81600c1c168701518653600186019550603f8160061c168701518653600186019550603f81168701518653506001850194506118e0565b905250508551600390066001811461195a576002811461196d57611975565b603d6001830353603d6002830353611975565b603d60018303535b509195945050505050565b60008072184f03e93ff9f4daa797ed6e38ed64bf6a1f0160401b83106119bf5772184f03e93ff9f4daa797ed6e38ed64bf6a1f0160401b830492506040015b6d04ee2d6d415b85acef810000000083106119eb576d04ee2d6d415b85acef8100000000830492506020015b662386f26fc100008310611a0957662386f26fc10000830492506010015b6305f5e1008310611a21576305f5e100830492506008015b6127108310611a3557612710830492506004015b60648310611a47576064830492506002015b600a83106105d45760010192915050565b6060620151806000611a6a828561298a565b90506107b261016d5b808310611aee57611a856004836129b5565b158015611a9b5750611a986064836129b5565b15155b80611aaf5750611aad610190836129b5565b155b15611ae25761016e8310611add57611ac961016e846129c9565b9250611ad6600183612977565b9150611a73565b611aee565b611ac961016d846129c9565b6040805161018081018252601f808252601c6020830152918101829052601e606082018190526080820183905260a0820181905260c0820183905260e0820183905261010082018190526101208201839052610140820152610160810191909152611b5a6004846129b5565b158015611b705750611b6d6064846129b5565b15155b80611b845750611b82610190846129b5565b155b15611b9157601d60208201525b60005b600c81108015611bbd57508181600c8110611bb157611bb1612445565b602002015160ff168510155b15611bfa578181600c8110611bd457611bd4612445565b6020020151611be69060ff16866129c9565b9450611bf3600182612977565b9050611b94565b611c05600182612977565b90506000611c14866001612977565b604080516101c08101825260036101808201818152622520a760e91b6101a0840152825282518084018452818152622322a160e91b60208281019190915280840191909152835180850185528281526226a0a960e91b8183015283850152835180850185528281526220a82960e91b81830152606084015283518085018552828152624d415960e81b8183015260808401528351808501855282815262252aa760e91b8183015260a0840152835180850185528281526212955360ea1b8183015260c0840152835180850185528281526241554760e81b8183015260e0840152835180850185528281526205345560ec1b81830152610100840152835180850185528281526213d0d560ea1b8183015261012084015283518085018552828152622727ab60e91b8183015261014084015283518085019094529083526244454360e81b90830152610160810191909152909150600081611d756001866129c9565b600c8110611d8557611d85612445565b6020020151905080611d9684611745565b611d9f89611745565b604051602001611db1939291906129dc565b6040516020818303038152906040529950505050505050505050919050565b6001600160e01b03198116811461121757600080fd5b600060208284031215611df857600080fd5b8135611e0381611dd0565b9392505050565b60005b83811015611e25578181015183820152602001611e0d565b50506000910152565b60008151808452611e46816020860160208601611e0a565b601f01601f19169290920160200192915050565b602081526000611e036020830184611e2e565b600060208284031215611e7f57600080fd5b5035919050565b80356001600160a01b038116811461127457600080fd5b60008060408385031215611eb057600080fd5b611eb983611e86565b946020939093013593505050565b600080600060608486031215611edc57600080fd5b611ee584611e86565b9250611ef360208501611e86565b929592945050506040919091013590565b634e487b7160e01b600052604160045260246000fd5b604051601f8201601f191681016001600160401b0381118282101715611f4257611f42611f04565b604052919050565b6000806001600160401b03841115611f6457611f64611f04565b50601f8301601f1916602001611f7981611f1a565b915050828152838383011115611f8e57600080fd5b828260208301376000602084830101529392505050565b600082601f830112611fb657600080fd5b611e0383833560208501611f4a565b600060208284031215611fd757600080fd5b81356001600160401b03811115611fed57600080fd5b61160284828501611fa5565b60006001600160401b0382111561201257612012611f04565b5060051b60200190565b600082601f83011261202d57600080fd5b813561204061203b82611ff9565b611f1a565b8082825260208201915060208360051b86010192508583111561206257600080fd5b602085015b838110156120a35780356001600160401b0381111561208557600080fd5b612094886020838a0101611fa5565b84525060209283019201612067565b5095945050505050565b600080604083850312156120c057600080fd5b82356001600160401b038111156120d657600080fd5b8301601f810185136120e757600080fd5b80356120f561203b82611ff9565b8082825260208201915060208360051b85010192508783111561211757600080fd5b6020840193505b8284101561213957833582526020938401939091019061211e565b945050505060208301356001600160401b0381111561215757600080fd5b6121638582860161201c565b9150509250929050565b60006020828403121561217f57600080fd5b611e0382611e86565b6000806040838503121561219b57600080fd5b8235915060208301356001600160401b038111156121b857600080fd5b61216385828601611fa5565b600080604083850312156121d757600080fd5b6121e083611e86565b9150602083013580151581146121f557600080fd5b809150509250929050565b6000806040838503121561221357600080fd5b82356001600160401b0381111561222957600080fd5b61223585828601611fa5565b92505060208301356001600160401b038111156121b857600080fd5b6000806000806080858703121561226757600080fd5b61227085611e86565b935061227e60208601611e86565b92506040850135915060608501356001600160401b038111156122a057600080fd5b8501601f810187136122b157600080fd5b6122c087823560208401611f4a565b91505092959194509250565b600080604083850312156122df57600080fd5b6122e883611e86565b91506122f660208401611e86565b90509250929050565b600181811c9082168061231357607f821691505b60208210810361233357634e487b7160e01b600052602260045260246000fd5b50919050565b601f8211156109f457806000526020600020601f840160051c810160208510156123605750805b601f840160051c820191505b81811015612380576000815560010161236c565b5050505050565b81516001600160401b038111156123a0576123a0611f04565b6123b4816123ae84546122ff565b84612339565b6020601f8211600181146123e857600083156123d05750848201515b600019600385901b1c1916600184901b178455612380565b600084815260208120601f198516915b8281101561241857878501518255602094850194600190920191016123f8565b50848210156124365786840151600019600387901b60f8161c191681555b50505050600190811b01905550565b634e487b7160e01b600052603260045260246000fd5b6000815161246d818560208601611e0a565b9290920192915050565b683d913730b6b2911d1160b91b8152845160009061249c816009850160208a01611e0a565b61202360f01b60099184019182015285516124be81600b840160208a01611e0a565b600981830101915050701116113232b9b1b934b83a34b7b7111d1160791b600282015284516124f4816013840160208901611e0a565b6002818301019150506a11161134b6b0b3b2911d1160a91b6011820152835161252481601c840160208801611e0a565b61227d60f01b601c9290910191820152601e019695505050505050565b7f646174613a6170706c69636174696f6e2f6a736f6e3b6261736536342c00000081526000825161257981601d850160208701611e0a565b91909101601d0192915050565b683d913730b6b2911d1160b91b815284516000906125ab816009850160208a01611e0a565b701116113232b9b1b934b83a34b7b7111d1160791b60099184019182015285516125dc81601a840160208a01611e0a565b61088b60f21b601a9290910191820152681134b6b0b3b2911d1160b91b601c8201528451600982019161261790829060250160208901611e0a565b601181830101915050711116113130b73732b92fb4b6b0b3b2911d1160711b600b820152835161264e81601d840160208801611e0a565b612665601d8383010161227d60f01b815260020190565b98975050505050505050565b634e487b7160e01b600052601160045260246000fd5b60008161269657612696612671565b506000190190565b6001600160a01b03858116825284166020820152604081018390526080606082018190526000906126d190830184611e2e565b9695505050505050565b6000602082840312156126ed57600080fd5b8151611e0381611dd0565b634e487b7160e01b600052601260045260246000fd5b6000815461271b816122ff565b600182168015612732576001811461274757612777565b60ff1983168652811515820286019350612777565b84600052602060002060005b8381101561276f57815488820152600190910190602001612753565b505081860193505b50505092915050565b7f3c73766720786d6c6e733d22687474703a2f2f7777772e77332e6f72672f323081527f30302f737667222077696474683d2238303022206865696768743d223630302260208201527f2076696577426f783d223020302038303020363030223e00000000000000000060408201527f3c726563742077696474683d223130302522206865696768743d223130302522605782015266103334b6361e9160c91b60778201526000612834607e83018661270e565b631110179f60e11b81527f3c7465787420783d223530252220793d223530252220646f6d696e616e742d6260048201527f6173656c696e653d226d6964646c652220746578742d616e63686f723d226d6960248201527f64646c652220666f6e742d66616d696c793d22417269616c2220666f6e742d7360448201527f697a653d2238342220666f6e742d7765696768743d22363030222066696c6c3d6064820152601160f91b60848201526126d161292061290d6129076128f9608586018a61270e565b61111f60f11b815260020190565b8761245b565b661e17ba32bc3a1f60c91b815260070190565b651e17b9bb339f60d11b815260060190565b7f646174613a696d6167652f7376672b786d6c3b6261736536342c00000000000081526000825161296a81601a850160208701611e0a565b91909101601a0192915050565b808201808211156105d4576105d4612671565b600082612999576129996126f8565b500490565b80820281158282048414176105d4576105d4612671565b6000826129c4576129c46126f8565b500690565b818103818111156105d4576105d4612671565b600084516129ee818460208901611e0a565b601760f91b9083019081528451612a0c816001840160208901611e0a565b600b60fa1b600192909101918201528351612a2e816002840160208801611e0a565b016002019594505050505056fe4142434445464748494a4b4c4d4e4f505152535455565758595a6162636465666768696a6b6c6d6e6f707172737475767778797a303132333435363738392b2fa2646970667358221220dac7f3e414daa1088822e78e075fde7f379229b6134732f2ee6e206239345d9e64736f6c634300081d0033a264697066735822122035e37db8e54571e539429be9bf1489b625c3db105a3a9db4789d035403219b9564736f6c634300081d0033",
  "linkReferences": {},
  "deployedLinkReferences": {}
}