{
  "_format": "hh-sol-artifact-1",
  "contractName": "Factory",
  "sourceName": "contracts/Factory.sol",
  "abi": [
    {
      "inputs": [],
      "stateMutability": "nonpayable",
      "type": "constructor"
    },
    {
      "anonymous": false,
      "inputs": [
        {
          "indexed": true,
          "internalType": "address",
          "name": "deployer",
          "type": "address"
        },
        {
          "indexed": false,
          "internalType": "address",
          "name": "contractAddress",
          "type": "address"
        },
        {
          "indexed": false,
          "internalType": "string",
          "name": "name",
          "type": "string"
        },
        {
          "indexed": false,
          "internalType": "uint256",
          "name": "mintAmount",
          "type": "uint256"
        }
      ],
      "name": "Deployed",
      "type": "event"
    },
    {
      "anonymous": false,
      "inputs": [
        {
          "indexed": true,
          "internalType": "address",
          "name": "previousOwner",
          "type": "address"
        },
        {
          "indexed": true,
          "internalType": "address",
          "name": "newOwner",
          "type": "address"
        }
      ],
      "name": "OwnershipTransferred",
      "type": "event"
    },
    {
      "inputs": [
        {
          "internalType": "uint256",
          "name": "",
          "type": "uint256"
        }
      ],
      "name": "contracts",
      "outputs": [
        {
          "internalType": "address",
          "name": "",
          "type": "address"
        }
      ],
      "stateMutability": "view",
      "type": "function"
    },
    {
      "inputs": [
        {
          "internalType": "address",
          "name": "",
          "type": "address"
        },
        {
          "internalType": "uint256",
          "name": "",
          "type": "uint256"
        }
      ],
      "name": "contractsByDeployer",
      "outputs": [
        {
          "internalType": "address",
          "name": "",
          "type": "address"
        }
      ],
      "stateMutability": "view",
      "type": "function"
    },
    {
      "inputs": [
        {
          "internalType": "uint256",
          "name": "mintAmount",
          "type": "uint256"
        },
        {
          "internalType": "address",
          "name": "owner",
          "type": "address"
        },
        {
          "internalType": "string",
          "name": "name",
          "type": "string"
        },
        {
          "internalType": "string",
          "name": "imageUrl",
          "type": "string"
        },
        {
          "internalType": "string",
          "name": "textColor",
          "type": "string"
        },
        {
          "internalType": "string",
          "name": "bgColor",
          "type": "string"
        }
      ],
      "name": "deploy",
      "outputs": [
        {
          "internalType": "address",
          "name": "",
          "type": "address"
        }
      ],
      "stateMutability": "nonpayable",
      "type": "function"
    },
    {
      "inputs": [
        {
          "internalType": "address",
          "name": "deployer",
          "type": "address"
        }
      ],
      "name": "getContractsByDeployer",
      "outputs": [
        {
          "internalType": "address[]",
          "name": "",
          "type": "address[]"
        }
      ],
      "stateMutability": "view",
      "type": "function"
    },
    {
      "inputs": [],
      "name": "getContractsCount",
      "outputs": [
        {
          "internalType": "uint256",
          "name": "",
          "type": "uint256"
        }
      ],
      "stateMutability": "view",
      "type": "function"
    },
    {
      "inputs": [
        {
          "internalType": "address",
          "name": "deployer",
          "type": "address"
        }
      ],
      "name": "getContractsCountByDeployer",
      "outputs": [
        {
          "internalType": "uint256",
          "name": "",
          "type": "uint256"
        }
      ],
      "stateMutability": "view",
      "type": "function"
    },
    {
      "inputs": [],
      "name": "owner",
      "outputs": [
        {
          "internalType": "address",
          "name": "",
          "type": "address"
        }
      ],
      "stateMutability": "view",
      "type": "function"
    },
    {
      "inputs": [],
      "name": "renounceOwnership",
      "outputs": [],
      "stateMutability": "nonpayable",
      "type": "function"
    },
    {
      "inputs": [
        {
          "internalType": "address",
          "name": "newOwner",
          "type": "address"
        }
      ],
      "name": "transferOwnership",
      "outputs": [],
      "stateMutability": "nonpayable",
      "type": "function"
    }
  ],
  "bytecode": "0x6080604052348015600f57600080fd5b506017336022565b601e336022565b6072565b600080546001600160a01b038381166001600160a01b0319831681178455604051919092169283917f8be0079c531659141344cd1fd0a4f28419497f9722a3daafe3b4186f6b6457e09190a35050565b613248806100816000396000f3fe608060405234801561001057600080fd5b50600436106100935760003560e01c80638da5cb5b116100665780638da5cb5b146100f85780639683584f14610109578063b0a09b081461011b578063edc595b11461013b578063f2fde38b1461016457600080fd5b806338f7d5b614610098578063474da79a146100c8578063715018a6146100db5780637b929723146100e5575b600080fd5b6100ab6100a636600461062c565b610177565b6040516001600160a01b0390911681526020015b60405180910390f35b6100ab6100d6366004610705565b61034a565b6100e3610374565b005b6100ab6100f336600461071e565b610388565b6000546001600160a01b03166100ab565b6001545b6040519081526020016100bf565b61012e610129366004610748565b6103c0565b6040516100bf919061076a565b61010d610149366004610748565b6001600160a01b031660009081526002602052604090205490565b6100e3610172366004610748565b610436565b60006001600160a01b03861661018b573395505b60008585858560405161019d9061055e565b6101aa94939291906107fc565b604051809103906000f0801580156101c6573d6000803e3d6000fd5b5090508715610232576040516340c10f1960e01b81526001600160a01b038881166004830152602482018a90528216906340c10f1990604401600060405180830381600087803b15801561021957600080fd5b505af115801561022d573d6000803e3d6000fd5b505050505b60405163f2fde38b60e01b81526001600160a01b03888116600483015282169063f2fde38b90602401600060405180830381600087803b15801561027557600080fd5b505af1158015610289573d6000803e3d6000fd5b50506001805480820182557fb10e2d527612073b26eecdfd717e6a320cf44b4afac2b0732d9fcbe2b7fa0cf60180546001600160a01b0386166001600160a01b0319918216811790925533600081815260026020908152604080832080549788018155835291209094018054909216909217905590518493509091507f55372325cd98024562bf2aa30eacb8ea4f5921ead740809aa89fd8bd9e3ba3b4906103369084908b908e90610854565b60405180910390a298975050505050505050565b6001818154811061035a57600080fd5b6000918252602090912001546001600160a01b0316905081565b61037c6104b4565b610386600061050e565b565b600260205281600052604060002081815481106103a457600080fd5b6000918252602090912001546001600160a01b03169150829050565b6001600160a01b03811660009081526002602090815260409182902080548351818402810184019094528084526060939283018282801561042a57602002820191906000526020600020905b81546001600160a01b0316815260019091019060200180831161040c575b50505050509050919050565b61043e6104b4565b6001600160a01b0381166104a85760405162461bcd60e51b815260206004820152602660248201527f4f776e61626c653a206e6577206f776e657220697320746865207a65726f206160448201526564647265737360d01b60648201526084015b60405180910390fd5b6104b18161050e565b50565b6000546001600160a01b031633146103865760405162461bcd60e51b815260206004820181905260248201527f4f776e61626c653a2063616c6c6572206973206e6f7420746865206f776e6572604482015260640161049f565b600080546001600160a01b038381166001600160a01b0319831681178455604051919092169283917f8be0079c531659141344cd1fd0a4f28419497f9722a3daafe3b4186f6b6457e09190a35050565b61298a8061088983390190565b80356001600160a01b038116811461058257600080fd5b919050565b634e487b7160e01b600052604160045260246000fd5b600082601f8301126105ae57600080fd5b813567ffffffffffffffff8111156105c8576105c8610587565b604051601f8201601f19908116603f0116810167ffffffffffffffff811182821017156105f7576105f7610587565b60405281815283820160200185101561060f57600080fd5b816020850160208301376000918101602001919091529392505050565b60008060008060008060c0878903121561064557600080fd5b863595506106556020880161056b565b9450604087013567ffffffffffffffff81111561067157600080fd5b61067d89828a0161059d565b945050606087013567ffffffffffffffff81111561069a57600080fd5b6106a689828a0161059d565b935050608087013567ffffffffffffffff8111156106c357600080fd5b6106cf89828a0161059d565b92505060a087013567ffffffffffffffff8111156106ec57600080fd5b6106f889828a0161059d565b9150509295509295509295565b60006020828403121561071757600080fd5b5035919050565b6000806040838503121561073157600080fd5b61073a8361056b565b946020939093013593505050565b60006020828403121561075a57600080fd5b6107638261056b565b9392505050565b602080825282518282018190526000918401906040840190835b818110156107ab5783516001600160a01b0316835260209384019390920191600101610784565b509095945050505050565b6000815180845260005b818110156107dc576020818501810151868301820152016107c0565b506000602082860101526020601f19601f83011685010191505092915050565b60808152600061080f60808301876107b6565b828103602084015261082181876107b6565b9050828103604084015261083581866107b6565b9050828103606084015261084981856107b6565b979650505050505050565b6001600160a01b0384168152606060208201819052600090610878908301856107b6565b905082604083015294935050505056fe608060405234801561001057600080fd5b5060405161298a38038061298a83398101604081905261002f9161074d565b6100388461012b565b604080518082019091526005815264544f44415960d81b602082015260026100608382610898565b50600361006d8282610898565b5050600080555061007d3361014c565b6100868461012b565b600a906100939082610898565b50600b6100a08482610898565b5060008251116100cf57604051806040016040528060078152602001662366356635663560c81b8152506100d1565b815b600c906100de9082610898565b50600081511161010d57604051806040016040528060078152602001660233030303030360cc1b81525061010f565b805b600d9061011c9082610898565b505042600e5550610a45915050565b606060008251116101445761013f4261019e565b610146565b815b92915050565b600980546001600160a01b038381166001600160a01b0319831681179093556040519116919082907f8be0079c531659141344cd1fd0a4f28419497f9722a3daafe3b4186f6b6457e090600090a35050565b60606201518060006101b08285610982565b90506107b261016d5b808310610234576101cb600483610996565b1580156101e157506101de606483610996565b15155b806101f557506101f361019083610996565b155b156102285761016e83106102235761020f61016e846109aa565b925061021c6001836109bd565b91506101b9565b610234565b61020f61016d846109aa565b6040805161018081018252601f808252601c6020830152918101829052601e606082018190526080820183905260a0820181905260c0820183905260e08201839052610100820181905261012082018390526101408201526101608101919091526102a0600484610996565b1580156102b657506102b3606484610996565b15155b806102ca57506102c861019084610996565b155b156102d757601d60208201525b60005b600c8110801561030357508181600c81106102f7576102f76109d0565b602002015160ff168510155b15610340578181600c811061031a5761031a6109d0565b602002015161032c9060ff16866109aa565b94506103396001826109bd565b90506102da565b61034b6001826109bd565b9050600061035a8660016109bd565b604080516101c08101825260036101808201818152622520a760e91b6101a0840152825282518084018452818152622322a160e91b60208281019190915280840191909152835180850185528281526226a0a960e91b8183015283850152835180850185528281526220a82960e91b81830152606084015283518085018552828152624d415960e81b8183015260808401528351808501855282815262252aa760e91b8183015260a0840152835180850185528281526212955360ea1b8183015260c0840152835180850185528281526241554760e81b8183015260e0840152835180850185528281526205345560ec1b81830152610100840152835180850185528281526213d0d560ea1b8183015261012084015283518085018552828152622727ab60e91b8183015261014084015283518085019094529083526244454360e81b908301526101608101919091529091506000816104bb6001866109aa565b600c81106104cb576104cb6109d0565b60200201519050806104dc84610516565b6104e589610516565b6040516020016104f7939291906109e6565b6040516020818303038152906040529950505050505050505050919050565b60606000610523836105a8565b60010190506000816001600160401b038111156105425761054261068a565b6040519080825280601f01601f19166020018201604052801561056c576020820181803683370190505b5090508181016020015b600019016f181899199a1a9b1b9c1cb0b131b232b360811b600a86061a8153600a850494508461057657509392505050565b6000807a184f03e93ff9f4daa797ed6e38ed64bf6a1f01000000000000000083106105f1577a184f03e93ff9f4daa797ed6e38ed64bf6a1f010000000000000000830492506040015b6d04ee2d6d415b85acef8100000000831061061d576d04ee2d6d415b85acef8100000000830492506020015b662386f26fc10000831061063b57662386f26fc10000830492506010015b6305f5e1008310610653576305f5e100830492506008015b612710831061066757612710830492506004015b60648310610679576064830492506002015b600a83106101465760010192915050565b634e487b7160e01b600052604160045260246000fd5b60005b838110156106bb5781810151838201526020016106a3565b50506000910152565b600082601f8301126106d557600080fd5b81516001600160401b038111156106ee576106ee61068a565b604051601f8201601f19908116603f011681016001600160401b038111828210171561071c5761071c61068a565b60405281815283820160200185101561073457600080fd5b6107458260208301602087016106a0565b949350505050565b6000806000806080858703121561076357600080fd5b84516001600160401b0381111561077957600080fd5b610785878288016106c4565b602087015190955090506001600160401b038111156107a357600080fd5b6107af878288016106c4565b604087015190945090506001600160401b038111156107cd57600080fd5b6107d9878288016106c4565b606087015190935090506001600160401b038111156107f757600080fd5b610803878288016106c4565b91505092959194509250565b600181811c9082168061082357607f821691505b60208210810361084357634e487b7160e01b600052602260045260246000fd5b50919050565b601f82111561089357806000526020600020601f840160051c810160208510156108705750805b601f840160051c820191505b81811015610890576000815560010161087c565b50505b505050565b81516001600160401b038111156108b1576108b161068a565b6108c5816108bf845461080f565b84610849565b6020601f8211600181146108f957600083156108e15750848201515b600019600385901b1c1916600184901b178455610890565b600084815260208120601f198516915b828110156109295787850151825560209485019460019092019101610909565b50848210156109475786840151600019600387901b60f8161c191681555b50505050600190811b01905550565b634e487b7160e01b600052601260045260246000fd5b634e487b7160e01b600052601160045260246000fd5b60008261099157610991610956565b500490565b6000826109a5576109a5610956565b500690565b818103818111156101465761014661096c565b808201808211156101465761014661096c565b634e487b7160e01b600052603260045260246000fd5b600084516109f88184602089016106a0565b601760f91b9083019081528451610a168160018401602089016106a0565b600b60fa1b600192909101918201528351610a388160028401602088016106a0565b0160020195945050505050565b611f3680610a546000396000f3fe60806040526004361061014b5760003560e01c8063715018a6116100b6578063b88d4fde1161006f578063b88d4fde14610374578063c87b56dd14610387578063e985e9c5146103a7578063f2fde38b146103c7578063f57e6806146103e7578063fb15e9fd146103fc57600080fd5b8063715018a6146102d75780638da5cb5b146102ec57806395d89b411461030a578063a22cb4651461031f578063aba831501461033f578063aec19c421461035457600080fd5b806323b872dd1161010857806323b872dd146102315780632abff1f21461024457806340c10f191461026457806342842e0e146102845780636352211e1461029757806370a08231146102b757600080fd5b806301ffc9a71461015057806306fdde0314610185578063081812fc146101a7578063095ea7b3146101df57806316ada547146101f457806318160ddd14610218575b600080fd5b34801561015c57600080fd5b5061017061016b366004611536565b610411565b60405190151581526020015b60405180910390f35b34801561019157600080fd5b5061019a610463565b60405161017c91906115aa565b3480156101b357600080fd5b506101c76101c23660046115bd565b6104f5565b6040516001600160a01b03909116815260200161017c565b6101f26101ed3660046115ed565b610530565b005b34801561020057600080fd5b5061020a600e5481565b60405190815260200161017c565b34801561022457600080fd5b506001546000540361020a565b6101f261023f366004611617565b610540565b34801561025057600080fd5b506101f261025f366004611704565b6106a5565b34801561027057600080fd5b506101f261027f3660046115ed565b6106b9565b6101f2610292366004611617565b6106cb565b3480156102a357600080fd5b506101c76102b23660046115bd565b6106eb565b3480156102c357600080fd5b5061020a6102d2366004611739565b6106f6565b3480156102e357600080fd5b506101f261073c565b3480156102f857600080fd5b506009546001600160a01b03166101c7565b34801561031657600080fd5b5061019a610750565b34801561032b57600080fd5b506101f261033a366004611754565b61075f565b34801561034b57600080fd5b5061019a6107cb565b34801561036057600080fd5b506101f261036f366004611790565b610859565b6101f26103823660046117f9565b61087a565b34801561039357600080fd5b5061019a6103a23660046115bd565b6108bb565b3480156103b357600080fd5b506101706103c2366004611875565b6109f7565b3480156103d357600080fd5b506101f26103e2366004611739565b610a25565b3480156103f357600080fd5b5061019a610aa3565b34801561040857600080fd5b5061019a610ab0565b60006301ffc9a760e01b6001600160e01b03198316148061044257506380ac58cd60e01b6001600160e01b03198316145b8061045d5750635b5e139f60e01b6001600160e01b03198316145b92915050565b6060600a8054610472906118a8565b80601f016020809104026020016040519081016040528092919081815260200182805461049e906118a8565b80156104eb5780601f106104c0576101008083540402835291602001916104eb565b820191906000526020600020905b8154815290600101906020018083116104ce57829003601f168201915b5050505050905090565b600061050082610abd565b610514576105146333d1c03960e21b610b02565b506000908152600660205260409020546001600160a01b031690565b61053c82826001610b0c565b5050565b600061054b82610baf565b6001600160a01b0394851694909150811684146105715761057162a1148160e81b610b02565b60008281526006602052604090208054338082146001600160a01b038816909114176105b5576105a186336109f7565b6105b5576105b5632ce44b5f60e11b610b02565b80156105c057600082555b6001600160a01b038681166000908152600560205260408082208054600019019055918716808252919020805460010190554260a01b17600160e11b17600085815260046020526040812091909155600160e11b84169003610652576001840160008181526004602052604081205490036106505760005481146106505760008181526004602052604090208490555b505b6001600160a01b0385168481887fddf252ad1be2c89b69c2b068fc378daa952ba7f163c4a11628f55a4df523b3ef600080a48060000361069c5761069c633a954ecd60e21b610b02565b50505050505050565b6106ad610c45565b600b61053c8282611930565b6106c1610c45565b61053c8282610c9f565b6106e68383836040518060200160405280600081525061087a565b505050565b600061045d82610baf565b60006001600160a01b038216610716576107166323d3ad8160e21b610b02565b506001600160a01b031660009081526005602052604090205467ffffffffffffffff1690565b610744610c45565b61074e6000610d5e565b565b606060038054610472906118a8565b3360008181526007602090815260408083206001600160a01b03871680855290835292819020805460ff191686151590811790915590519081529192917f17307eab39ab6107e8899845ad3d59bd9653f200f220920489ca2b5937696c31910160405180910390a35050565b600b80546107d8906118a8565b80601f0160208091040260200160405190810160405280929190818152602001828054610804906118a8565b80156108515780601f1061082657610100808354040283529160200191610851565b820191906000526020600020905b81548152906001019060200180831161083457829003601f168201915b505050505081565b610861610c45565b600c61086d8382611930565b50600d6106e68282611930565b610885848484610540565b6001600160a01b0383163b156108b5576108a184848484610db0565b6108b5576108b56368d2bf6b60e11b610b02565b50505050565b60606108c682610abd565b6108e357604051630a14c4b560e41b815260040160405180910390fd5b60006108f0600e54610e93565b90506109d0600a826000600b8054610907906118a8565b90501161091e57610919600e5461120b565b6109aa565b600b805461092b906118a8565b80601f0160208091040260200160405190810160405280929190818152602001828054610957906118a8565b80156109a45780601f10610979576101008083540402835291602001916109a4565b820191906000526020600020905b81548152906001019060200180831161098757829003601f168201915b50505050505b6040516020016109bc93929190611a7d565b604051602081830303815290604052611255565b6040516020016109e09190611b0d565b604051602081830303815290604052915050919050565b6001600160a01b03918216600090815260076020908152604080832093909416825291909152205460ff1690565b610a2d610c45565b6001600160a01b038116610a975760405162461bcd60e51b815260206004820152602660248201527f4f776e61626c653a206e6577206f776e657220697320746865207a65726f206160448201526564647265737360d01b60648201526084015b60405180910390fd5b610aa081610d5e565b50565b600d80546107d8906118a8565b600c80546107d8906118a8565b60008054821015610afd5760005b5060008281526004602052604081205490819003610af357610aec83611b68565b9250610acb565b600160e01b161590505b919050565b8060005260046000fd5b6000610b17836106eb565b9050818015610b2f5750336001600160a01b03821614155b15610b5257610b3e81336109f7565b610b5257610b526367d9dca160e11b610b02565b60008381526006602052604080822080546001600160a01b0319166001600160a01b0388811691821790925591518693918516917f8c5be1e5ebec7d5bd14f71427d1e84f3dd0314c0f7b2291e5b200ac8c7c3b92591a450505050565b60008181526004602052604090205480600003610c22576000548210610bdf57610bdf636f96cda160e11b610b02565b5b50600019016000818152600460205260409020548015610be057600160e01b8116600003610c0d57919050565b610c1d636f96cda160e11b610b02565b610be0565b600160e01b8116600003610c3557919050565b610afd636f96cda160e11b610b02565b6009546001600160a01b0316331461074e5760405162461bcd60e51b815260206004820181905260248201527f4f776e61626c653a2063616c6c6572206973206e6f7420746865206f776e65726044820152606401610a8e565b6000805490829003610cbb57610cbb63b562e8dd60e01b610b02565b60008181526004602090815260408083206001600160a01b0387164260a01b6001881460e11b17811790915580845260059092528220805468010000000000000001860201905590819003610d1957610d19622e076360e81b610b02565b818301825b808360007fddf252ad1be2c89b69c2b068fc378daa952ba7f163c4a11628f55a4df523b3ef600080a4818160010191508103610d1e575060005550505050565b600980546001600160a01b038381166001600160a01b0319831681179093556040519116919082907f8be0079c531659141344cd1fd0a4f28419497f9722a3daafe3b4186f6b6457e090600090a35050565b604051630a85bd0160e11b81526000906001600160a01b0385169063150b7a0290610de5903390899088908890600401611b7f565b6020604051808303816000875af1925050508015610e20575060408051601f3d908101601f19168201909252610e1d91810190611bbc565b60015b610e75573d808015610e4e576040519150601f19603f3d011682016040523d82523d6000602084013e610e53565b606091505b508051600003610e6d57610e6d6368d2bf6b60e11b610b02565b805181602001fd5b6001600160e01b031916630a85bd0160e11b1490505b949350505050565b6060620151806000610ea58285611bef565b90506107b261016d5b808310610f2957610ec0600483611c03565b158015610ed65750610ed3606483611c03565b15155b80610eea5750610ee861019083611c03565b155b15610f1d5761016e8310610f1857610f0461016e84611c17565b9250610f11600183611c2a565b9150610eae565b610f29565b610f0461016d84611c17565b6040805161018081018252601f808252601c6020830152918101829052601e606082018190526080820183905260a0820181905260c0820183905260e0820183905261010082018190526101208201839052610140820152610160810191909152610f95600484611c03565b158015610fab5750610fa8606484611c03565b15155b80610fbf5750610fbd61019084611c03565b155b15610fcc57601d60208201525b60005b600c81108015610ff857508181600c8110610fec57610fec611c3d565b602002015160ff168510155b15611035578181600c811061100f5761100f611c3d565b60200201516110219060ff1686611c17565b945061102e600182611c2a565b9050610fcf565b611040600182611c2a565b9050600061104f866001611c2a565b604080516101c08101825260036101808201818152622520a760e91b6101a0840152825282518084018452818152622322a160e91b60208281019190915280840191909152835180850185528281526226a0a960e91b8183015283850152835180850185528281526220a82960e91b81830152606084015283518085018552828152624d415960e81b8183015260808401528351808501855282815262252aa760e91b8183015260a0840152835180850185528281526212955360ea1b8183015260c0840152835180850185528281526241554760e81b8183015260e0840152835180850185528281526205345560ec1b81830152610100840152835180850185528281526213d0d560ea1b8183015261012084015283518085018552828152622727ab60e91b8183015261014084015283518085019094529083526244454360e81b908301526101608101919091529091506000816111b0600186611c17565b600c81106111c0576111c0611c3d565b60200201519050806111d1846113b5565b6111da896113b5565b6040516020016111ec93929190611c53565b6040516020818303038152906040529950505050505050505050919050565b606061122f600d600c61121d85610e93565b6040516020016109bc93929190611cb2565b60405160200161123f9190611e64565b6040516020818303038152906040529050919050565b6060815160000361127457505060408051602081019091526000815290565b6000604051806060016040528060408152602001611ec160409139905060006003845160026112a39190611c2a565b6112ad9190611bef565b6112b8906004611ea9565b67ffffffffffffffff8111156112d0576112d0611654565b6040519080825280601f01601f1916602001820160405280156112fa576020820181803683370190505b50905060018201602082018586518701602081018051600082525b82841015611370576003840193508351603f8160121c168701518653600186019550603f81600c1c168701518653600186019550603f8160061c168701518653600186019550603f8116870151865350600185019450611315565b905250508551600390066001811461138f57600281146113a2576113aa565b603d6001830353603d60028303536113aa565b603d60018303535b509195945050505050565b606060006113c283611448565b600101905060008167ffffffffffffffff8111156113e2576113e2611654565b6040519080825280601f01601f19166020018201604052801561140c576020820181803683370190505b5090508181016020015b600019016f181899199a1a9b1b9c1cb0b131b232b360811b600a86061a8153600a850494508461141657509392505050565b60008072184f03e93ff9f4daa797ed6e38ed64bf6a1f0160401b83106114875772184f03e93ff9f4daa797ed6e38ed64bf6a1f0160401b830492506040015b6d04ee2d6d415b85acef810000000083106114b3576d04ee2d6d415b85acef8100000000830492506020015b662386f26fc1000083106114d157662386f26fc10000830492506010015b6305f5e10083106114e9576305f5e100830492506008015b61271083106114fd57612710830492506004015b6064831061150f576064830492506002015b600a831061045d5760010192915050565b6001600160e01b031981168114610aa057600080fd5b60006020828403121561154857600080fd5b813561155381611520565b9392505050565b60005b8381101561157557818101518382015260200161155d565b50506000910152565b6000815180845261159681602086016020860161155a565b601f01601f19169290920160200192915050565b602081526000611553602083018461157e565b6000602082840312156115cf57600080fd5b5035919050565b80356001600160a01b0381168114610afd57600080fd5b6000806040838503121561160057600080fd5b611609836115d6565b946020939093013593505050565b60008060006060848603121561162c57600080fd5b611635846115d6565b9250611643602085016115d6565b929592945050506040919091013590565b634e487b7160e01b600052604160045260246000fd5b60008067ffffffffffffffff84111561168557611685611654565b50604051601f19601f85018116603f0116810181811067ffffffffffffffff821117156116b4576116b4611654565b6040528381529050808284018510156116cc57600080fd5b83836020830137600060208583010152509392505050565b600082601f8301126116f557600080fd5b6115538383356020850161166a565b60006020828403121561171657600080fd5b813567ffffffffffffffff81111561172d57600080fd5b610e8b848285016116e4565b60006020828403121561174b57600080fd5b611553826115d6565b6000806040838503121561176757600080fd5b611770836115d6565b91506020830135801515811461178557600080fd5b809150509250929050565b600080604083850312156117a357600080fd5b823567ffffffffffffffff8111156117ba57600080fd5b6117c6858286016116e4565b925050602083013567ffffffffffffffff8111156117e357600080fd5b6117ef858286016116e4565b9150509250929050565b6000806000806080858703121561180f57600080fd5b611818856115d6565b9350611826602086016115d6565b925060408501359150606085013567ffffffffffffffff81111561184957600080fd5b8501601f8101871361185a57600080fd5b6118698782356020840161166a565b91505092959194509250565b6000806040838503121561188857600080fd5b611891836115d6565b915061189f602084016115d6565b90509250929050565b600181811c908216806118bc57607f821691505b6020821081036118dc57634e487b7160e01b600052602260045260246000fd5b50919050565b601f8211156106e657806000526020600020601f840160051c810160208510156119095750805b601f840160051c820191505b818110156119295760008155600101611915565b5050505050565b815167ffffffffffffffff81111561194a5761194a611654565b61195e8161195884546118a8565b846118e2565b6020601f821160018114611992576000831561197a5750848201515b600019600385901b1c1916600184901b178455611929565b600084815260208120601f198516915b828110156119c257878501518255602094850194600190920191016119a2565b50848210156119e05786840151600019600387901b60f8161c191681555b50505050600190811b01905550565b600081546119fc816118a8565b600182168015611a135760018114611a2857611a58565b60ff1983168652811515820286019350611a58565b84600052602060002060005b83811015611a5057815488820152600190910190602001611a34565b505081860193505b50505092915050565b60008151611a7381856020860161155a565b9290920192915050565b683d913730b6b2911d1160b91b81526000611a9b60098301866119ef565b701116113232b9b1b934b83a34b7b7111d1160791b81528451611ac581601184016020890161155a565b6a11161134b6b0b3b2911d1160a91b601192909101918201528351611af181601c84016020880161155a565b61227d60f01b601c9290910191820152601e0195945050505050565b7f646174613a6170706c69636174696f6e2f6a736f6e3b6261736536342c000000815260008251611b4581601d85016020870161155a565b91909101601d0192915050565b634e487b7160e01b600052601160045260246000fd5b600081611b7757611b77611b52565b506000190190565b6001600160a01b0385811682528416602082015260408101839052608060608201819052600090611bb29083018461157e565b9695505050505050565b600060208284031215611bce57600080fd5b815161155381611520565b634e487b7160e01b600052601260045260246000fd5b600082611bfe57611bfe611bd9565b500490565b600082611c1257611c12611bd9565b500690565b8181038181111561045d5761045d611b52565b8082018082111561045d5761045d611b52565b634e487b7160e01b600052603260045260246000fd5b60008451611c6581846020890161155a565b601760f91b9083019081528451611c8381600184016020890161155a565b600b60fa1b600192909101918201528351611ca581600284016020880161155a565b0160020195945050505050565b7f3c73766720786d6c6e733d22687474703a2f2f7777772e77332e6f72672f323081527f30302f737667222077696474683d2238303022206865696768743d223630302260208201527f2076696577426f783d223020302038303020363030223e00000000000000000060408201527f3c726563742077696474683d223130302522206865696768743d223130302522605782015266103334b6361e9160c91b60778201526000611d66607e8301866119ef565b631110179f60e11b81527f3c7465787420783d223530252220793d223530252220646f6d696e616e742d6260048201527f6173656c696e653d226d6964646c652220746578742d616e63686f723d226d6960248201527f64646c652220666f6e742d66616d696c793d22417269616c2220666f6e742d7360448201527f697a653d2238342220666f6e742d7765696768743d22363030222066696c6c3d6064820152601160f91b6084820152611bb2611e52611e3f611e39611e2b608586018a6119ef565b61111f60f11b815260020190565b87611a61565b661e17ba32bc3a1f60c91b815260070190565b651e17b9bb339f60d11b815260060190565b7f646174613a696d6167652f7376672b786d6c3b6261736536342c000000000000815260008251611e9c81601a85016020870161155a565b91909101601a0192915050565b808202811582820484141761045d5761045d611b5256fe4142434445464748494a4b4c4d4e4f505152535455565758595a6162636465666768696a6b6c6d6e6f707172737475767778797a303132333435363738392b2fa2646970667358221220366592ed935db1329558c236c5ac52d49e034370b8c30787b088b78e333582c164736f6c634300081d0033a264697066735822122051cd878a81132a5494a38a0e6488ac706243a809de82070ceb718c4c07be71af64736f6c634300081d0033",
  "linkReferences": {},
  "deployedLinkReferences": {}
}