{
  "_format": "hh-sol-artifact-1",
  "contractName": "Today",
  "sourceName": "contracts/Today.sol",
  "abi": [
    {
      "inputs": [
        {
          "internalType": "string",
          "name": "contractName",
          "type": "string"
        },
        {
          "internalType": "string",
          "name": "_imageUrl",
          "type": "string"
        },
        {
          "internalType": "string",
          "name": "_textColor",
          "type": "string"
        },
        {
          "internalType": "string",
          "name": "_bgColor",
          "type": "string"
        }
      ],
      "stateMutability": "nonpayable",
      "type": "constructor"
    },
    {
      "inputs": [],
      "name": "ApprovalCallerNotOwnerNorApproved",
      "type": "error"
    },
    {
      "inputs": [],
      "name": "ApprovalQueryForNonexistentToken",
      "type": "error"
    },
    {
      "inputs": [],
      "name": "BalanceQueryForZeroAddress",
      "type": "error"
    },
    {
      "inputs": [],
      "name": "MintERC2309QuantityExceedsLimit",
      "type": "error"
    },
    {
      "inputs": [],
      "name": "MintToZeroAddress",
      "type": "error"
    },
    {
      "inputs": [],
      "name": "MintZeroQuantity",
      "type": "error"
    },
    {
      "inputs": [],
      "name": "NotCompatibleWithSpotMints",
      "type": "error"
    },
    {
      "inputs": [],
      "name": "OwnerQueryForNonexistentToken",
      "type": "error"
    },
    {
      "inputs": [],
      "name": "OwnershipNotInitializedForExtraData",
      "type": "error"
    },
    {
      "inputs": [],
      "name": "SequentialMintExceedsLimit",
      "type": "error"
    },
    {
      "inputs": [],
      "name": "SequentialUpToTooSmall",
      "type": "error"
    },
    {
      "inputs": [],
      "name": "SpotMintTokenIdTooSmall",
      "type": "error"
    },
    {
      "inputs": [],
      "name": "TokenAlreadyExists",
      "type": "error"
    },
    {
      "inputs": [],
      "name": "TransferCallerNotOwnerNorApproved",
      "type": "error"
    },
    {
      "inputs": [],
      "name": "TransferFromIncorrectOwner",
      "type": "error"
    },
    {
      "inputs": [],
      "name": "TransferToNonERC721ReceiverImplementer",
      "type": "error"
    },
    {
      "inputs": [],
      "name": "TransferToZeroAddress",
      "type": "error"
    },
    {
      "inputs": [],
      "name": "URIQueryForNonexistentToken",
      "type": "error"
    },
    {
      "anonymous": false,
      "inputs": [
        {
          "indexed": true,
          "internalType": "address",
          "name": "owner",
          "type": "address"
        },
        {
          "indexed": true,
          "internalType": "address",
          "name": "approved",
          "type": "address"
        },
        {
          "indexed": true,
          "internalType": "uint256",
          "name": "tokenId",
          "type": "uint256"
        }
      ],
      "name": "Approval",
      "type": "event"
    },
    {
      "anonymous": false,
      "inputs": [
        {
          "indexed": true,
          "internalType": "address",
          "name": "owner",
          "type": "address"
        },
        {
          "indexed": true,
          "internalType": "address",
          "name": "operator",
          "type": "address"
        },
        {
          "indexed": false,
          "internalType": "bool",
          "name": "approved",
          "type": "bool"
        }
      ],
      "name": "ApprovalForAll",
      "type": "event"
    },
    {
      "anonymous": false,
      "inputs": [
        {
          "indexed": true,
          "internalType": "uint256",
          "name": "fromTokenId",
          "type": "uint256"
        },
        {
          "indexed": false,
          "internalType": "uint256",
          "name": "toTokenId",
          "type": "uint256"
        },
        {
          "indexed": true,
          "internalType": "address",
          "name": "from",
          "type": "address"
        },
        {
          "indexed": true,
          "internalType": "address",
          "name": "to",
          "type": "address"
        }
      ],
      "name": "ConsecutiveTransfer",
      "type": "event"
    },
    {
      "anonymous": false,
      "inputs": [
        {
          "indexed": true,
          "internalType": "address",
          "name": "previousOwner",
          "type": "address"
        },
        {
          "indexed": true,
          "internalType": "address",
          "name": "newOwner",
          "type": "address"
        }
      ],
      "name": "OwnershipTransferred",
      "type": "event"
    },
    {
      "anonymous": false,
      "inputs": [
        {
          "indexed": true,
          "internalType": "address",
          "name": "from",
          "type": "address"
        },
        {
          "indexed": true,
          "internalType": "address",
          "name": "to",
          "type": "address"
        },
        {
          "indexed": true,
          "internalType": "uint256",
          "name": "tokenId",
          "type": "uint256"
        }
      ],
      "name": "Transfer",
      "type": "event"
    },
    {
      "inputs": [
        {
          "internalType": "address",
          "name": "to",
          "type": "address"
        },
        {
          "internalType": "uint256",
          "name": "tokenId",
          "type": "uint256"
        }
      ],
      "name": "approve",
      "outputs": [],
      "stateMutability": "payable",
      "type": "function"
    },
    {
      "inputs": [
        {
          "internalType": "address",
          "name": "owner",
          "type": "address"
        }
      ],
      "name": "balanceOf",
      "outputs": [
        {
          "internalType": "uint256",
          "name": "",
          "type": "uint256"
        }
      ],
      "stateMutability": "view",
      "type": "function"
    },
    {
      "inputs": [],
      "name": "bgColor",
      "outputs": [
        {
          "internalType": "string",
          "name": "",
          "type": "string"
        }
      ],
      "stateMutability": "view",
      "type": "function"
    },
    {
      "inputs": [
        {
          "internalType": "uint256",
          "name": "",
          "type": "uint256"
        }
      ],
      "name": "customTokenURIs",
      "outputs": [
        {
          "internalType": "string",
          "name": "",
          "type": "string"
        }
      ],
      "stateMutability": "view",
      "type": "function"
    },
    {
      "inputs": [
        {
          "internalType": "uint256",
          "name": "tokenId",
          "type": "uint256"
        }
      ],
      "name": "getApproved",
      "outputs": [
        {
          "internalType": "address",
          "name": "",
          "type": "address"
        }
      ],
      "stateMutability": "view",
      "type": "function"
    },
    {
      "inputs": [],
      "name": "imageUrl",
      "outputs": [
        {
          "internalType": "string",
          "name": "",
          "type": "string"
        }
      ],
      "stateMutability": "view",
      "type": "function"
    },
    {
      "inputs": [
        {
          "internalType": "address",
          "name": "owner",
          "type": "address"
        },
        {
          "internalType": "address",
          "name": "operator",
          "type": "address"
        }
      ],
      "name": "isApprovedForAll",
      "outputs": [
        {
          "internalType": "bool",
          "name": "",
          "type": "bool"
        }
      ],
      "stateMutability": "view",
      "type": "function"
    },
    {
      "inputs": [
        {
          "internalType": "address",
          "name": "to",
          "type": "address"
        },
        {
          "internalType": "uint256",
          "name": "quantity",
          "type": "uint256"
        }
      ],
      "name": "mint",
      "outputs": [],
      "stateMutability": "nonpayable",
      "type": "function"
    },
    {
      "inputs": [],
      "name": "name",
      "outputs": [
        {
          "internalType": "string",
          "name": "",
          "type": "string"
        }
      ],
      "stateMutability": "view",
      "type": "function"
    },
    {
      "inputs": [],
      "name": "owner",
      "outputs": [
        {
          "internalType": "address",
          "name": "",
          "type": "address"
        }
      ],
      "stateMutability": "view",
      "type": "function"
    },
    {
      "inputs": [
        {
          "internalType": "uint256",
          "name": "tokenId",
          "type": "uint256"
        }
      ],
      "name": "ownerOf",
      "outputs": [
        {
          "internalType": "address",
          "name": "",
          "type": "address"
        }
      ],
      "stateMutability": "view",
      "type": "function"
    },
    {
      "inputs": [],
      "name": "renounceOwnership",
      "outputs": [],
      "stateMutability": "nonpayable",
      "type": "function"
    },
    {
      "inputs": [
        {
          "internalType": "address",
          "name": "from",
          "type": "address"
        },
        {
          "internalType": "address",
          "name": "to",
          "type": "address"
        },
        {
          "internalType": "uint256",
          "name": "tokenId",
          "type": "uint256"
        }
      ],
      "name": "safeTransferFrom",
      "outputs": [],
      "stateMutability": "payable",
      "type": "function"
    },
    {
      "inputs": [
        {
          "internalType": "address",
          "name": "from",
          "type": "address"
        },
        {
          "internalType": "address",
          "name": "to",
          "type": "address"
        },
        {
          "internalType": "uint256",
          "name": "tokenId",
          "type": "uint256"
        },
        {
          "internalType": "bytes",
          "name": "_data",
          "type": "bytes"
        }
      ],
      "name": "safeTransferFrom",
      "outputs": [],
      "stateMutability": "payable",
      "type": "function"
    },
    {
      "inputs": [
        {
          "internalType": "address",
          "name": "operator",
          "type": "address"
        },
        {
          "internalType": "bool",
          "name": "approved",
          "type": "bool"
        }
      ],
      "name": "setApprovalForAll",
      "outputs": [],
      "stateMutability": "nonpayable",
      "type": "function"
    },
    {
      "inputs": [
        {
          "internalType": "uint256[]",
          "name": "tokenIds",
          "type": "uint256[]"
        },
        {
          "internalType": "string[]",
          "name": "uris",
          "type": "string[]"
        }
      ],
      "name": "setBatchCustomTokenURI",
      "outputs": [],
      "stateMutability": "nonpayable",
      "type": "function"
    },
    {
      "inputs": [
        {
          "internalType": "string",
          "name": "_textColor",
          "type": "string"
        },
        {
          "internalType": "string",
          "name": "_bgColor",
          "type": "string"
        }
      ],
      "name": "setColors",
      "outputs": [],
      "stateMutability": "nonpayable",
      "type": "function"
    },
    {
      "inputs": [
        {
          "internalType": "uint256",
          "name": "tokenId",
          "type": "uint256"
        },
        {
          "internalType": "string",
          "name": "uri",
          "type": "string"
        }
      ],
      "name": "setCustomTokenURI",
      "outputs": [],
      "stateMutability": "nonpayable",
      "type": "function"
    },
    {
      "inputs": [
        {
          "internalType": "string",
          "name": "url",
          "type": "string"
        }
      ],
      "name": "setImageUrl",
      "outputs": [],
      "stateMutability": "nonpayable",
      "type": "function"
    },
    {
      "inputs": [
        {
          "internalType": "bytes4",
          "name": "interfaceId",
          "type": "bytes4"
        }
      ],
      "name": "supportsInterface",
      "outputs": [
        {
          "internalType": "bool",
          "name": "",
          "type": "bool"
        }
      ],
      "stateMutability": "view",
      "type": "function"
    },
    {
      "inputs": [],
      "name": "symbol",
      "outputs": [
        {
          "internalType": "string",
          "name": "",
          "type": "string"
        }
      ],
      "stateMutability": "view",
      "type": "function"
    },
    {
      "inputs": [],
      "name": "textColor",
      "outputs": [
        {
          "internalType": "string",
          "name": "",
          "type": "string"
        }
      ],
      "stateMutability": "view",
      "type": "function"
    },
    {
      "inputs": [],
      "name": "time",
      "outputs": [
        {
          "internalType": "uint256",
          "name": "",
          "type": "uint256"
        }
      ],
      "stateMutability": "view",
      "type": "function"
    },
    {
      "inputs": [
        {
          "internalType": "uint256",
          "name": "tokenId",
          "type": "uint256"
        }
      ],
      "name": "tokenURI",
      "outputs": [
        {
          "internalType": "string",
          "name": "",
          "type": "string"
        }
      ],
      "stateMutability": "view",
      "type": "function"
    },
    {
      "inputs": [],
      "name": "totalSupply",
      "outputs": [
        {
          "internalType": "uint256",
          "name": "result",
          "type": "uint256"
        }
      ],
      "stateMutability": "view",
      "type": "function"
    },
    {
      "inputs": [
        {
          "internalType": "address",
          "name": "from",
          "type": "address"
        },
        {
          "internalType": "address",
          "name": "to",
          "type": "address"
        },
        {
          "internalType": "uint256",
          "name": "tokenId",
          "type": "uint256"
        }
      ],
      "name": "transferFrom",
      "outputs": [],
      "stateMutability": "payable",
      "type": "function"
    },
    {
      "inputs": [
        {
          "internalType": "address",
          "name": "newOwner",
          "type": "address"
        }
      ],
      "name": "transferOwnership",
      "outputs": [],
      "stateMutability": "nonpayable",
      "type": "function"
    }
  ],
  "bytecode": "0x608060405234801561001057600080fd5b5060405161304238038061304283398101604081905261002f9161074d565b6100388461012b565b604080518082019091526005815264544f44415960d81b602082015260026100608382610898565b50600361006d8282610898565b5050600080555061007d3361014c565b6100868461012b565b600a906100939082610898565b50600b6100a08482610898565b5060008251116100cf57604051806040016040528060078152602001662366356635663560c81b8152506100d1565b815b600c906100de9082610898565b50600081511161010d57604051806040016040528060078152602001660233030303030360cc1b81525061010f565b805b600d9061011c9082610898565b505042600e5550610a45915050565b606060008251116101445761013f4261019e565b610146565b815b92915050565b600980546001600160a01b038381166001600160a01b0319831681179093556040519116919082907f8be0079c531659141344cd1fd0a4f28419497f9722a3daafe3b4186f6b6457e090600090a35050565b60606201518060006101b08285610982565b90506107b261016d5b808310610234576101cb600483610996565b1580156101e157506101de606483610996565b15155b806101f557506101f361019083610996565b155b156102285761016e83106102235761020f61016e846109aa565b925061021c6001836109bd565b91506101b9565b610234565b61020f61016d846109aa565b6040805161018081018252601f808252601c6020830152918101829052601e606082018190526080820183905260a0820181905260c0820183905260e08201839052610100820181905261012082018390526101408201526101608101919091526102a0600484610996565b1580156102b657506102b3606484610996565b15155b806102ca57506102c861019084610996565b155b156102d757601d60208201525b60005b600c8110801561030357508181600c81106102f7576102f76109d0565b602002015160ff168510155b15610340578181600c811061031a5761031a6109d0565b602002015161032c9060ff16866109aa565b94506103396001826109bd565b90506102da565b61034b6001826109bd565b9050600061035a8660016109bd565b604080516101c08101825260036101808201818152622520a760e91b6101a0840152825282518084018452818152622322a160e91b60208281019190915280840191909152835180850185528281526226a0a960e91b8183015283850152835180850185528281526220a82960e91b81830152606084015283518085018552828152624d415960e81b8183015260808401528351808501855282815262252aa760e91b8183015260a0840152835180850185528281526212955360ea1b8183015260c0840152835180850185528281526241554760e81b8183015260e0840152835180850185528281526205345560ec1b81830152610100840152835180850185528281526213d0d560ea1b8183015261012084015283518085018552828152622727ab60e91b8183015261014084015283518085019094529083526244454360e81b908301526101608101919091529091506000816104bb6001866109aa565b600c81106104cb576104cb6109d0565b60200201519050806104dc84610516565b6104e589610516565b6040516020016104f7939291906109e6565b6040516020818303038152906040529950505050505050505050919050565b60606000610523836105a8565b60010190506000816001600160401b038111156105425761054261068a565b6040519080825280601f01601f19166020018201604052801561056c576020820181803683370190505b5090508181016020015b600019016f181899199a1a9b1b9c1cb0b131b232b360811b600a86061a8153600a850494508461057657509392505050565b6000807a184f03e93ff9f4daa797ed6e38ed64bf6a1f01000000000000000083106105f1577a184f03e93ff9f4daa797ed6e38ed64bf6a1f010000000000000000830492506040015b6d04ee2d6d415b85acef8100000000831061061d576d04ee2d6d415b85acef8100000000830492506020015b662386f26fc10000831061063b57662386f26fc10000830492506010015b6305f5e1008310610653576305f5e100830492506008015b612710831061066757612710830492506004015b60648310610679576064830492506002015b600a83106101465760010192915050565b634e487b7160e01b600052604160045260246000fd5b60005b838110156106bb5781810151838201526020016106a3565b50506000910152565b600082601f8301126106d557600080fd5b81516001600160401b038111156106ee576106ee61068a565b604051601f8201601f19908116603f011681016001600160401b038111828210171561071c5761071c61068a565b60405281815283820160200185101561073457600080fd5b6107458260208301602087016106a0565b949350505050565b6000806000806080858703121561076357600080fd5b84516001600160401b0381111561077957600080fd5b610785878288016106c4565b602087015190955090506001600160401b038111156107a357600080fd5b6107af878288016106c4565b604087015190945090506001600160401b038111156107cd57600080fd5b6107d9878288016106c4565b606087015190935090506001600160401b038111156107f757600080fd5b610803878288016106c4565b91505092959194509250565b600181811c9082168061082357607f821691505b60208210810361084357634e487b7160e01b600052602260045260246000fd5b50919050565b601f82111561089357806000526020600020601f840160051c810160208510156108705750805b601f840160051c820191505b81811015610890576000815560010161087c565b50505b505050565b81516001600160401b038111156108b1576108b161068a565b6108c5816108bf845461080f565b84610849565b6020601f8211600181146108f957600083156108e15750848201515b600019600385901b1c1916600184901b178455610890565b600084815260208120601f198516915b828110156109295787850151825560209485019460019092019101610909565b50848210156109475786840151600019600387901b60f8161c191681555b50505050600190811b01905550565b634e487b7160e01b600052601260045260246000fd5b634e487b7160e01b600052601160045260246000fd5b60008261099157610991610956565b500490565b6000826109a5576109a5610956565b500690565b818103818111156101465761014661096c565b808201808211156101465761014661096c565b634e487b7160e01b600052603260045260246000fd5b600084516109f88184602089016106a0565b601760f91b9083019081528451610a168160018401602089016106a0565b600b60fa1b600192909101918201528351610a388160028401602088016106a0565b0160020195945050505050565b6125ee80610a546000396000f3fe60806040526004361061019c5760003560e01c806370a08231116100ec578063aec19c421161008a578063e985e9c511610064578063e985e9c514610458578063f2fde38b14610478578063f57e680614610498578063fb15e9fd146104ad57600080fd5b8063aec19c4214610405578063b88d4fde14610425578063c87b56dd1461043857600080fd5b80638da5cb5b116100c65780638da5cb5b1461039d57806395d89b41146103bb578063a22cb465146103d0578063aba83150146103f057600080fd5b806370a0823114610348578063715018a614610368578063851fc4b61461037d57600080fd5b806323b872dd116101595780633122e4f4116101335780633122e4f4146102d557806340c10f19146102f557806342842e0e146103155780636352211e1461032857600080fd5b806323b872dd146102825780632abff1f2146102955780633077ac25146102b557600080fd5b806301ffc9a7146101a157806306fdde03146101d6578063081812fc146101f8578063095ea7b31461023057806316ada5471461024557806318160ddd14610269575b600080fd5b3480156101ad57600080fd5b506101c16101bc366004611a0e565b6104c2565b60405190151581526020015b60405180910390f35b3480156101e257600080fd5b506101eb610514565b6040516101cd9190611a82565b34801561020457600080fd5b50610218610213366004611a95565b6105a6565b6040516001600160a01b0390911681526020016101cd565b61024361023e366004611ac5565b6105e1565b005b34801561025157600080fd5b5061025b600e5481565b6040519081526020016101cd565b34801561027557600080fd5b506001546000540361025b565b610243610290366004611aef565b6105f1565b3480156102a157600080fd5b506102436102b0366004611bed565b610756565b3480156102c157600080fd5b506101eb6102d0366004611a95565b61076a565b3480156102e157600080fd5b506102436102f0366004611cd5565b610804565b34801561030157600080fd5b50610243610310366004611ac5565b610933565b610243610323366004611aef565b610945565b34801561033457600080fd5b50610218610343366004611a95565b610960565b34801561035457600080fd5b5061025b610363366004611d95565b61096b565b34801561037457600080fd5b506102436109b0565b34801561038957600080fd5b50610243610398366004611db0565b6109c4565b3480156103a957600080fd5b506009546001600160a01b0316610218565b3480156103c757600080fd5b506101eb610a30565b3480156103dc57600080fd5b506102436103eb366004611dec565b610a3f565b3480156103fc57600080fd5b506101eb610aab565b34801561041157600080fd5b50610243610420366004611e28565b610ab8565b610243610433366004611e79565b610ad9565b34801561044457600080fd5b506101eb610453366004611a95565b610b1a565b34801561046457600080fd5b506101c1610473366004611ef4565b610d9b565b34801561048457600080fd5b50610243610493366004611d95565b610dc9565b3480156104a457600080fd5b506101eb610e42565b3480156104b957600080fd5b506101eb610e4f565b60006301ffc9a760e01b6001600160e01b0319831614806104f357506380ac58cd60e01b6001600160e01b03198316145b8061050e5750635b5e139f60e01b6001600160e01b03198316145b92915050565b6060600a805461052390611f27565b80601f016020809104026020016040519081016040528092919081815260200182805461054f90611f27565b801561059c5780601f106105715761010080835404028352916020019161059c565b820191906000526020600020905b81548152906001019060200180831161057f57829003601f168201915b5050505050905090565b60006105b182610e5c565b6105c5576105c56333d1c03960e21b610ea1565b506000908152600660205260409020546001600160a01b031690565b6105ed82826001610eab565b5050565b60006105fc82610f4e565b6001600160a01b0394851694909150811684146106225761062262a1148160e81b610ea1565b60008281526006602052604090208054338082146001600160a01b03881690911417610666576106528633610d9b565b61066657610666632ce44b5f60e11b610ea1565b801561067157600082555b6001600160a01b038681166000908152600560205260408082208054600019019055918716808252919020805460010190554260a01b17600160e11b17600085815260046020526040812091909155600160e11b84169003610703576001840160008181526004602052604081205490036107015760005481146107015760008181526004602052604090208490555b505b6001600160a01b0385168481887fddf252ad1be2c89b69c2b068fc378daa952ba7f163c4a11628f55a4df523b3ef600080a48060000361074d5761074d633a954ecd60e21b610ea1565b50505050505050565b61075e610fe4565b600b6105ed8282611faf565b600f602052600090815260409020805461078390611f27565b80601f01602080910402602001604051908101604052809291908181526020018280546107af90611f27565b80156107fc5780601f106107d1576101008083540402835291602001916107fc565b820191906000526020600020905b8154815290600101906020018083116107df57829003601f168201915b505050505081565b61080c610fe4565b80518251146108625760405162461bcd60e51b815260206004820152601860248201527f4d69736d61746368656420696e707574206c656e67746873000000000000000060448201526064015b60405180910390fd5b60005b825181101561092e576108908382815181106108835761088361206d565b6020026020010151610e5c565b6108d35760405162461bcd60e51b8152602060048201526014602482015273151bdad95b88191bd95cc81b9bdd08195e1a5cdd60621b6044820152606401610859565b8181815181106108e5576108e561206d565b6020026020010151600f60008584815181106109035761090361206d565b6020026020010151815260200190815260200160002090816109259190611faf565b50600101610865565b505050565b61093b610fe4565b6105ed828261103e565b61092e83838360405180602001604052806000815250610ad9565b600061050e82610f4e565b60006001600160a01b03821661098b5761098b6323d3ad8160e21b610ea1565b506001600160a01b03166000908152600560205260409020546001600160401b031690565b6109b8610fe4565b6109c260006110fd565b565b6109cc610fe4565b6109d582610e5c565b610a185760405162461bcd60e51b8152602060048201526014602482015273151bdad95b88191bd95cc81b9bdd08195e1a5cdd60621b6044820152606401610859565b6000828152600f6020526040902061092e8282611faf565b60606003805461052390611f27565b3360008181526007602090815260408083206001600160a01b03871680855290835292819020805460ff191686151590811790915590519081529192917f17307eab39ab6107e8899845ad3d59bd9653f200f220920489ca2b5937696c31910160405180910390a35050565b600b805461078390611f27565b610ac0610fe4565b600c610acc8382611faf565b50600d61092e8282611faf565b610ae48484846105f1565b6001600160a01b0383163b15610b1457610b008484848461114f565b610b1457610b146368d2bf6b60e11b610ea1565b50505050565b6060610b2582610e5c565b610b4257604051630a14c4b560e41b815260040160405180910390fd5b6000828152600f602052604081208054610b5b90611f27565b80601f0160208091040260200160405190810160405280929190818152602001828054610b8790611f27565b8015610bd45780601f10610ba957610100808354040283529160200191610bd4565b820191906000526020600020905b815481529060010190602001808311610bb757829003601f168201915b50505050509050600081511115610beb5792915050565b6000610bf8600e54611232565b9050610d73610c90600a8054610c0d90611f27565b80601f0160208091040260200160405190810160405280929190818152602001828054610c3990611f27565b8015610c865780601f10610c5b57610100808354040283529160200191610c86565b820191906000526020600020905b815481529060010190602001808311610c6957829003601f168201915b50505050506115aa565b610c99866116e5565b836000600b8054610ca990611f27565b905011610cc057610cbb600e54611777565b610d4c565b600b8054610ccd90611f27565b80601f0160208091040260200160405190810160405280929190818152602001828054610cf990611f27565b8015610d465780601f10610d1b57610100808354040283529160200191610d46565b820191906000526020600020905b815481529060010190602001808311610d2957829003601f168201915b50505050505b604051602001610d5f949392919061209f565b6040516020818303038152906040526117c1565b604051602001610d839190612169565b60405160208183030381529060405292505050919050565b6001600160a01b03918216600090815260076020908152604080832093909416825291909152205460ff1690565b610dd1610fe4565b6001600160a01b038116610e365760405162461bcd60e51b815260206004820152602660248201527f4f776e61626c653a206e6577206f776e657220697320746865207a65726f206160448201526564647265737360d01b6064820152608401610859565b610e3f816110fd565b50565b600d805461078390611f27565b600c805461078390611f27565b60008054821015610e9c5760005b5060008281526004602052604081205490819003610e9257610e8b836121c4565b9250610e6a565b600160e01b161590505b919050565b8060005260046000fd5b6000610eb683610960565b9050818015610ece5750336001600160a01b03821614155b15610ef157610edd8133610d9b565b610ef157610ef16367d9dca160e11b610ea1565b60008381526006602052604080822080546001600160a01b0319166001600160a01b0388811691821790925591518693918516917f8c5be1e5ebec7d5bd14f71427d1e84f3dd0314c0f7b2291e5b200ac8c7c3b92591a450505050565b60008181526004602052604090205480600003610fc1576000548210610f7e57610f7e636f96cda160e11b610ea1565b5b50600019016000818152600460205260409020548015610f7f57600160e01b8116600003610fac57919050565b610fbc636f96cda160e11b610ea1565b610f7f565b600160e01b8116600003610fd457919050565b610e9c636f96cda160e11b610ea1565b6009546001600160a01b031633146109c25760405162461bcd60e51b815260206004820181905260248201527f4f776e61626c653a2063616c6c6572206973206e6f7420746865206f776e65726044820152606401610859565b600080549082900361105a5761105a63b562e8dd60e01b610ea1565b60008181526004602090815260408083206001600160a01b0387164260a01b6001881460e11b178117909155808452600590925282208054680100000000000000018602019055908190036110b8576110b8622e076360e81b610ea1565b818301825b808360007fddf252ad1be2c89b69c2b068fc378daa952ba7f163c4a11628f55a4df523b3ef600080a48181600101915081036110bd575060005550505050565b600980546001600160a01b038381166001600160a01b0319831681179093556040519116919082907f8be0079c531659141344cd1fd0a4f28419497f9722a3daafe3b4186f6b6457e090600090a35050565b604051630a85bd0160e11b81526000906001600160a01b0385169063150b7a02906111849033908990889088906004016121db565b6020604051808303816000875af19250505080156111bf575060408051601f3d908101601f191682019092526111bc91810190612218565b60015b611214573d8080156111ed576040519150601f19603f3d011682016040523d82523d6000602084013e6111f2565b606091505b50805160000361120c5761120c6368d2bf6b60e11b610ea1565b805181602001fd5b6001600160e01b031916630a85bd0160e11b1490505b949350505050565b6060620151806000611244828561224b565b90506107b261016d5b8083106112c85761125f60048361225f565b158015611275575061127260648361225f565b15155b8061128957506112876101908361225f565b155b156112bc5761016e83106112b7576112a361016e84612273565b92506112b0600183612286565b915061124d565b6112c8565b6112a361016d84612273565b6040805161018081018252601f808252601c6020830152918101829052601e606082018190526080820183905260a0820181905260c0820183905260e082018390526101008201819052610120820183905261014082015261016081019190915261133460048461225f565b15801561134a575061134760648461225f565b15155b8061135e575061135c6101908461225f565b155b1561136b57601d60208201525b60005b600c8110801561139757508181600c811061138b5761138b61206d565b602002015160ff168510155b156113d4578181600c81106113ae576113ae61206d565b60200201516113c09060ff1686612273565b94506113cd600182612286565b905061136e565b6113df600182612286565b905060006113ee866001612286565b604080516101c08101825260036101808201818152622520a760e91b6101a0840152825282518084018452818152622322a160e91b60208281019190915280840191909152835180850185528281526226a0a960e91b8183015283850152835180850185528281526220a82960e91b81830152606084015283518085018552828152624d415960e81b8183015260808401528351808501855282815262252aa760e91b8183015260a0840152835180850185528281526212955360ea1b8183015260c0840152835180850185528281526241554760e81b8183015260e0840152835180850185528281526205345560ec1b81830152610100840152835180850185528281526213d0d560ea1b8183015261012084015283518085018552828152622727ab60e91b8183015261014084015283518085019094529083526244454360e81b9083015261016081019190915290915060008161154f600186612273565b600c811061155f5761155f61206d565b6020020151905080611570846116e5565b611579896116e5565b60405160200161158b93929190612299565b6040516020818303038152906040529950505050505050505050919050565b60606000829050600081516001600160401b038111156115cc576115cc611b2c565b6040519080825280601f01601f1916602001820160405280156115f6576020820181803683370190505b50905060005b82518110156116dd578281815181106116175761161761206d565b602001015160f81c60f81b8282815181106116345761163461206d565b60200101906001600160f81b031916908160001a9053506040805180820190915260018152601160f91b6020909101819052825183908390811061167a5761167a61206d565b01602001516001600160f81b031916036116d5576040805180820190915260018152602760f81b602090910181905282518390839081106116bd576116bd61206d565b60200101906001600160f81b031916908160001a9053505b6001016115fc565b509392505050565b606060006116f283611920565b60010190506000816001600160401b0381111561171157611711611b2c565b6040519080825280601f01601f19166020018201604052801561173b576020820181803683370190505b5090508181016020015b600019016f181899199a1a9b1b9c1cb0b131b232b360811b600a86061a8153600a850494508461174557509392505050565b606061179b600d600c61178985611232565b604051602001610d5f9392919061236a565b6040516020016117ab919061251c565b6040516020818303038152906040529050919050565b606081516000036117e057505060408051602081019091526000815290565b6000604051806060016040528060408152602001612579604091399050600060038451600261180f9190612286565b611819919061224b565b611824906004612561565b6001600160401b0381111561183b5761183b611b2c565b6040519080825280601f01601f191660200182016040528015611865576020820181803683370190505b50905060018201602082018586518701602081018051600082525b828410156118db576003840193508351603f8160121c168701518653600186019550603f81600c1c168701518653600186019550603f8160061c168701518653600186019550603f8116870151865350600185019450611880565b90525050855160039006600181146118fa576002811461190d57611915565b603d6001830353603d6002830353611915565b603d60018303535b509195945050505050565b60008072184f03e93ff9f4daa797ed6e38ed64bf6a1f0160401b831061195f5772184f03e93ff9f4daa797ed6e38ed64bf6a1f0160401b830492506040015b6d04ee2d6d415b85acef8100000000831061198b576d04ee2d6d415b85acef8100000000830492506020015b662386f26fc1000083106119a957662386f26fc10000830492506010015b6305f5e10083106119c1576305f5e100830492506008015b61271083106119d557612710830492506004015b606483106119e7576064830492506002015b600a831061050e5760010192915050565b6001600160e01b031981168114610e3f57600080fd5b600060208284031215611a2057600080fd5b8135611a2b816119f8565b9392505050565b60005b83811015611a4d578181015183820152602001611a35565b50506000910152565b60008151808452611a6e816020860160208601611a32565b601f01601f19169290920160200192915050565b602081526000611a2b6020830184611a56565b600060208284031215611aa757600080fd5b5035919050565b80356001600160a01b0381168114610e9c57600080fd5b60008060408385031215611ad857600080fd5b611ae183611aae565b946020939093013593505050565b600080600060608486031215611b0457600080fd5b611b0d84611aae565b9250611b1b60208501611aae565b929592945050506040919091013590565b634e487b7160e01b600052604160045260246000fd5b604051601f8201601f191681016001600160401b0381118282101715611b6a57611b6a611b2c565b604052919050565b6000806001600160401b03841115611b8c57611b8c611b2c565b50601f8301601f1916602001611ba181611b42565b915050828152838383011115611bb657600080fd5b828260208301376000602084830101529392505050565b600082601f830112611bde57600080fd5b611a2b83833560208501611b72565b600060208284031215611bff57600080fd5b81356001600160401b03811115611c1557600080fd5b61122a84828501611bcd565b60006001600160401b03821115611c3a57611c3a611b2c565b5060051b60200190565b600082601f830112611c5557600080fd5b8135611c68611c6382611c21565b611b42565b8082825260208201915060208360051b860101925085831115611c8a57600080fd5b602085015b83811015611ccb5780356001600160401b03811115611cad57600080fd5b611cbc886020838a0101611bcd565b84525060209283019201611c8f565b5095945050505050565b60008060408385031215611ce857600080fd5b82356001600160401b03811115611cfe57600080fd5b8301601f81018513611d0f57600080fd5b8035611d1d611c6382611c21565b8082825260208201915060208360051b850101925087831115611d3f57600080fd5b6020840193505b82841015611d61578335825260209384019390910190611d46565b945050505060208301356001600160401b03811115611d7f57600080fd5b611d8b85828601611c44565b9150509250929050565b600060208284031215611da757600080fd5b611a2b82611aae565b60008060408385031215611dc357600080fd5b8235915060208301356001600160401b03811115611de057600080fd5b611d8b85828601611bcd565b60008060408385031215611dff57600080fd5b611e0883611aae565b915060208301358015158114611e1d57600080fd5b809150509250929050565b60008060408385031215611e3b57600080fd5b82356001600160401b03811115611e5157600080fd5b611e5d85828601611bcd565b92505060208301356001600160401b03811115611de057600080fd5b60008060008060808587031215611e8f57600080fd5b611e9885611aae565b9350611ea660208601611aae565b92506040850135915060608501356001600160401b03811115611ec857600080fd5b8501601f81018713611ed957600080fd5b611ee887823560208401611b72565b91505092959194509250565b60008060408385031215611f0757600080fd5b611f1083611aae565b9150611f1e60208401611aae565b90509250929050565b600181811c90821680611f3b57607f821691505b602082108103611f5b57634e487b7160e01b600052602260045260246000fd5b50919050565b601f82111561092e57806000526020600020601f840160051c81016020851015611f885750805b601f840160051c820191505b81811015611fa85760008155600101611f94565b5050505050565b81516001600160401b03811115611fc857611fc8611b2c565b611fdc81611fd68454611f27565b84611f61565b6020601f8211600181146120105760008315611ff85750848201515b600019600385901b1c1916600184901b178455611fa8565b600084815260208120601f198516915b828110156120405787850151825560209485019460019092019101612020565b508482101561205e5786840151600019600387901b60f8161c191681555b50505050600190811b01905550565b634e487b7160e01b600052603260045260246000fd5b60008151612095818560208601611a32565b9290920192915050565b683d913730b6b2911d1160b91b815284516000906120c4816009850160208a01611a32565b61202360f01b60099184019182015285516120e681600b840160208a01611a32565b600981830101915050701116113232b9b1b934b83a34b7b7111d1160791b6002820152845161211c816013840160208901611a32565b6002818301019150506a11161134b6b0b3b2911d1160a91b6011820152835161214c81601c840160208801611a32565b61227d60f01b601c9290910191820152601e019695505050505050565b7f646174613a6170706c69636174696f6e2f6a736f6e3b6261736536342c0000008152600082516121a181601d850160208701611a32565b91909101601d0192915050565b634e487b7160e01b600052601160045260246000fd5b6000816121d3576121d36121ae565b506000190190565b6001600160a01b038581168252841660208201526040810183905260806060820181905260009061220e90830184611a56565b9695505050505050565b60006020828403121561222a57600080fd5b8151611a2b816119f8565b634e487b7160e01b600052601260045260246000fd5b60008261225a5761225a612235565b500490565b60008261226e5761226e612235565b500690565b8181038181111561050e5761050e6121ae565b8082018082111561050e5761050e6121ae565b600084516122ab818460208901611a32565b601760f91b90830190815284516122c9816001840160208901611a32565b600b60fa1b6001929091019182015283516122eb816002840160208801611a32565b0160020195945050505050565b6000815461230581611f27565b60018216801561231c576001811461233157612361565b60ff1983168652811515820286019350612361565b84600052602060002060005b838110156123595781548882015260019091019060200161233d565b505081860193505b50505092915050565b7f3c73766720786d6c6e733d22687474703a2f2f7777772e77332e6f72672f323081527f30302f737667222077696474683d2238303022206865696768743d223630302260208201527f2076696577426f783d223020302038303020363030223e00000000000000000060408201527f3c726563742077696474683d223130302522206865696768743d223130302522605782015266103334b6361e9160c91b6077820152600061241e607e8301866122f8565b631110179f60e11b81527f3c7465787420783d223530252220793d223530252220646f6d696e616e742d6260048201527f6173656c696e653d226d6964646c652220746578742d616e63686f723d226d6960248201527f64646c652220666f6e742d66616d696c793d22417269616c2220666f6e742d7360448201527f697a653d2238342220666f6e742d7765696768743d22363030222066696c6c3d6064820152601160f91b608482015261220e61250a6124f76124f16124e3608586018a6122f8565b61111f60f11b815260020190565b87612083565b661e17ba32bc3a1f60c91b815260070190565b651e17b9bb339f60d11b815260060190565b7f646174613a696d6167652f7376672b786d6c3b6261736536342c00000000000081526000825161255481601a850160208701611a32565b91909101601a0192915050565b808202811582820484141761050e5761050e6121ae56fe4142434445464748494a4b4c4d4e4f505152535455565758595a6162636465666768696a6b6c6d6e6f707172737475767778797a303132333435363738392b2fa2646970667358221220525f124ac4e6912fd24ea1d87c14df0700e718111f33ecaa0dbb342c0fbec59164736f6c634300081d0033",
  "linkReferences": {},
  "deployedLinkReferences": {}
}